:020000040800F2
:10000000601900200D150008010400089D05000876
:1000100001040008010400080104000800000000B9
:1000200000000000000000000000000001040008C3
:10003000010400080000000001040008F9040008A1
:10004000010400080104000801040008010400087C
:100050000104000801040008250400082504000824
:1000600025040008250400082504000801040008F0
:10007000010400080104000801040008010400084C
:10008000010400080104000801040008010400083C
:100090000104000801040008010400082504000808
:1000A000010400080104000801040008010400081C
:1000B000010400080104000801040008010400080C
:1000C00001040008010400080104000801040008FC
:1000D00001040008470500080104000801040008A5
:1000E00025040008010400080104000801040008B8
:1000F00001040008010400080104000801040008CC
:1001000001040008010400080104000801040008BB
:10011000010400080104000801040008CD040008DF
:10012000010400080104000881050008010400081A
:10013000010400080104000801040008010400088B
:10014000010400080104000801040008010400087B
:100150000104000801040008650500080104000806
:10016000010400080104000801040008010400085B
:1001700035050008190500080104000801040008FD
:04018000010400086E
:0402000001000000F9
:10040000684620F007018D46044B01B55B68044B3C
:100410001B68DB0700D500BEFEE700BF00ED00E073
:10042000F0ED00E0684620F007018D46244B01B551
:100430005B6803F03F03103B092B17D007D8072B4D
:100440000ED010D8062B37D10122002329E0172B1C
:100450000FD0282B19D00A2B2ED11022042320E0F4
:10046000022201231DE0042202231AE008220323B2
:1004700017E020220523134949690A4211D10133AB
:100480000A2B4FEA4202F6D10BE04FF480620A23B6
:100490000C4949690A4204D10133102B4FEA420248
:1004A000F6D108494A61084A0C2101FB03235A6826
:1004B00012B198685B689847BDE80140854670476F
:1004C00000ED00E0003C0140C4020020684620F03E
:1004D00007018D464FF6FE72054B01B51A82054B9A
:1004E0001B68DB0700D500BEBDE8014085467047AC
:1004F00000140040F0ED00E0684620F007018D4652
:10050000044A01B51368BDE8014001331360854614
:10051000704700BF84030020684620F007018D4625
:1005200001B5034801F02DFABDE80140854670474A
:1005300088030020684620F007018D4601B5BDE81C
:10054000014085467047684620F007018D4601B599
:10055000034800F01BFABDE801408546704700BF24
:10056000A4080020684620F007018D4601B5034825
:1005700000F029FABDE8014085467047A408002034
:10058000684620F007018D4601B5034800F041FAA6
:10059000BDE8014085467047A4080020684620F069
:1005A00007018D4601B5EFF30880EFF3098172462C
:1005B00001F01CB8BDE801408546704708B500222F
:1005C0000D490E4802F06FFC0D490C4802F07DFC0D
:1005D0000C490A4802F062FC084802F087FC00243B
:1005E00000F07EFA001B6328FAD900F079FA04467D
:1005F0000F2000F04BF8F3E714000020A0000020CB
:10060000600000201C00002010B500F069FA0446CC
:10061000132000F043F850B900F062FA001BB0F567
:100620007A7F06D24FF4FA7000F060FAF0E700200B
:1006300010BD012010BD000008B500F061FA0A4BA2
:100640000A4A1968914202D100221A6002E0FFF7BB
:10065000DBFF08B1FFF7B2FF054B1A68054B9A4262
:10066000F8D100F023F8FEE7FCBF01202BFDDFB23C
:1006700000020108DAFAAFAD4268C368806813442B
:100680001B1AB3FBF2F002FB10307047024B03EB76
:10069000C00000F071B800BFBC400008024B03EB83
:1006A000C00000F081B800BFBC40000800F0DAB91B
:1006B00007B5012000F090FE00F00EFF002000F0D2
:1006C000BDFE4FF4805000F0CDFE4FF4A05000F07E
:1006D000BFFE032000F062FD012000F065FD052350
:1006E00000934FF480001A21F022022300F07CFED8
:1006F000012000F08BFE392000F0DAFE0028FAD04D
:10070000022000F089FE00F091FE0828FBD10420B1
:1007100003B05DF804EB00F035BD704708B5002369
:1007200003F16042013302F56142F021512B82F85E
:100730000013F5D14FF4407000F01AFD00F0F0F90D
:1007400000F0E0FCBDE8084000F048B810B50446F1
:1007500020B9084B1B68DB0700D500BE00F0D0F8BD
:100760002179012322688B409BB2538300F0CBF8A0
:10077000002010BDF0ED00E010B5044620B9094B93
:100780001B68DB0700D500BE00F0BAF821682079AD
:100790004A690123834053404B6100F0B4F80020C4
:1007A00010BD00BFF0ED00E010B5044620B90A4BC3
:1007B0001B68DB0700D500BE00F0A2F82368217992
:1007C0001A6901238B40134214BF0124002400F056
:1007D0009AF8204610BD00BFF0ED00E008B5C02239
:1007E0000021054802F0AEFF4FF48040012100F0E7
:1007F00051FE002008BD00BFC40200201B4B9842E0
:100800002AD012D8A3F54063984221D004D8A3F58A
:100810008063984228D025E0154B98421AD003F502
:10082000806398421ED103207047124B984215D026
:1008300005D8A3F58063984214D1052070470E4B6C
:1008400098420DD003F5806398420BD10820704781
:10085000012070470220704704207047062070472F
:1008600007207047FF2070470020704700100240AB
:100870000008024000180240001C024073B50C46FC
:10088000054620B91B4B1B68DB0700D500BE00F0F6
:1008900037F82E683046FFF7B1FF174A174B116B38
:1008A00053F820300B43136302239C4294BF002271
:1008B00001228DF80420E21E18BF01228DF80530B8
:1008C0008DF806200CB1052C01D1012302E0012C8A
:1008D00018BF00232A798DF807300123934002A91D
:1008E00041F8083D304600F01DFD00F00CF80020F6
:1008F00002B070BDF0ED00E000380240E83F0008B3
:1009000041F27B70704741F27B7070470E4B98420A
:1009100004D80E4A93681943916070470C4B984273
:1009200004D80A4AD3681943D1607047094B9842EA
:10093000A3F1580395BF9A68DA681143114394BF35
:100940009960D960704700BF586002400060024063
:10095000B860024058640240094B984202D853F8EC
:10096000580C7047074B984202D853F8B40C7047A4
:10097000054B9842A3F1580394BF18685868704714
:1009800058600240B860024058640240036810B5E5
:100990001A68044611884FF6FF711B6B406811807E
:1009A0005A6843689B1AC36023695BB1FFF764FE12
:1009B0002369984206D304F10800012100F087F86A
:1009C0000023236110BD10B5044603689869FFF742
:1009D000C3FF2368596A084204D09869FFF796FF5D
:1009E0000023E38223689869FFF7B6FF2368996ABA
:1009F000084204D09869FFF789FF0423E382E36883
:100A000033B104F109000121BDE8104000F05FB8E6
:100A100010BD10B504460368186BFFF79DFF2368EF
:100A2000D96B084204D0186BFFF770FF0023A38234
:100A30002368186BFFF790FF2368196C084204D0F5
:100A4000186BFFF763FF0423A382236933B104F11A
:100A500008000121BDE8104000F039B810BD41F296
:100A60007B70704708B90B4B58684FF0FF3E4FF052
:100A7000807181F300884FF0000181F3108881F3C9
:100A8000138881F3118881F3148840F00100004736
:100A9000704700BF0000010838B504460D4600F05D
:100AA00093FBF32000F0A8FBFFF7D9FFAC420AD874
:100AB0002046022100F0E2FB082800D0FEE7FFF705
:100AC000CEFF0834F2E700F08FFB002038BD72B68D
:100AD00003780133DBB2037062B600207047000078
:100AE000014B1868704700BF84030020034B19684E
:100AF0001A68521A8242FBD30020704784030020F8
:100B0000054B402283F82320044AA3F54F635A6023
:100B100007221A60704700BF00ED00E0BFD401005B
:100B2000064B00221A765A769A76DA7783F82020D6
:100B300083F82220F02283F82320704700ED00E0A4
:100B40007047704713B50220012100F095FC114C4D
:100B50004FF44043009303238DF8053020460223D1
:100B600069468DF8043000F0DDFB20460E210C2292
:100B700000F01EFC20460C220F2100F019FC4FF063
:100B80000050012100F078FC034B4FF400529A60B2
:100B900002B010BD0004024000E100E00146D0F8C0
:100BA000AC0301F55F7102F0C4B91C2303FB010320
:100BB000D0F8AC03D3F8E02102F0EFB91C2303FB1B
:100BC0000103D0F8AC03DA6B02F028BAD0F8AC031A
:100BD00002F0AEBA10B50446C168D0F8AC030031DB
:100BE00018BF012102F092FAD4F8AC03BDE810401E
:100BF00002F06DBAD0F8AC0302F08BBAD0F8AC03B7
:100C000002F090BAD0F8AC0302F0A1BAD0F8AC036D
:100C100002F09BBAD0F8AC0302F09BBAD0F8AC0358
:100C200002F099BA38B5164B164C0025164A83F8CF
:100C30002350062384E80C004023C4F8AC0363610E
:100C4000C0F8204202232046A361E360A56225612B
:100C50002562E561656200F0FDFD20464FF40071FC
:100C600001F0E3F929462046802201F0BDF9204633
:100C700001214FF4007201F0B7F9284638BD00BFDA
:100C800000ED00E0880300200000044008B5D0F823
:100C9000200200F049FE002008BD08B5D0F820026F
:100CA00000F057FE002008BD10B51446D0F8200211
:100CB0001A46234601F0B9F8002010BD08B5D0F857
:100CC000200201F03EF9002008BD08B5D0F820024E
:100CD00001F064F9002008BD11F0800FD0F8202247
:100CE00018BF01F07F034FF01C0015BF00FB03216C
:100CF00000FB012191F8320091F8D601704708B548
:100D0000D0F8200201F07FF8002008BD08B5D0F827
:100D1000200201F0E9F8002008BD08B5D0F8200253
:100D200001F0B0F8002008BD002382B001937823C1
:100D300058430723B0FBF3F0019B01338342019337
:100D4000FAD902B070474FF47A735843FFF7ECBFFB
:100D500012230B80004870470000002008B513469E
:100D600019B904221A80074808BD042908D8064B7F
:100D7000013953F82100054902F069FB034808BD19
:100D8000002008BD1840000808400008380700206F
:100D900010B50023934203D0C45CCC540133F9E76F
:100DA000084610BD0023322151709370D37000208B
:100DB000704708B500F008FA002008BD08B500F03B
:100DC00013FA002008BD000008B500F17843B3F520
:100DD000004F3AD31E4B984201D800201CE01D4B17
:100DE000984201D8102017E01B4B984201D81820D8
:100DF00012E01A4B984201D820200DE0184B98427F
:100E000001D8282008E0174B984201D8302003E091
:100E1000154B984205D83820022100F02FFA002007
:100E200008BD124B984201D84020F5E7104B98427C
:100E300001D84820F0E70F4B984201D85020EBE74B
:100E4000B0F1016F01D25820E6E7012008BD00BFD4
:100E5000FF3F0008FFBF0008FFFF0008FFFF010879
:100E6000FFFF0308FFFF0508FFFF0708FFFF090852
:100E7000FFFF0B08FFFF0D0801F17843B3F5004FAA
:100E80002DE9F0410E4617460BD304460D46AB1B29
:100E9000BB4213D22846216800F026FA0828A04653
:100EA00002D00120BDE8F08155F8043BD8F80020BD
:100EB00004349A42EBD00220BDE8F0810020BDE866
:100EC000F081000008B5FFF711FEBFF34F8F054911
:100ED000054BCA6802F4E0621343CB60BFF34F8F47
:100EE000FEE700BF00ED00E00400FA0508B5024A85
:100EF000024B1A60FFF7E6FF2BFDDFB2FCBF0120BB
:100F00000446582008B50146FFF7C6FD10200146EB
:100F1000FFF7C2FD18200146FFF7BEFD2046FFF790
:100F2000D1FF0446102008B50146FFF7B5FD182093
:100F30000146FFF7B1FD2046FFF7C4FF07B5074B99
:100F400007491B680093074B1A68043B1B6802F0B3
:100F5000B5FB80B203B05DF804FB00BF107AFF1F41
:100F600091400008187AFF1F2DE9F041354E364BAD
:100F700032689AB09A42354C4FF000050DD080236C
:100F80002370262363706FF07F03A3700423E57042
:100F900084F8043184F8055151E00DF13008202324
:100FA000237040460423637084F80431A570E57013
:100FB00084F80551FFF7C2FFB36802AFC3F30722FD
:100FC000009223491A0E3846C3F3074302F076FB1A
:100FD000736807AEC3F30722009230461A0E1C490D
:100FE000C3F3074302F06AFB1896261DCDF8548020
:100FF000B046184B179713930C331493164B169354
:10100000164B199313AB53F825703046394602F04E
:10101000C9FB384602F0E8FB062DC0B206EB000320
:1010200006D00D2232540A229E1C5A700135E9E77F
:10103000B4F80421C8EB03031344A4F804311AB034
:10104000BDE8F08100020108DAFAAFAD9C0700208C
:10105000A14000080C020108AA400008240201086F
:1010600010B590F809220446102AB0F80A3210D0C0
:10107000202A03D00021FFF721FE3BE01E49B0F8F3
:101080000E22B1F804319A4228BF1A4602F0FCF948
:1010900030E0013B042B1BD8DFE803F003080D17F9
:1010A000120002F021FA0A20FFF70CFF02F01CFAEE
:1010B0000A20FFF725FF02F017FA0A20FFF716FFB4
:1010C00002F012FA0A20FFF72CFFFFF74DFF0EE0A7
:1010D000094B2221802259706FF07F011A7099709C
:1010E00000220421DA7083F8041183F805212046D8
:1010F00002F0FAF9002010BD9C0700200020704784
:10110000002070470F4B102283F80323202283F81E
:101110003123302283F83B2383F80E23E02283F827
:10112000062383F8072383F8082383F8092383F829
:101130000A2383F8172383F82823402283F84D23BA
:10114000704700BF00E100E038B5084C032104F10E
:1011500078052846FFF792FB2846FFF7F7FA04F1D7
:1011600098000021BDE83840FFF788BBBC4000086C
:1011700040F0BF6040F40030014BD860704700BFC2
:1011800000ED00E00428044A13680CBF43F0040398
:1011900023F004031360704710E000E0C0B2014B7D
:1011A00018707047003C024028B1064A136843F4A7
:1011B000807313607047034A136823F480731360CD
:1011C000704700BF003C0240054B1B69002B05DA4D
:1011D000034B044A5A6002F188325A60704700BFDC
:1011E000003C024023016745024A136943F0004373
:1011F00013617047003C0240014BD860704700BF4C
:10120000003C02400E4BDB6813F4803F12D10C4BC4
:10121000DB6813F0100F0FD1094BDB6813F0EF0FF1
:101220000CD1074BDB6803F00203002B14BF07202F
:10123000082070470120704705207047062070473E
:10124000003C024000B583B008238DF80730FFF75B
:10125000D9FF8DF807009DF80730DBB2012B08D1CC
:10126000FFF7D0FF8DF807009DF80730DBB2012BA8
:10127000F6D09DF8070003B05DF804FB70B5054695
:1012800041B1012908D002290CBF4FF400764FF478
:10129000407603E0002601E04FF48076FFF7D2FFAE
:1012A00008281ED10F4C236923F44073236123695E
:1012B0001E432661236923F0F8032361236943F069
:1012C00002031D432561236943F480332361FFF743
:1012D000B9FF236923F002032361236923F0F80394
:1012E000236170BD003C024070B505460E46FFF715
:1012F000A9FF082813D10A4C236923F44073236102
:10130000236943F400732361236943F001032361DC
:101310002E60FFF797FF236923F00103236170BD5F
:10132000003C0240F0B500220126032706FA02F332
:101330000C681C409C4237D10368540007FA04F53E
:10134000ED432B400360036891F804E00EFA04FEBD
:101350004EEA030303600B79013BDBB2012B16D885
:1013600083681D40856085684B79A3402B4383606B
:1013700043681FFA82FE06FA0EF523EA050343606E
:1013800045688B7903FA0EF39BB22B434360C36825
:1013900095B26D0007FA05F523EA0503C360C56839
:1013A000CB79A3402B43C3600132102ABED1F0BDDC
:1013B00010B401F007039B00C90800EB8100046A28
:1013C0000F21994024EA01010162016A9A40114308
:1013D00001625DF8044B7047024B00221A701870CE
:1013E000704700BF0238024010B4019C40EA04601C
:1013F000014341EA82125B08013B42EA0340024B8F
:1014000058605DF8044B704700380240014B18608B
:10141000704700BF60004742034A936823F003030C
:1014200018439060704700BF00380240024B986834
:1014300000F00C00704700BF00380240034A936878
:1014400023F0F00318439060704700BF003802405B
:10145000034A936823F4E05318439060704700BF39
:1014600000380240034A936823F4604343EAC00013
:10147000906070470038024021B1054A136B184351
:1014800010637047024A136B23EA00001063704731
:101490000038024021B1054A536C1843506470472C
:1014A000024A536C23EA000050647047003802403F
:1014B0004309012B02D1074B1A6804E0022B054BAC
:1014C0000CBF1A6F5A6F00F01F0322FA03F000F0EE
:1014D000010070470038024010B582B0002301932C
:1014E00031242046FFF7E4FF019B01330193019B68
:1014F000B3F5A06F01D00028F3D03120FFF7D8FF5B
:10150000003018BF012002B010BD00BF36498D4623
:10151000244B254A25489A60A3F55D4300225A6072
:101520001A68AD2142F001021A60214A121A02F033
:1015300009F920482049884205D0204A824202D039
:10154000121A02F0E1F8FFF7B3F8FFF7E6F81C48CB
:101550001C49884205D01C4A824202D0121A02F06D
:10156000D3F81A481A4A0021121A02F0EBF8194B64
:10157000194A0024D21A1C605A60FFF7CFF8FFF70F
:10158000E3FD164B164D1E46ED1AAD08AC4204D0D5
:1015900056F8243098470134F8E7FFF74DF8114A20
:1015A000004BDA6000ED00E000000008C0090020F8
:1015B00060190020000000205042000800000020B8
:1015C0000000002050420008A0000020A0000020E1
:1015D000C009002060190020F8BF01204C4200081B
:1015E0004C4200080400FA056019002080B48BB05A
:1015F00000AFF860B9607A6000237B6200233B6231
:101600007B68FB77FB7F03F00403002B02D0BB68F1
:10161000BB6101E0FB68BB6101237B617B6983F3F4
:1016200010888A4BDB6A03F00203002B08D0884B3A
:101630001B6803F00103002B00F0038100BE00E1F2
:10164000824BDB6A03F08043002B00F0F3807F4B7A
:101650009B6A03F08003002B02D07C4B5B6B7B62A8
:101660007A4B9B6A03F40043002B02D0774B9B6BB1
:101670003B62764B9B6A03F00103002B08D0744B4E
:101680001B6803F00103002B00F0DB8000BED8E0F4
:101690006E4B9B6A03F00203002B08D06C4B1B6857
:1016A00003F00103002B00F0CC8000BEC9E0674BC3
:1016B0009B6A03F00803002B08D0654B1B6803F0FE
:1016C0000103002B00F0BD8000BEBAE05F4B9B6AB7
:1016D00003F01003002B08D05D4B1B6803F00103DF
:1016E000002B00F0AE8000BEABE0584B9B6A03F4C9
:1016F0008073002B08D0564B1B6803F00103002BAE
:1017000000F09F8000BE9CE0504B9B6A03F4007386
:10171000002B08D04E4B1B6803F00103002B00F098
:10172000908000BE8DE0494B9B6A03F48063002BE0
:1017300008D0474B1B6803F00103002B00F08180A9
:1017400000BE7EE0414B9B6A03F40063002B07D090
:101750003F4B1B6803F00103002B72D000BE70E00A
:101760003A4B9B6A03F48053002B07D0384B1B681D
:1017700003F00103002B64D000BE62E0334B9B6A90
:1017800003F48033002B07D0314B1B6803F00103B7
:10179000002B56D000BE54E02C4B9B6A03F4003360
:1017A000002B07D02A4B1B6803F00103002B48D005
:1017B00000BE46E0254B9B6A03F48023002B07D034
:1017C000234B1B6803F00103002B3AD000BE38E026
:1017D0001E4B9B6A03F40023002B07D01C4B1B6895
:1017E00003F00103002B2CD000BE2AE0174B9B6AAC
:1017F00003F08073002B07D0154B1B6803F0010327
:10180000002B1ED000BE1CE0104B9B6A03F000733F
:10181000002B07D00E4B1B6803F00103002B10D0E8
:1018200000BE0EE00A4B1B6803F00103002B08D03A
:1018300000BE06E0064B1B6803F00103002B00D03E
:1018400000BE2C37BD465DF8047B704700ED00E01C
:10185000F0ED00E02DE9F041064688B000285FD0A9
:1018600034466D46022380F87933FFF76BF954F85C
:10187000100B00F038FC0FCC0FC594E80F0085E882
:101880000F0006F1040898E80E00306800F0EAFB4B
:101890000021306800F02DFC32463146002006F170
:1018A0001004012381F83000C886013081F83130FE
:1018B0000F284FF0000381F833308B63CB634B6408
:1018C00001F11C01EDD1D6F800E082F8D431D386C5
:1018D00003F14001013300250EEB81010F2B82F84B
:1018E000D55182F8D751C2F8DC51C2F8E051C2F8A4
:1018F000E8514D6002F11C02E7D16F460FCC0FC7D3
:1019000094E80F0087E80F00704698E80E0000F09A
:1019100031FC86F87953306800F088FF284600E0F3
:10192000012008B0BDE8F08190F8783310B5012BA4
:1019300004460CD0012380F87833006800F06AFF79
:10194000206800F0CAFB002084F8780310BD022054
:1019500010BD90F8783310B5012B04460FD0012349
:1019600080F87833006800F0BEFB206800F021FFAB
:10197000206800F05BFF002084F8780310BD02208F
:1019800010BD2DE9F04F076887B00446384600F0D7
:1019900085FF002840F03482206800F053FF0028C3
:1019A00000F02E82206800F04DFF820748BF2268B9
:1019B000206842BF536943F00203536100F042FFC5
:1019C00010F400204DD0206800F040FFA246804671
:1019D00007F530660025B8F1000F43D018F0010F6D
:1019E00038D05FFA85FB2068594600F03FFF10F0C1
:1019F000010F814621D00123B3602369012B0CD153
:101A00003369DAF8DC21C3F31203D31ACAF8EC31D4
:101A1000DAF8E0311A44CAF8E02159462046FFF7C7
:101A2000C4F82169012908D13DB9D4F8E83123B9B6
:101A3000206804F55F7200F050FF19F0080F04D021
:101A40002046FFF7ABF80823B36019F0100F1CBF56
:101A50001023B36001354FEA580820360AF11C0AFA
:101A6000B9E70546206800F0EDFE430340F1A88089
:101A7000206800F0F3FE2646824607F5106900252F
:101A8000BAF1000F00F09C801AF0010F00F0918075
:101A90005FFA85FB2068594600F0F1FE10F0010F57
:101AA00080461ED0012101FA05F2D2432369C7F80E
:101AB00034288B42C9F8081004BFF26BB36B594647
:101AC00004BF9B18F3632046FFF778F821690129CA
:101AD00007D135B9636C23B9206804F55F7200F053
:101AE000FCFE18F0080F1CBF0823C9F8083018F0D6
:101AF000100F1CBF1023C9F8083018F0400F1CBF8E
:101B00004023C9F8083018F0020F1CBF0223C9F89F
:101B1000083018F0800F4CD0736CB26CD4F800C051
:101B2000C2EB0308B36B984528BF9846042308F11D
:101B3000030292FBF3F303930CF5106303EB4513DD
:101B40000493049B039A9B699BB293420BD8B8F110
:101B5000000F2EDCDCF834280123AB4022EA03031B
:101B6000CCF8343825E0B26C736C9A42EFD2002B7B
:101B7000EDD0C2EB0308B36B6046984528BF98468A
:101B8000042308F1030292FBF3F30393237C5A46E8
:101B90000093F16B1FFA88F3CDF814C000F07FFCBE
:101BA000F36BDDF814C04344F363B36C4344B36494
:101BB000C7E701354FEA5A0A1C3609F120095FE7E9
:101BC000206800F03FFE00280DDAD7F804382046E0
:101BD00023F00103C7F80438FFF710F822685369AF
:101BE00043F000435361206800F02CFE06050BD53E
:101BF000D7F80838D80702D52046FEF7FBFF226841
:101C0000536943F400635361206800F01BFEC10474
:101C100043D507F500667368206823F001037360FD
:101C2000002100F07DFA606807F51063002282420F
:101C300006D0FF2199600132C3F808122033F6E77D
:101C40004FF0FF33B361F36943F00113F361A36A0B
:101C500053B1D6F8843043F00B03C6F88430736C6C
:101C600043F00B03736407E0736943F00B03736184
:101C7000336943F00B033361D7F8003804F55F7222
:101C800023F4FE63C7F800382068217C00F025FEAD
:101C90002268536943F480535361206800F0D2FDF9
:101CA000820423D5206800F0FDFD2068C36823F47A
:101CB0007053C36000F0F6FA236838B94FF400722D
:101CC0006261DA68E06042F4105206E00322E260EA
:101CD00040226261DA6842F4A052DA602046FEF7E0
:101CE00079FF2268536943F400535361206800F080
:101CF000A9FDC3063ED52268936923F010039361C2
:101D0000D7F82080C8F34343022B08F00F061AD1FE
:101D100047F6F07208EA02023AB31C2303FB0646B8
:101D20004FEA121842463846D6F8E01100F0D8FCC7
:101D3000D6F8E031D6F8EC2143444244C6F8E0310D
:101D4000C6F8EC2111E0062B0FD1384604F55F717F
:101D5000082200F0C5FC1C2303FB0646D6F8EC3134
:101D6000C8F30A184344C6F8EC312268936943F07B
:101D700010039361206800F065FD070707D5204632
:101D8000FEF724FF2268536943F00803536120687B
:101D900000F058FDC60208D52046E9B2FEF736FF2E
:101DA0002268536943F480135361206800F04AFDB0
:101DB000800208D52046E9B2FEF724FF2268536965
:101DC00043F400135361206800F03CFD410007D547
:101DD0002046FEF71FFF2268536943F0804353619A
:101DE000206800F02FFD42070AD523685D686B0765
:101DF00002D52046FEF712FF23685A6815435D603E
:101E000007B0BDE8F08F90F8783310B5012B044689
:101E100009D0012380F87833006800F0EBFC002043
:101E200084F8780310BD022010BD70B50446CDB211
:101E300015F0800F01F07F004FF01C0615BF06FB68
:101E4000004106FB0141303101F5EA71C0B2ED09F4
:101E500008704D708A60CB7005B1C880022B04BF3A
:101E600000230B7194F87833012B09D0012384F8F7
:101E70007833206800F031FA002084F8780370BDD0
:101E8000022070BD70B5044601F07F051C2000FBE8
:101E90000540C0F8E8310023C0F8E021C0F8EC317B
:101EA00080F8D53180F8D451236900F5F071012B09
:101EB00008BF4A6094F87823012A13D01C2101FB43
:101EC0000541012284F8782301F5EA71DAB220682D
:101ED00015B900F040FA01E000F0F4FA002084F8AF
:101EE000780370BD022070BD38B5044601F07F054F
:101EF0001C2000FB05404364002383640123C2636C
:101F000080F8313080F830502369012B08BF02641B
:101F100094F87823012A12D01C2101FB05410122EB
:101F200084F878233031DAB2206815B900F013FA5A
:101F300001E000F0C7FA002084F8780338BD0220E1
:101F400038BD38B5CBB213F0800F01F07F054FF0EC
:101F50001C0215BF02FB050102FB0101303101F536
:101F6000EA710122DB09EDB28A700D704B7090F8B6
:101F70007833044693420FD080F87823006800F04D
:101F8000BFFB2DB92068217C04F55F7200F0A5FC31
:101F9000002084F8780338BD022038BD38B50546E6
:101FA000CBB213F0800F01F07F004FF01C0215BF81
:101FB00002FB005102FB0151303101F5EA71DB09EE
:101FC00000248C7008704B7095F87833012B09D081
:101FD000012385F87833286800F0BDFB85F8784345
:101FE000204638BD022038BD70B50468606A19B952
:101FF00040EA0243A36216E0A36A002600EB134303
:10200000F0B24D1EA84206F1010606DA403004EB9C
:102010008000406803EB1043F2E73F3143EA02439C
:1020200004EB81046360002070BD036800205962E6
:10203000704700000A4B013B01D103207047026941
:10204000002AF8DA0369064A43F001030361013A02
:10205000F3D0036913F00103F9D11846704700BFAC
:10206000410D030084B038B505AD85E80E000A9B2C
:102070000446012B17D1836B23F480338363C36839
:1020800023F4840323F04003C360C36823F44013A4
:10209000C3600F9B012B02BFC36843F48013C3606E
:1020A000FFF7C8FF08E0C36843F04003C360FFF7D1
:1020B000C1FF4FF48033A363089B0020012B01BFB5
:1020C000A36843F00C03A360A36804BF43F020039C
:1020D000A360BDE8384004B07047836843F0010353
:1020E000836000207047836823F001038360002031
:1020F000704708B5C368012923F0C043C36004D109
:10210000C36843F00053C36004E019B9C36843F0E7
:102110008043C3603220FEF716FE002008BD000099
:10212000490141F02001064A0161013A05D00369E5
:1021300013F02003F9D1184670470320704700BF01
:10214000410D03001023064A0361013A05D00369DB
:1021500013F01003F9D1184670470320704700BFF1
:10216000410D0300D0F800381943C0F800180020D2
:102170007047000084B02DE9F041044607A880E8CC
:102180000E00A36B0F9E43F4002388460A9FA363AF
:102190001EB9A36B43F40013A3630023C4F8003EED
:1021A000D4F8003804F50065C4F800380C9B012B06
:1021B00006D10999204629B11946FFF7D3FF03E05C
:1021C00020460321FFF7CEFF0F212046FFF7A8FF8F
:1021D0002046FFF7B7FF00234FF0FF322B616B6102
:1021E000AA61EB6104F5106243450FD01168013319
:1021F0000029B8BF4FF090404FF00001ACBF116014
:1022000010601161FF2191602032EDE704F5306329
:10221000002242450FD0196801320029B8BF4FF0A3
:1022200090404FF00001ACBF196018601961FF21A8
:1022300099602033EDE72B69012F23F480732B6124
:1022400008D1164B2B632B6B43F4803343F003030D
:102250002B632B6B0023A3616FF0804363611FB975
:10226000A36943F01003A361A2690D4B1343A3615B
:102270000D9B1BB1A36943F00803A361012E08BFA6
:10228000A3694FF0000002BF43F0804343F0040312
:10229000A361BDE8F04104B0704700BF00018000B9
:1022A00000383C80D0F8083800F5006213F00600D2
:1022B00012D0936803F00603022B0CD0936803F04E
:1022C0000603062B07D0936803F00603042B14BF04
:1022D0000020022070470320704770B54B7800F54E
:1022E0000062012B0D78D4691AD1AB409BB2234315
:1022F000D3610E78740104F5106423581D0428D4AA
:1023000022588B6842F0805545F40045C3F30A0219
:10231000CB782A4342EA834343EA8653235018E0AA
:102320004FF48033AB402343D3610B785B0103F55B
:1023300030631A5812040CD41A5842F080548A6838
:1023400044F40044C978C2F30A02224342EA8142BB
:102350001A50002070BD4B7830B5012B0B784C69BA
:1023600000EB431360D1D4B9D3F8104924F0FF54E3
:1023700024F4C014C3F810490B7800EB4313D3F8CE
:10238000104944F40024C3F810490B7800EB4313C0
:10239000D3F81049E40CE404C3F8104928E0D3F85A
:1023A0001059ED0CED04C3F810590B7800EB4313F2
:1023B000D3F8105925F0FF5525F4C015C3F810596E
:1023C0008B689C4288BF4B610B7800EB4313D3F8BA
:1023D000104944F40024C3F810490B784C6900EB11
:1023E0004313D3F81059C4F312042C43C3F8104913
:1023F000012A0B7805D10A6900EB4313C3F81429AD
:1024000009E04A693AB1D0F83428012404FA03F308
:102410001343C0F834380B785B0103F51063C258DE
:1024200042F00442C25038E0D3F8105BED0CED04EA
:10243000C3F8105B0B7800EB4313D3F8105B25F067
:10244000FF5525F4C015C3F8105B8D6804B14D61CC
:102450000B78C5F3120500EB4313D3F8104B012A98
:1024600044F40024C3F8104B0B7808BFCA6800EB93
:102470004313D3F8104B45EA0405C3F8105B02BFC1
:102480000B7800EB4313C3F8142B0B785B0103F5B7
:102490003063C25842F00442C250002030BD10B533
:1024A0009DF8084064B9033300EB02309B1000F53F
:1024B00080509C4204D051F8242001340260F8E797
:1024C000002010BDF7B54B780C78012B00EB4414BD
:1024D0004B6940F09780D4F81059C3B925F0FF55E7
:1024E00025F4C015C4F810590C7800EB4414D4F846
:1024F000105945F40025C4F810590C7800EB441429
:10250000D4F81059ED0CED04C4F810593FE0ED0C6F
:10251000ED04C4F810590C788F6800EB4414D4F81B
:10252000105925F0FF5525F4C015C4F81059DC19D1
:10253000013CB4FBF7F40D78684F00EB4515D5F876
:102540001069E404274047EA0604C5F810490C78EE
:10255000C3F3120600EB4414D4F810593543C4F801
:102560001059CC78012C40F0B2800C7800EB441468
:10257000D4F8105925F0C045C4F810590C7800EB78
:102580004414D4F8105945F00055C4F81059012AE4
:1025900006D10C780D6900EB4414C4F814590BE013
:1025A000CC78012C08D03BB10F78D0F834580124F6
:1025B000BC402C43C0F83448CC78012C0FD1D0F863
:1025C000084814F4807F0C784FEA441404F5106432
:1025D00025580CBF45F0005545F0805525500C7826
:1025E000640104F51064055945F004450551CC78A3
:1025F000012C70D10C780092C96822469BB2FFF77B
:102600004EFF68E0D4F8105BED0CED04C4F8105BED
:102610000C7800EB4414D4F8105B25F0FF5525F43A
:10262000C015C4F8105B0C788D6800EB441483B9B6
:10263000D4F8103BC5F312051D43C4F8105B0B78AA
:1026400000EB4313D3F8104B44F40024C3F8104BB1
:1026500019E02B44013BB3FBF5F3204F9BB2D4F8B8
:10266000106B4FEAC34E0EEA07073E43C4F8106BE7
:102670000C785D4300EB4414D4F8106BC5F31205DD
:102680003543C4F8105B012A01BF0B78CA6800EB20
:102690004313C3F8142BCB78012B0FD1D0F8083893
:1026A00013F4807F0B784FEA431303F53063C2586D
:1026B0000CBF42F0005242F08052C2500B785B01D6
:1026C00003F53063C25842F00442C25003E0012ACD
:1026D0007FF469AF5DE7002003B0F0BD0000F81F94
:1026E00010B5033292100023934206D000F58054B7
:1026F000246841F823400133F6E701EB830010BD65
:102700004B78012B0B784FEA431311D103F510637B
:10271000C258002AA2BFC25822F08042C2500B7891
:102720005B0103F51063C25842F40012C25010E07E
:1027300003F53063C258002AA2BFC25822F080427B
:10274000C2500B785B0103F53063C25842F40012AB
:10275000C250002070474B78012B0B784FEA43138F
:1027600012D103F510631A5822F400121A50CB78D4
:10277000023B012B1BD80B785B0103F510631A5841
:1027800042F080521A5012E003F530631A5822F4D6
:1027900000121A50CB78023B012B9FBF0B785B01D4
:1027A00003F530631A589CBF42F080521A50002043
:1027B000704738B5044600F5106300F52E61FF221E
:1027C0009A60C3F8082220338B42F8D100254FF0DD
:1027D000FF32C4F818282046C4F81058C4F814581A
:1027E000C4F81C58FFF7AEFC20461021FFF798FCF8
:1027F000284638BDD0F80038090123F4FE63C0F83C
:102800000038D0F8003801F4FE610B43C0F80038FE
:102810000020704708B5D0F8043823F00203C0F850
:1028200004380320FEF78FFA002008BD08B5D0F861
:10283000043843F00203C0F804380320FEF783FA9B
:10284000002008BD4369806918407047D0F81838E7
:1028500000F50060C0691840000C704700F5006387
:10286000D0F81808DB69184080B2704700EB4111BE
:1028700000F50060D1F8083B40691840704710B57A
:10288000D0F81048D0F8343800EB4110CB40DB01D1
:10289000D0F80809DBB22343184010BD406900F0AE
:1028A00001007047D0F8003923F4FF6323F00703D9
:1028B000C0F8003900F500639A6802F00602042AA5
:1028C00002BFD0F8002942F00302C0F800295A687C
:1028D000002042F480725A60704710B50024C0F89E
:1028E000104BD0F8104B012944F40024C0F8104BD1
:1028F000D0F8104B00F5306344F01804C0F8104BCA
:10290000D0F8104B08BF4FF0802344F0C044C0F80B
:10291000104B04BFC0F8142BC0F8003B002010BDC2
:102920001B230380004870474400002000207047AC
:10293000002070470020704700207047002070473B
:10294000002070470A2303800048704738000020A9
:10295000062908B507D8D0F81C320449186800F0D9
:1029600076FD024808BD002008BD00BFBC0800205D
:1029700037B5D0F81842054694F80034042B65D1D9
:10298000D4F80824002A3FD1237823B9D4F80C3492
:10299000012B2AD149E0212B10D1D4F80C34052B7E
:1029A00023D1E378A2781B0403EB0223627813445B
:1029B000227903EB0263C4F8103436E0412B14D1C2
:1029C000D4F80C34052B10D1E078A378000400EB88
:1029D000032063781844237900EB0360D5F81C3298
:1029E000C4F81004DB6898471DE00023C4F80C34D9
:1029F000C4F808348DF80030284601236946ADF844
:102A0000063000F0C8FB10E0012A0ED92D4BD0F89B
:102A10001C02D4F810141344056901EB83212046ED
:102A2000D4F80C24A847002846D100200323C4F87A
:102A30000C04C4F8080484F8003484F8020484F810
:102A4000030484F8040484F8053438E0072B4FF0BD
:102A5000000333D11C4A84F80734127D02F00402CB
:102A600002F0FF015AB1062284F8002484F80234EF
:102A700084F8033484F8043484F805241EE0082321
:102A800084F8003484F8021484F8031484F80414DD
:102A900084F8053400F02FFAD5F81C329B6898476B
:102AA000BFF34F8F09490A4BCA6802F4E06213432F
:102AB000CB60BFF34F8FFEE7022000E0184603B063
:102AC00030BD00BFFEFF3F004400002000ED00E0ED
:102AD0000400FA0538B5D0F818320025022283F830
:102AE000002483F8015483F80524C3F80854C3F87C
:102AF0000C54D0F8183204464BB1D0F81C329B6805
:102B00009847D4F8180200F07BFDC4F81852002052
:102B100038BD000010B504464FF4836000F030FD6E
:102B2000C4F8180208B9022010BD114A0023C0F8E9
:102B30001024022280F8073480F8002480F8013441
:102B400080F8023480F8033480F8043480F80524D7
:102B500080F80634C0F81434C0F80834C0F80C34D7
:102B6000D4F81C325B6898470028DCD110BD00BF48
:102B700000800008F8B50D78064615F060050B4694
:102B8000D0F8184200F05E81202D40F07F81497816
:102B9000062900F25581DFE811F025010700320017
:102BA0009900E50003010601DA8894F8001492B157
:102BB000022901D0052978D15B883046C4F8083451
:102BC0000323C4F80C2484F8003484F80534214627
:102BD00000F071FC5AE1052901D0022965D10123D9
:102BE000002084F80734062384F8003484F80204B3
:102BF00084F8030484F8040484F80534F8BDDA8802
:102C0000002A57D094F80004022801D0092847D19F
:102C10005D88C4F80C24C4F80854B5B9032A4FF0F1
:102C2000210398BF09216370412384F8001484F8BC
:102C3000051484F8025484F8035484F8045425706D
:102C4000A37030462146032210E1012D4FF000070A
:102C50001AD0092384F8003484F8053484F8027407
:102C600084F8037484F80474894BD6F81C12D4F8E1
:102C700010042B4400EB83204D692146A847B4F88B
:102C80000C2401463046F1E00F2284F8002484F839
:102C9000027484F8037484F8047484F8052404E04E
:102CA0000025C4F80C54C4F808543046194600F006
:102CB00072FAEBE0022384F8003484F8022484F8EA
:102CC000032484F8042484F80534DFE094F8003405
:102CD00004F20145032B02D0062B24D03EE0D4F8A9
:102CE0000C34F3B100230422D4F8081484F800242F
:102CF00084F8023484F8033484F8043484F8052416
:102D0000D0F81C3231B92278412A03D19B69D4F81A
:102D1000100403E09B69D4F8100401212A46984767
:102D20001CE0052210E094F80734012B06D107229D
:102D300084F8023484F80024002309E073B9554A6A
:102D4000127D52070AD5022284F8002484F8023446
:102D500084F8033484F8043484F805243046294682
:102D6000062283E094F800340A2B0BBF00200020D9
:102D700002230A2313BF0E2284F8003484F80104CE
:102D800084F8003418BF84F8012484F8020484F81D
:102D9000030484F8040484F8053484F80604F8BDB8
:102DA00004F5806167E094F800349A1E012A04D982
:102DB0005A1F012A01D9092B68D10020022384F867
:102DC000003484F8010484F8020484F8030484F8CD
:102DD000040484F8053484F80604C4F80804C4F82C
:102DE0000C04F8BD94F80024911E012904D9511F48
:102DF000012901D9092A13D10022022184F80014E3
:102E000084F8012484F8022484F8032484F8042438
:102E100084F8051484F80624C4F80824C4F80C24A3
:102E20001C4A527D02F0100232B1304600F063F8C5
:102E3000304600F05BF829E05888FDF784FF25E074
:102E400019461FE04A780A2A13D00B2A15D0062A01
:102E500018D14A88120A212A05D1CA880E49092A9E
:102E600028BF092201E02A462946304600F00CFB23
:102E70000CE004F214410122F8E78A7812B9C4F890
:102E8000142403E000F087F90220F8BD0020F8BD0B
:102E9000FEFF3F00440000205600002009B1C0F8AA
:102EA0001C120020704708B568B10023C0F8143226
:102EB00009B1C0F81012012380F8FC310270FDF74F
:102EC000B1FE002008BD022008BD69B1D0F814226F
:102ED000002A14BF0C2200228318D3F8140203F531
:102EE000047308B9596070470220704708B5FDF7B0
:102EF000CDFE002008BD10B50446D0F8143201798B
:102F00005B6898472046FDF7C8FE002010BD08B555
:102F1000D0F814320BB9022008BD1B68984700286E
:102F2000F9D108BD08B5D0F814325B689847002085
:102F300008BD38B5044600F50275284600F017F9BB
:102F40000123C4F8F43194F80812B4F80E32C4F82E
:102F5000F83101F01F03012B13D006D3022B15D13A
:102F60002046294600F010FA15E001F060014029E2
:102F7000204602D1FEF774F80DE0294600F016F95C
:102F800009E02046294600F0E7F904E0204601F078
:102F90008001FDF793FE002038BD10B5044689BBC3
:102FA000D0F8F431032B37D1D0F80C11D0F8103110
:102FB00099420AD9C91A8B4228BF0B46C0F80C1196
:102FC00011469AB200F087FA26E090F8083213F022
:102FD0001F0202D0012A07D010E003F06003402B4B
:102FE0000CD1FEF78BF809E0D0F8143233B11B692D
:102FF00023B190F8FC21032A00D19847204600F025
:1030000073FA09E0D0F8143233B19B6923B190F818
:10301000FC21032A00D19847002010BD70B504465A
:103020000E46002947D1D0F8F431022B3BD1C569B7
:10303000036A9D4208D9EB1A1146C3619AB200F0A7
:1030400031FA2046314612E08269B2FBF3F503FB08
:1030500015258DB99A420FD3D0F8F8319A420BD288
:103060002A4600F01FFA20462946C4F8F8510A46BD
:103070000B46FDF752FE16E0D4F814323BB1DB6884
:103080002BB194F8FC21032A01D12046984794F8EB
:10309000083203F07F03402B02D12046FEF730F8C0
:1030A000204600F02CFA94F80032012B0DD10023B9
:1030B00084F8003209E0D0F8143233B15B6923B1EF
:1030C00090F8FC21032A00D19847002070BD38B544
:1030D000044600210A4640254023FDF7E5FD2B4626
:1030E000C4F81051204680210022FDF7DDFD0123A8
:1030F00084F8FC31D4F8183225622BB1D4F814329C
:1031000020465B6821799847002038BD0174002073
:10311000704790F8FC3180F8FD31042380F8FC31D1
:103120000020704790F8FD3180F8FC310020704796
:1031300008B590F8FC21032A05D1D0F8143213B158
:10314000DB6903B19847002008BD002070470020CC
:10315000704700207047012208B580F8FC21D0F8A4
:10316000142212B1526801799047002008BD0B78F3
:1031700003704B784370CA788B7803EB022343804B
:103180004A790B7903EB02238380CA798B7903EBAD
:103190000223C380704710B504468021FDF78EFDE1
:1031A0002046BDE810400021FDF788BDF7B54B78FB
:1031B00004460D46092B00F2C680DFE803F098AF05
:1031C000C4ABC44205C4885E49880F0A022F0DD0E3
:1031D000032F14D0012F40F0B680D0F810320DF13B
:1031E00006011B68007C9847064619E0D0F81432A7
:1031F0000DF10600DB6A98470646477010E0D0F8EC
:103200001032C9B25B68007C0DF106029847064691
:1032100010B1BDF806301BB920462946FFF7BBFFA9
:10322000BDF80630002B00F09280EA88002A00F0FA
:103230008E809A4228BF1A462046ADF806203146B5
:1032400065E08B88002B7ED1CB88002B7BD190F85A
:10325000FC318E78032B06F07F0674D080F8FE6177
:103260003146FDF74CFD204600F03EF90EB1022339
:1032700000E0012384F8FC3169E08978354E0129AA
:10328000317060D890F8FC31022B02D0032B08D0AB
:1032900059E0002953D001210323416080F8FC311B
:1032A0000FE031B9022380F8FC314160FFF73AFEAC
:1032B00045E04168012942D0C9B2FFF733FE3178B9
:1032C00061602046FFF723FE022838D13BE0CA8820
:1032D000012A38D190F8FC31022B03D0032B32D1D4
:1032E000011D14E00146002341F8083F0FE090F86B
:1032F000FC31023B012B26D80123C360D0F80432F5
:103300000BB10323C360204604F10C01022200F03C
:10331000BBF81CE04B88012B19D108E090F8FC3178
:10332000023B012B0FD84B88012B10D10023C4F88E
:103330000432D4F8143220469B6829469847204628
:1033400000F0D2F803E020462946FFF724FF0020D2
:1033500003B0F0BDBB09002038B590F8FC3104463D
:10336000032B0D460CD10B79012B09D8D0F8143260
:103370009B689847EB882BB9204600F0B5F801E030
:10338000FFF709FF002038BD70B50A788E8802F07B
:103390006002202A04460D46F3B204D1D0F814325C
:1033A0009B68984751E04A78012A10D026D3032A17
:1033B0004BD190F8FC21022A27D0032A43D14A8816
:1033C00092B95E0610D01946FDF778FC0CE090F833
:1033D000FC21022A19D0032A35D14A88AABB5906F2
:1033E00008D01946FDF771FCD4F8143220469B68CA
:1033F00029469847204600F077F826E090F8FC210F
:10340000022A02D0032A06D01DE05A061DD0194612
:10341000FDF754FC19E003F07F0516F0800F00EB78
:103420000515194614BF143505F58275FDF754FCD2
:1034300010B101232B6000E02860204629460222BB
:1034400000F022F801E0FFF7A6FE002070BD30B5C5
:10345000C8B10446231A14F8015BDBB2002DF9D180
:103460005B00023313800B7003234B70013802237F
:1034700010F8014F3CB15A1CCC54D2B20233002494
:10348000DBB28C54F4E730BD38B513460D4602224A
:10349000C0F8F4218361C36100212A46FDF736FCA0
:1034A000002038BD10B50C46134600212246FDF71A
:1034B0002DFC002010BD38B513460D460322C0F880
:1034C000F421C0F80831C0F80C3100212A46FDF77C
:1034D00024FC002038BD10B50C46134600212246BE
:1034E000FDF71BFC002010BD08B500210423C0F827
:1034F000F4310A460B46FDF709FC002008BD08B56B
:1035000000210523C0F8F4310A460B46FDF705FCFF
:10351000002008BD38B50446806840B12368626861
:103520005D1C954208BF0021934209D2C154E36853
:1035300033B120686268904202D20846214698471B
:1035400023680133236038BD70B54C1E09D416467C
:10355000C5B230462946FFF7DDFF013CB4F1FF3F1D
:10356000F7D170BD10F0100F09D108B500F400704C
:10357000002814BF30202020FFF7E6FF08BD704769
:1035800038B50446FDF7DCFA04F1130222F00F020D
:103590001A4B196869B34B6893420BD04FF0FF3454
:1035A000002512E0436893420ED111B103680B600D
:1035B00004E001460868114B18600846044644F8C8
:1035C000042BFDF7BEFA17E001469A4203D29C4253
:1035D00084BF1C460D4608680028E3D14DB16B68D6
:1035E0009B1A6B60A31AEC18EA50FDF7AAFA043490
:1035F00002E0FDF7A6FA0024204638BD9C0000201A
:10360000002857D038B50446FDF79AFA54F8040C50
:10361000211F32D0284B1A6812B1914208D82FE0EE
:10362000254B1960002344F8043C206025E01A462D
:103630001368002B32D09942F9D844F8043C20603A
:103640002ABB1D4A1160002B30D116E0084490427D
:1036500008D100E000252268436813442360036812
:1036600044F8043C4DB16B68EA18914205D12268D8
:1036700013446B6054F8043C2B60FDF762FA38BDCC
:1036800044F8042C20600C4B19600025DEE7116023
:1036900015461A46DAE711601546E4E71346002599
:1036A00044F8045C2060002AF5D1CAE7084483424C
:1036B000E3D1CFE7704700BF9C0000200EB400B5F7
:1036C00086B007AA52F8041B0592039000230493C6
:1036D0006FF00043029301A800F0E6F806B05DF831
:1036E00004EB03B0704700BF037843B149B1034610
:1036F000013913F8012F2AB10029F9D102E003465C
:1037000000E00346181A7047844640EA010313F0AC
:10371000030F0DD1242A0BD32DE9F00FB1E8F80FD8
:10372000A0E8F80FA2F12402242AF7D2BDE8F00F96
:10373000002A05D011F8013B00F8013B013AF9D10C
:10374000604670478446002A2AD010F0030F04D048
:1037500000F8011B013A23D0F7E7282A1CD3A2F175
:1037600028022DE9F00F01F0FF0141EA012141EAB1
:10377000014141EA01610B460C460D460E460F46DB
:10378000884689468A468B46A0E8FA0F283AFBD23B
:10379000BDE8F00F283203D000F8011B013AFBD13D
:1037A00060467047024610F0030F16D111F0030F68
:1037B00013D12DE9F0004FF001374FF0803351F86D
:1037C000044BA4EB070525EA04051D4002D142F88D
:1037D000044BF4E7A1F10401F0BC11F8013B02F83D
:1037E000013B002BF9D1704700F1010110F0030FEC
:1037F00011D010F8012B002A23D010F0030F0AD0AB
:1038000010F8012B002A1CD010F0030F03D010F881
:10381000012B002A15D02DE970004FF001324FF036
:10382000803350F8044BA4EB020525EA04051D4043
:1038300000D1F6E7A0F1040070BC10F8012B002ABB
:10384000FBD1A0EB010070472DE9F0004FF0000420
:103850004FF000054FF001064FF000078B4208BF04
:10386000824209D892185B4102D2B6197F41F5D93C
:103870005FEA33034FEA3202994208BF904205D310
:10388000801A61EB0301A41945EB07057F085FEA85
:10389000360603D25B084FEA3202EDE702460B46DA
:1038A00020462946F0BC70472DE9F04F91B00390B7
:1038B0008A4609920023036071E3252906D0039804
:1038C000FFF728FEAA466AE3154600E000262A46CE
:1038D00012F8010BA0F120033E2B36D8DFE803F0ED
:1038E00020353523353535263535352C352F3535CD
:1038F000323535353535353535353535353535357B
:103900003535353535353535353535353535353567
:103910003535353535353535353535353535290098
:1039200046F04006D0E746F08006CDE746F4004674
:10393000CAE746F48056C7E746F02006C4E746F0DB
:103940001006C1E746F40076BEE72A2807D0A0F1AA
:103950003001C9B2092988BF002419D80BE0099B9E
:103960001A1D09921C68002CBCBF644246F0100668
:10397000AA1C68780CE0002404EB8404303800EBC7
:10398000440412F8010BA0F13003DBB2092BF3D988
:1039900024EAE47306932E2826D110782A2808D02A
:1039A0000132A0F13001C9B2092988BF002718D817
:1039B00006E0099B191D09911F68507802320EE03C
:1039C0000027069C07EB8707303800EB470712F803
:1039D000010BA0F13003DBB2092BF3D90694002FC1
:1039E00003DB46F4807600E00027742801D07A28B3
:1039F00003D102F1010A10782EE06A2805D146F0C1
:103A0000020602F1010A107826E06C280DD1107828
:103A10006C2805D146F0020602F1020A50781BE03C
:103A200002F1010A46F0010616E04C2803D146F0E7
:103A3000010692468DE068280DD11078682805D1DE
:103A400046F0080602F1020A507805E002F1010A88
:103A500046F0040600E0924678287AD8DFE810F0B5
:103A6000B202790079007900790079007900790053
:103A7000790079007900790079007900790079007E
:103A8000790079007900790079007900790079006E
:103A9000790079007900790079007900790079005E
:103AA0007900790079007900790086007900790041
:103AB000790079007900790079007900790079003E
:103AC000790079007900790079007900790079002E
:103AD000790079007900790079007900790079001E
:103AE000790079007900790079007900790079000E
:103AF00079007900790079007900790079007900FE
:103B000079007900790079007900790079007900ED
:103B10000101790079007900790079007900790054
:103B20007900790079008B002C0179007900790007
:103B300079002C017900790079007900A60016013E
:103B4000EE0079007900BF00790024017900790046
:103B50000301954B1D68002D00F02182009709AAF2
:103B6000019203993246069BA84718E20398252143
:103B7000FFF7D0FC13E2099B1A1D09921D78069BE2
:103B80005C1E30462146039F3A46FFF7EBFC384661
:103B90002946FFF7BFFCB04618F0100F00F0FF8178
:103BA00020202146039AFFF7CFFCF8E116F0080F1A
:103BB00007D0099B1A1D09921B68039A12681A7094
:103BC000EDE116F0020F099B03F1040209921B6854
:103BD000039A12681A601CBF00225A60DFE1099B39
:103BE0001A1D09921B68714A1946002B08BF11461D
:103BF000049126F4007816F4807F05D008463946F3
:103C0000FFF772FD054603E00498FFF7EDFD05465A
:103C1000069B5C1B40462146039AFFF7A3FC002D40
:103C2000BAD0DDE904673346013603981978FFF707
:103C300071FC013DF7D1CDE90467ADE7099B1A1D81
:103C400009921B6804930023059306F08003002B60
:103C50000CBF4FF000084FF0230846F48076082789
:103C6000D9E046F4005616F0800F07D043F2580210
:103C700043F27808782818BF904601E04FF000081A
:103C800016F4807F1FD026F400761CE006F0800238
:103C9000002A0CBF4FF000084FF0300816F4807F68
:103CA00011D026F400760EE016F4807F09D026F4B9
:103CB00000764FF0000806E046F480464FF000081A
:103CC00001E04FF0000816F4804F43D016F0020FC9
:103CD0000AD0099A073222F0070202F1080109917D
:103CE0000CCACDE9042307E0099A111D0991126855
:103CF0001446D517CDE9044516F0040F06D0BDF8DB
:103D000010100AB2D317CDE9042309E016F0080F0A
:103D100006D0DDE9042302F0FF020023CDE90423ED
:103D2000DDE90423002A73F1000309DADDE9042345
:103D3000524263EB4303CDE904234FF02D0839E0F1
:103D400016F0200F34D106F04002002A18BF4FF0C1
:103D500020082FE016F0020F0AD0099A073222F04D
:103D6000070202F1080109910CCACDE9042306E01B
:103D7000099A111D0991136804930023059316F005
:103D8000040F06D0BDF810108AB20023CDE9042339
:103D900010E016F0080F0DD0DDE9042302F0FF0259
:103DA0000023CDE9042305E0BC0900201C420008E3
:103DB0004FF02B0816F4807F14BF26F400760127FD
:103DC000A0F15803202B00F29E80DFE803F0249C32
:103DD0009C9C9C9C9C9C9C9C9C9C1B9C9C9C9C1B25
:103DE0009C9C9C9C9C11249C9C9C9C1B9C9C2400AB
:103DF000DDE9040102460B46014308BF002500F03F
:103E0000858037E0DDE9042310461946134308BFD7
:103E100000257BD044E0DDE9040102460B46014366
:103E200073D00DF1280E002506F4005CB1466446FF
:103E3000DDF818C03CB102F00F00694E3044017843
:103E40008EF8001006E002F00F00664E3044017854
:103E50008EF800100135110941EA037118090A466C
:103E600003460EF1010E52EA0301E3D14E46CDF8AE
:103E700018C04BE00DF127000025069C02F0070159
:103E8000303100F8011F0135D10841EA43714FEA92
:103E9000D30E0A46734652EA0301EFD1069435E089
:103EA000002506F4004BCDF81C8008978046894613
:103EB0005C46DDF818B04CB105F00303032B05D1C7
:103EC00010AB2B442C2203F8182C013510AB5F19D2
:103ED000404649460A220023FFF7B6FC303207F875
:103EE000182C0135404649460A220023FFF7ACFC56
:103EF0008046894658EA0903DDD1DDF81C80089F19
:103F0000CDF818B002E0002500E000257F1B27EA6D
:103F1000E777069BDC1B641BB8F1FF0F88BF04F139
:103F2000FF34B8F1000F50D0013C16F4007F50D19F
:103F300030462146039AFFF715FBB8F1FF0F06D96B
:103F400000240398C8F30721FFF7E4FA00E00024F7
:103F5000B8F1000F04D003985FFA88F1FFF7DAFA9E
:103F600030462146DDF80C804246FFF7FBFA302050
:103F700039464246FFF7E8FA012D08D40AAF3D441E
:103F8000404615F8011DFFF7C5FABD42F8D116F0FD
:103F9000100F04D020202146039AFFF7D5FA0AF12A
:103FA00001059AF8001000297FF487AC03998B680B
:103FB0002BB10A6849688A423CBF00219954039B8F
:103FC00018680AE04FF0FF3007E016F4007FC7D111
:103FD000AEE7B8F1FF0FBED9B3E711B0BDE8F08F7F
:103FE000FC4100080C420008010000000200000033
:103FF0000400000008000000100000002000000085
:1040000040000000800000001C4000083040000814
:10401000424000084F4000080403090441646166FF
:104020007275697420496E64757374726965730082
:10403000574943454420466561746865722044468B
:104040005500303030303030303030303143004087
:10405000496E7465726E616C20466C6173682020D5
:10406000202F307830383030303030302F30322A16
:104070003031364B612C30322A3031364B672C30A0
:10408000312A3036344B672C30372A3132384B677F
:10409000002530386C582530386C582530386C582D
:1040A0000025642E25642E25640046463A46463A8D
:1040B00046463A46463A46463A46460000000240E0
:1040C000000000000000024001000000000002406B
:1040D0000200000000000240030000000000024057
:1040E0000400000000000240050000000000024043
:1040F000060000000000024007000000000002402F
:10410000080000000000024009000000000002401A
:104110000A000000000002400B0000000000024006
:104120000C000000000002400D00000000000240F2
:104130000E000000000002400F00000000040240DA
:1041400000000000000402400100000000040240E2
:1041500002000000000402400300000000040240CE
:1041600004000000000402400500000000040240BA
:1041700006000000000402400700000000040240A6
:104180000800000000040240090000000004024092
:104190000A000000000402400B000000000402407E
:1041A0000C000000000402400D000000000402406A
:1041B0000E000000000402400F0000000008024052
:1041C000000000000008024001000000000802405A
:1041D0000200000000080240030000000008024046
:1041E0000400000000080240050000000008024032
:1041F00006000000000802400700000030313233A2
:10420000343536373839414243444546303132330C
:10421000343536373839616263646566286E756C8B
:104220006C2900002D494E46000000002D696E6685
:10423000000000002B494E46000000002B696E660E
:10424000000000004E414E006E616E000000000054
:1042500012010002000000409A230800000201023F
:1042600003010000510D00085D0D00084F400008DB
:10427000B30D0008BD0D0008C90D0008790E000837
:10428000910D0008A50D00080A060002000000407C
:104290000100000009021B00010100C032090400F6
:1042A0000000FE01020409210BFF0000041A0100B6
:1042B000152B0008D52A0008752B00087129000865
:1042C000312900082D290008412900083529000856
:1042D000392900083D290008212900082129000862
:1042E00021290008452900085129000860190020EB
:040000050800150DCD
:00000001FF
