:020000040801F1
:100000001CEB00206D230508C1050108FD05010852
:10001000C1050108C1050108C10501080000000073
:10002000000000000000000000000000FD5F030869
:10003000C105010800000000FD5F0308D1050108AB
:10004000C1050108C1050108C1050108C105010874
:10005000C1050108C1050108C1050108C105010864
:10006000C1050108C1050108C1050108C105010854
:10007000C1050108C1050108C1050108C105010844
:10008000C1050108C1050108C1050108C105010834
:10009000C1050108C1050108C1050108C105010824
:1000A000C1050108C1050108C1050108C105010814
:1000B000C1050108C1050108C1050108C105010804
:1000C000C1050108C1050108C1050108C1050108F4
:1000D000C1050108C1050108C1050108C1050108E4
:1000E000C1050108C1050108C1050108C1050108D4
:1000F000C1050108C1050108C1050108C1050108C4
:10010000C10501085D040108C1050108C105010818
:10011000C1050108C1050108C1050108C1050108A3
:10012000C1050108C1050108C1050108350501081F
:10013000C1050108C1050108C1050108C105010883
:10014000C1050108C1050108C1050108C105010873
:10015000C1050108C1050108C1050108C105010863
:10016000C1050108C1050108C1050108C105010853
:100170003504010801040108C1050108C105010891
:04018000C1050108AC
:10020000DAFAAFAD00050600000506004665617428
:1002100068657200000000005354333246323035B6
:10022000524759004A756C2031372032303137003F
:1002300000020503000000000000000000000000B4
:1002400000000000000000000000000000000000AE
:10025000000000000000000000000000000000009E
:10026000000000000000000000000000000000008E
:10027000000000000000000000000000000000007E
:1002800005830108998301080000000000000000B8
:10029000000000000000000000000000000000005E
:1002A0009D490308B5490308B568030879C30108E7
:1002B000000000000000000000000000000000003E
:1002C000000000000000000000000000000000002E
:1002D000000000000000000000000000000000001E
:1002E0001D5F030800000000000000000000000087
:1002F00079BD010825BF010849BF01087DBE01087D
:1003000000000000000000000000000000000000ED
:1003100000000000000000000000000000000000DD
:10032000516B0108BD6B0108996C0108DD6C010877
:10033000C5070108A907010800000000000000002F
:1003400000000000000000000000000000000000AD
:10035000000000000000000000000000000000009D
:10036000000000000000000000000000000000008D
:10037000000000000000000000000000000000007D
:10038000000000000000000000000000000000006D
:10039000000000000000000000000000000000005D
:1003A000000000000000000000000000000000004D
:1003B000000000000000000000000000000000003D
:1003C000000000000000000000000000000000002D
:1003D000000000000000000000000000000000001D
:1003E000000000000000000000000000000000000D
:1003F00000000000000000000000000000000000FD
:1004000000B525F055FE00F003F825F061BE00BFF1
:10041000684620F007018D4689B500AF044842F0D8
:10042000ADFA00BFBD46BDE889408546704700BFB4
:100430003410002000B525F03BFE00F003F825F055
:1004400047BE00BF684620F007018D4681B400AF6B
:1004500000BFBD4681BC8546704700BF00B525F092
:1004600027FE00F003F825F033BE00BF684620F0F9
:1004700007018D4681B583B000AF264B5B6B7B6077
:100480007A6840F233231340002B0BD0224B012219
:100490001A70204B4FF0FF329A6301211F4826F05B
:1004A000F7FA2FE07B6803F0C003002B1FD0194B35
:1004B0005B6903F40063002B07D0174B01221A700D
:1004C0000121164826F0E4FA0EE0154B1B68352B87
:1004D0000AD1144B1B78012B03D1134B134A1A601A
:1004E00002E0114B124A1A600A4BC0229A637B68E1
:1004F00003F48003002B05D0064B4FF480029A636F
:100500003CF02EFF00BF0C37BD46BDE8814085465C
:10051000704700BF002C0140281000200810002068
:100520002C10002029100020586402407154A308A8
:100530003154A30800B525F0BBFD00F003F825F009
:10054000C7BD00BF684620F007018D4681B583B066
:1005500000AF0D4B4FF07C629A6001210B4826F0F2
:1005600097FA0346FB80FB88002B06D0084B1B68DC
:1005700003F00103002B00D000BE00BF0C37BD46C6
:10058000BDE88140854670470064024008100020A5
:10059000F0ED00E0684620F007018D4601B5074BFD
:1005A0005B6803F07F039B0003F1006303F54023C6
:1005B0001B689847BDE801408546704700ED00E0A4
:1005C00000B525F075FDFFF7E5FF25F081BD00BF03
:1005D00000B525F06DFD00F003F825F079BD00BFF2
:1005E000684620F007018D4689B500AF49F0D0F983
:1005F00000BFBD46BDE8894085467047EFF30880DF
:10060000EFF30981724641F041BF00BF80B485B06D
:1006100000AF786039600023FB8112E07B685A6884
:10062000FB89DB0013441A683B689A4206D17B6859
:100630005A68FB89DB0013445B6808E0FB890133DF
:10064000FB817B681B88FA899A42E7D3002318460E
:100650001437BD4680BC704780B584B000AF3B46C0
:10066000BB600021B8683EF08BFB3B781A4611490D
:10067000114847F057FC0123FB7313E0FA7B134644
:100680005B001344013B0C4A9818FB7B07F11002F6
:10069000134413F8103C1A46084947F043FCFB7B0F
:1006A0000133FB73FB7B052BE8D9034B184610374E
:1006B000BD4680BDC0B1050800040020C8B10508D2
:1006C00080B586B002AF78600A4BFB60FB680833E8
:1006D0001A68FB6804331968FB681B6800930B46B3
:1006E0000549786847F01EFC03469BB21846103750
:1006F000BD4680BD107AFF1FD0B1050880B400AFA1
:10070000034A044BD31A1846BD4680BC704700BF4D
:100710001CEB00201CE7002080B485B000AF104B1C
:10072000BB60104B7B60BB68FB6002E0FB68013381
:10073000FB60FB681B78AD2B03D1FA687B689A429B
:10074000F4D1FA687B689A4202D14FF0FF3302E09D
:100750007A68FB68D31A18461437BD4680BC7047C8
:100760001CE700201CEB002080B485B000AF78604F
:100770007B68DB68FB6002E0FB680433FB60FB68BE
:100780001B68B3F1EF3F04D17B681A69FB689A429A
:10079000F2D87B681B691A46FB68D31A18461437CF
:1007A000BD4680BC704700BF80B400AF034A044B15
:1007B000D31A1846BD4680BC704700BFF8AF012071
:1007C0001CEB002080B582B000AF00237B600C4B97
:1007D0001B683B6007E03B685A687B6813447B609A
:1007E0003B681B683B603B68002BF4D1FFF7DCFFE4
:1007F00002467B68D31A18460837BD4680BD00BF45
:100800000000002080B588B000AFF860B9601146E4
:100810001A460B46FB711346BB80334A07F114039B
:1008200092E8030018600433198097F91630DAB2A1
:10083000FB795B00DBB21344DBB25BB2BB75FB79C7
:10084000102292FBF3F3FB760023FB613FE00023D1
:100850003B61FA7EFB6993FBF2F102FB01F29B1A0A
:10086000002B1BD1FB69002B03D0F9681F4806F051
:100870007BFA97F82830002B0AD0FB691A01FB7E1F
:1008800092FBF3F31A461A49F86806F089FA05E074
:10089000BB681A461749F86806F082FAFA7907F138
:1008A0001003B968184647F079FDFB79BA6813441C
:1008B000BB60F968202006F03BFA3A6907F114039F
:1008C0001946F86806F06CFAFB690133FB61BA88D7
:1008D000FB699A42BBDCF968044806F045FA00BFA0
:1008E0002037BD4680BD00BF08B20508F0B105083D
:1008F000F4B10508FCB1050880B584B000AF78609C
:1009000039607B68BB6007F10803002219467868EC
:1009100047F0D8FBF860BA687B689A4204D0BB689D
:1009200093F90030002B01D0002303E03B68FA6804
:100930001A60012318461037BD4680BD80B584B0CB
:1009400000AF786039607B68BB6007F10803002264
:100950001946786847F00EFCF860BA687B689A42DE
:1009600004D0BB6893F90030002B01D0002303E0D2
:100970003B68FA681A60012318461037BD4680BDEF
:1009800080B584B000AF7860396007F10C03194678
:100990007868FFF7B1FF034683F00103DBB2002B59
:1009A00001D000230CE0FB68002B02DBFB68FF2B6F
:1009B00001DD002304E0FB68DAB23B681A70012312
:1009C00018461037BD4680BD80B584B000AF786052
:1009D000396007F10C0319467868FFF78DFF03466D
:1009E00083F00103DBB2002B01D000230DE0FB6894
:1009F000002B03DBFB68B3F5803F01DB002304E041
:100A0000FB689AB23B681A80012318461037BD462E
:100A100080BD00BF80B588B000AFF860B9601346F4
:100A2000FB710023FB7702E0FB680133FB60FB688E
:100A300093F90030202BF7D007F114031022194648
:100A4000F86847F03FFBB8611CE0BB685A1CBA600D
:100A5000BA69D2B21A70FB7F0133FB777B6993F9D5
:100A600000302D2B18D1FA7FFB799A4214D27B6982
:100A70000133FB6007F1140310221946F86847F0B0
:100A800021FBB8617B69FA689A4205D27B691A46F4
:100A9000FB68D31A022BD8DD7B6993F90030002B59
:100AA00001D1FB7F00E0002318462037BD4680BD02
:100AB00090B589B000AFF860B9601346FB710023B0
:100AC000FB77CDE02C231946F86847F06DFAB86142
:100AD000BB69002B04D0BB695A1CBA6100221A7092
:100AE000FB6893F90030002B00F0B580FA7F1346C5
:100AF0005B0013449B001A46BB6813441B78042B0D
:100B000000F2A28001A252F823F000BF270B0108D7
:100B1000490B0108A30B0108F50B01081F0C010884
:100B2000FB680133FB60FB6893F90030202BF7D0A2
:100B3000FA7F13465B0013449B001A46BB681344BC
:100B40005B68FA681A6086E0FA7F13465B0013441C
:100B50009B001A46BB689C18FA7F13465B0013443F
:100B60009B001A46BB6813445968FA7F13465B0022
:100B700013449B001A46BB6813441B7A1A46F86854
:100B8000FFF748FF03462372FA7F13465B001344C6
:100B90009B001A46BB6813441B7A002B56D10023D6
:100BA00067E007F114031946F868FFF7A5FE03464E
:100BB00083F00103DBB2002B01D0002359E07B69F5
:100BC0006FF00042934205D107F114031946F8680B
:100BD000FFF7B4FEFA7F13465B0013449B001A46EE
:100BE000BB6813445B6807F114010422184647F000
:100BF000D5FB30E0FA7F13465B0013449B001A4696
:100C0000BB6813445B681946F868FFF7DDFE0346CE
:100C100083F00103DBB2002B1AD0002329E0FA7F16
:100C200013465B0013449B001A46BB6813445B6881
:100C30001946F868FFF7A4FE034683F00103DBB210
:100C4000002B07D0002314E0002312E000BF02E0D5
:100C500000BF00E000BFBB69FB60FB7F0133FB7797
:100C6000FA7FFB799A4203D2FB68002B7FF42AAF0C
:100C7000FB7F18462437BD4690BD00BF80B588B0C5
:100C800000AF786039602021786847F08DF903461D
:100C9000002B02D048F2620388E00C220021386861
:100CA00047F09AFB434A07F1100307CA03C31A70BF
:100CB000414A07F1080392E8030083E803003B6818
:100CC00000229A7207F10803184647F0FFFB02461C
:100CD00007F108031946786847F076F90346002BB8
:100CE00009D107F10803184647F0F0FB02467B687C
:100CF00013447B601AE007F11003184647F0E6FB47
:100D0000024607F110031946786847F05DF903467B
:100D1000002B0BD13B6801229A7207F11003184691
:100D200047F0D4FB02467B6813447B603B687A68DB
:100D30001A603B681B682F21184647F035F90246B8
:100D40003B685A603B685B68002B06D03B685B6879
:100D5000591C3A68516000221A703B689B7A002B3C
:100D600002D040F2BB1200E050223B681A813B687F
:100D70001B683A21184647F017F9F861FB69002B08
:100D800013D0FB695A1CFA6100221A703B680833C1
:100D90001946F869FFF718FE034683F00103DBB23A
:100DA000002B02D048F2620300E0002318462037EF
:100DB000BD4680BD20B205082CB2050880B588B0BC
:100DC00000AFF860B96011461A460B46FB71134636
:100DD000BB802C4A07F1140392E803001860043327
:100DE000198097F91630DAB2FB795B00DBB2134455
:100DF000DBB25BB2BB75FB79102292FBF3F3FB769F
:100E00000023FB6130E000233B61FA7EFB6993FB2A
:100E1000F2F102FB01F29B1A002B0CD1FB69002BB3
:100E200003D0F968184805F09FFFBB681A461749B8
:100E3000F86805F0B5FFFA7907F11003B9681846AC
:100E400047F0ACFAFB79BA681344BB60F96820201C
:100E500005F06EFF3A6907F114031946F86805F0CA
:100E60009FFFFB690133FB61BA88FB699A42CADCC8
:100E7000F968054805F078FF002318462037BD467D
:100E800080BD00BF44B2050834B2050838B2050879
:100E900080B500AF4FF480720021094847F09CFAFA
:100EA000084B074A1A60084823F0A4FD03212520B7
:100EB00004F060FC252004F089FC00BF80BD00BF69
:100EC00034040020340500201404002080B582B0D2
:100ED00000AF78600CE07B6893F90030184646F06C
:100EE00087FE03465AB27B681A707B6801337B60C9
:100EF0007B6893F90030002B04D07B6893F90030B5
:100F00003D2BE8D100BF0837BD4680BD90B587B006
:100F100000AF786039607868FFF7D8FF786847F0ED
:100F2000D5FA0346012B0AD97B6893F90030412B8F
:100F300005D17B68013393F90030542B06D0396812
:100F40004C4805F011FF48F260038EE07B680233E5
:100F50007B607B6893F90030002B05D139684648E7
:100F600005F002FF002380E00023FB7516E0FB7D07
:100F7000424A52F82340FB7D404A52F8233018463B
:100F800047F0A4FA03461A462146786847F04AF823
:100F90000346002B06D0FB7D0133FB75FB7D202B28
:100FA000E5D900E000BFFB7D212B06D1396831482F
:100FB00005F0DAFE48F2610357E00023BB75FB7DC4
:100FC0002E4A52F82330184647F080FA0346FB7346
:100FD000FB7B7A6813443B612949386947F04EFA34
:100FE0000346002B05D13968234805F0BDFE0023D8
:100FF0003BE02449386947F041FA0346002B05D10C
:101000000123BB753B6901333B6119E03B6993F9EF
:1010100000303D2B05D10223BB753B6901333B6199
:101020000EE03B6993F90030002B02D10023BB7521
:1010300006E039680F4805F097FE48F2610314E0B6
:10104000FB7D114A52F82330B97D3A6838699847D8
:101050000346BB81BB89002B01D1074B00E0054B48
:101060003968184605F080FEBB8918461C37BD4616
:1010700090BD00BFC8B30508D0B30508F0B305089C
:10108000D8B30508DCB3050874B4050880B483B090
:1010900000AF7860012318460C37BD4680BC70470E
:1010A00080B584B000AF786039604FE0FB680A2BF0
:1010B00004D00D2B02D0082B1BD02FE02A4B1B682D
:1010C0002A4A934242D93868FFF7E0FF0346002BD3
:1010D00003D03968264805F047FE234B1B680022E1
:1010E0001A70214B214A1A6039682048FFF70EFF19
:1010F0002CE01D4B1B681D4A934227D93868FFF727
:10110000C5FF0346002B03D039681A4805F02CFEB2
:10111000154B1B68013B144A136017E0124B1B6808
:10112000154A934211D23868FFF7B0FF0346002BEF
:1011300003D03968F86805F0FBFD0B4B1B685A1C9F
:1011400009490A60FA6852B21A7000BF786805F05F
:1011500061FEF860FB68B3F1FF3FA7D1002318469A
:101160001037BD4680BD00BF340500203404002088
:10117000E0B30508E4B305083405002080B586B067
:1011800000AFF8600B467A60FB72FB7A002B02D04E
:1011900048F2620326E07968144805F0E5FD144B37
:1011A0007968184605F0E0FD0123FB7512E07968C7
:1011B000104805F0D9FD79680C4805F0D5FDFB7D98
:1011C0000D4A52F823307968184605F0CDFDFB7DB5
:1011D0000133FB75FB7D202BE9D97968074805F0C1
:1011E000C3FD002318461837BD4680BDE8B3050887
:1011F0004CB20508ECB30508F0B30508E0B30508E8
:1012000080B5A2B002AFF8600B467A60FB72012095
:1012100022F07CFE0346002B02D048F262037CE001
:1012200007F178004FF45373009300230322012148
:1012300012F0AEFABB6F03F51873FB67394847F03D
:1012400045F90346DAB2FB6F1A70FB6F581CFB6F4F
:101250001B781A46334947F0A1F8FB6F324A5A62AD
:10126000324847F033F903463F2B28D807F11003E3
:1012700028220021184647F0AFF8FB6F591CFB6F7E
:101280001B781A4607F11003284828F081FC034612
:10129000002B26D107F1100107F138032022184650
:1012A00029F032F8FB6F402283F82920FB6F2A33A4
:1012B00007F138014022184647F070F811E01B484A
:1012C00047F004F90346DAB2FB6F83F82920FB6F7D
:1012D00003F12A00FB6F93F829301A46134947F0AF
:1012E0005DF8FB6F012283F82820B86F4FF4537329
:1012F0000022032104F074F9BB6F0121184612F09B
:1013000075FA0B4A0221012022F042FE0346002B0F
:1013100002D048F2620300E0002318468037BD4641
:1013200080BD00BF34B505080400400044B5050881
:10133000F8B4050880B584B000AFF8600B467A6059
:10134000FB72FB7A002B02D048F262030CE0012012
:1013500022F0DCFD0346002B02D148F2620303E0D9
:10136000012022F0D9FE002318461037BD4680BD6B
:1013700080B586B000AFF8600B467A60FB7201233F
:10138000FB75FB7A002B2FDB012B02DD022B0BD030
:101390002AE0FB7D30337968184605F0C9FC79688E
:1013A000164805F0E1FC23E0F86847F08FF80346A3
:1013B000012B09D1FB6893F90030302B07D0FB6873
:1013C00093F90030312B02D048F2620311E0FB6840
:1013D00093F90030DBB2303BBB75BA7DFB7D9A429E
:1013E00005D0BB7DFB7502E048F2620301E000BF5F
:1013F000002318461837BD4680BD00BF50B505080C
:1014000080B594B000AFF8600B467A60FB7207F1CC
:1014100034031846FFF754F900237B612F4BBB615F
:101420002F4BFB6107F134033B62FFF715F90346CD
:101430007B622C4BBB622B4BFB622B4B3B63FB7ADF
:10144000002B02D0022B1ED040E0012387F84F3042
:1014500014E097F84F309B0007F15002134453F803
:101460003C3C7968184605F07FFC79681F4805F018
:101470007BFC97F84F30013387F84F3097F84F30A7
:10148000072BE6D925E007F110031A461849F8683A
:1014900046F064FD0346002B05D03B69002B02DDBE
:1014A0003B69072B02DD48F2620313E03B699B00B6
:1014B00007F15002134453F83C3C7968184605F094
:1014C00053FC7968094805F04FFC02E048F26203DA
:1014D00000E0002318465037BD4680BD54B50508CE
:1014E0005CB5050868B5050870B505087CB5050844
:1014F00080B5050880B400AFBFF34F8F0549054B99
:10150000DB6803F4E062044B1343CB60BFF34F8FFF
:10151000FEE700BF00ED00E00400FA0580B584B0EE
:1015200000AFF8600B467A60FB72FB7A002B02D0AA
:1015300048F262030AE07968064805F015FC0A20C3
:1015400023F02CFAFFF7D6FF48F262031846103753
:10155000BD4680BD84B5050880B584B000AFF86095
:10156000B9601346FB71FB79012B02D1034823F0CC
:101570004DFA00BF1037BD4680BD00BF14040020E7
:10158000F0B59DB006AFF8600B467A60FB72FB7A4F
:10159000022B02D048F2620354E1002022F0B6FC94
:1015A0000346002B02D048F262034BE1FB68BB64A8
:1015B0002C231946F86846F0F7FC78657B6D002B04
:1015C0000DD07B6D5A1C7A6500221A70786D46F03A
:1015D0007DFF0346402B02D948F2620332E1B86C2A
:1015E00046F074FF0346202B02D948F2620329E13A
:1015F000964BBB63BB6B39220021184646F0ECFECC
:1016000007F1140321220021184646F0E5FEB86CCC
:1016100046F05CFF0346DBB23B753B7D1A4607F1A3
:1016200014030133B96C184646F0B8FE07F11402F2
:10163000002305930023049307F138030393844B9D
:101640000293002301930023009300230221002032
:101650003BF0F8FE4FF0FF317E4823F0E7F97B4B7B
:101660001B78002B02D148F26203EBE007F1100077
:101670004FF45373009300230322012112F088F8E2
:101680003B6901337B647B6C07F114049E4604F1D3
:10169000200C754626460FCE28606960AA60EB6074
:1016A00010340EF1100E6445F3D1734622461278C1
:1016B0001A70664BD3F82E207B6CC3F82E20634B38
:1016C000D3F82E30002B00F0A3807B6D002B40F070
:1016D0008D80614B1B687A689A4202D15F4B1B6810
:1016E00000E07B683B6479685D4805F03DFB0023C2
:1016F00087F85330386C05F08DFBF864FB6C0D2BCC
:1017000002D0FB6C0A2B5DD14FF0FF33FB6459E034
:10171000012387F83F30386C05F07CFBF864FB6CE4
:1017200001330E2B39D801A252F823F0C517010856
:101730009B1701089B1701089B1701089B170108BD
:101740009B1701089B1701089B1701089B170108AD
:10175000691701089B170108C51701089B170108A5
:101760009B170108C517010897F85330002B29D0A3
:1017700097F83F30002B03D079683A4805F0F4FA27
:1017800097F85330013B87F8533097F853307A6C11
:101790001344002283F8392014E097F83F30002BDF
:1017A00003D079682A2005F0C3FA97F853305A1C01
:1017B00087F853201946FB6C5AB27B6C0B4483F8B4
:1017C000392000BF97F853303F2B05D8FB6C0D2B09
:1017D00002D0FB6C0A2B9BD17968234805F0C4FA30
:1017E0007B6C97F8532083F8382011E0786D46F031
:1017F0006DFE0346DAB27B6C83F838207B6C03F114
:1018000039007B6C93F838301A46796D46F0C6FD86
:1018100038694FF453730022032103F0E1FE3B6962
:101820000121184611F0E2FF00220021002022F0E1
:10183000AFFB0346002B02D048F2620302E00AF03D
:101840006BF9002318465C37BD46F0BD3805002013
:10185000591501081404002048000020440000200D
:101860008CB5050898B505089CB5050880B584B009
:1018700000AFF8600B467A60FB72FB7A002B02D057
:1018800048F262030EE0002022F040FB0346002BEA
:1018900002D148F2620305E00AF050F9002022F07C
:1018A0003BFC002318461037BD4680BD80B58CB088
:1018B00002AFF8600B467A60FB72FB7A022B02D013
:1018C00048F262032CE02021F86846F06DFB0346E5
:1018D000002B02D048F2620322E007F1100341F22C
:1018E00088321946F86822F029FF0346FB84FB8CF6
:1018F000002B01D0FB8C13E07B691B0E18467B6923
:101900001B0CD9B27B691B0ADBB27A69D2B2019295
:1019100000930B4602460449786805F041FA00231B
:1019200018462837BD4680BDA0B5050880B584B0EF
:1019300000AFF8600B467A60FB72FB7A002B02D096
:1019400048F2620307E07968054805F00DFA0A20BD
:1019500003F004FB002318461037BD4680BD00BFCE
:10196000B0B5050880B58CB000AFF8600B467A6062
:10197000FB72FB7A002B02D048F262030CE007F105
:101980001403184611F0DEFC07F114031A4604494B
:10199000786805F005FA002318463037BD4680BD4B
:1019A000B8B5050880B58EB000AFF8600B467A6018
:1019B000FB72FB7A022B02D048F262038AE000231A
:1019C0003B630023FB6207F1140300221A605A6094
:1019D0009A60DA601A615A6107F13003BB6107F15E
:1019E0002C037B6207F1140302221946F868FFF703
:1019F0005FF8034687F8373097F83730002B03D06D
:101A000097F83730022B02D948F2620362E03B6B51
:101A1000184600F069F8034687F8363097F83630F4
:101A2000272B02D948F2620354E097F83730012B94
:101A30001BD197F83630184603F0DCFE0346002B26
:101A400014BF0123002387F8353097F83530002B79
:101A500001D0312300E030237968184605F068F999
:101A600079681E4805F080F933E0FB6A07F113023C
:101A700011461846FEF784FF034683F00103DBB2EC
:101A8000002B18D0FB6A1946154846F07BFA03462E
:101A9000002B02D10123FB740DE0FB6A19461148AB
:101AA00046F070FA0346002B02D10023FB7402E0DB
:101AB00048F262030EE0FB7C002B05D097F836302D
:101AC000184603F06FFE04E097F83630184603F02E
:101AD0007DFE002318463837BD4680BDC0B50508D9
:101AE000C4B50508CCB5050880B586B000AF7860F0
:101AF0007B6893F900301A4641237B613A614323A6
:101B0000FB607A693B699A4205D83A69FB689A4258
:101B100001D8012300E0002303F00103DBB283F0CE
:101B20000103DBB2002B01D028231EE07B680133C8
:101B300007F10B0211461846FEF722FF034683F019
:101B40000103DBB2002B01D028230EE07B6893F960
:101B50000030184646F04CF80346413B1B01DAB210
:101B6000FB7A1344DBB2FB72FB7A18461837BD468A
:101B700080BD00BF80B58EB000AFF8600B467A60C4
:101B8000FB72FB7A022B02D048F262036EE0002364
:101B90003B630023FB6207F1140300221A605A60C2
:101BA0009A60DA601A615A6107F13003BB6107F18C
:101BB0002C037B6207F1140302221946F868FEF732
:101BC00077FF034687F8363097F83630022B02D07D
:101BD00048F262034AE03B6B1846FFF785FF034675
:101BE00087F8353097F83530272B02D948F2620351
:101BF0003CE00023FB74FB6A07F113021146184610
:101C0000FEF7BEFE034683F00103DBB2002B25D0B6
:101C1000002387F8373011E097F83730154A52F82B
:101C20002330FA6A1146184646F0ACF90346002BF9
:101C300009D097F83730013387F8373097F83730C5
:101C4000052BE9D900E000BF97F83730052B02D902
:101C500048F262030AE097F83730FB74FA7C97F891
:101C600035301146184603F085FD034618463837CF
:101C7000BD4680BD0400002080B5FCB002AF07F176
:101C80000C0318603B1D1A6007F10B030A461A701B
:101C900007F10B031B78022B02D048F262039AE093
:101CA000002022F033F90346002B02D148F26203F0
:101CB00091E007F5EA7207F10C0311461868FEF788
:101CC000DDFF0346A7F8E431B7F8E431002B02D07A
:101CD000B7F8E4317FE0D7F8D421B7F8DC3107F169
:101CE0001C000093002300210DF092F90346A7F891
:101CF000E231B7F8E231002B02D0B7F8E2316AE006
:101D0000D7F8D831002B02D0D7F8D83100E0344BC7
:101D100007F11C001A4601210DF0FCF907F11C0324
:101D2000002118460DF022FB07F11C0318460DF0A8
:101D30008DFB0346A7F8E031B7F8E031002B3ED128
:101D400031E007F11803186807F1120107F11402D6
:101D500007F1100300930B46002113F0EBFE002364
:101D6000A7F8E63112E007F114031A68B7F8E63174
:101D7000134493F900301A463B1D1968104604F0CD
:101D8000D7FFB7F8E6310133A7F8E63107F11203C0
:101D90001B88B7F8E6219A42E5D307F118031B68C0
:101DA000184613F039FE07F1180107F11C0341F240
:101DB000883218460DF06CFB0346002BC1D03B1D4A
:101DC0001968084804F0D0FF07F11C0318460DF00D
:101DD000FBF8B7F8E031184607F5F477BD4680BD4B
:101DE00020B6050824B6050880B5ADF5067D02AF1E
:101DF00007F10C0318603B1D1A6007F10B030A463C
:101E00001A7007F10B031B78022B02D048F2620311
:101E1000E4E0002022F07AF80346002B02D148F2D9
:101E20006203DBE007F10C033F21186846F0BCF8C1
:101E3000C7F80802D7F80832002B02D148F2620333
:101E4000CCE0D7F808325A1CC7F8082200221A70D2
:101E500007F5FA7207F10C0311461868FEF70EFF3A
:101E60000346A7F80632B7F80632002B02D0B7F8BF
:101E70000632B3E0D7F8F421B7F8FC3107F13C00A3
:101E80000093002300210DF0C3F80346A7F80432A5
:101E9000B7F80432002B02D0B7F804329EE0D7F82E
:101EA000080246F013FB0346A7F80232B7F80222F5
:101EB00007F130034C49184646F034F8D7F8F831AA
:101EC000002B02D0D7F8F83100E0484B07F13C0076
:101ED0001A4603210DF01EF907F12003444A1A6047
:101EE00007F12003434A5A6007F12003424A9A60EF
:101EF00007F1200307F13002DA6007F1200107F152
:101F00003C03022218460DF0AFF907F13C03002113
:101F100018460DF02BFAD7F8080246F0D7FA034618
:101F20009AB207F13C03D7F8081218460DF064FA8C
:101F300007F13C0318460DF089FA0346A7F8003272
:101F4000B7F80032002B3ED131E007F11C031868CE
:101F500007F1160107F1180207F1140300930B466D
:101F6000002113F0E7FD0023A7F80E3212E007F17D
:101F700018031A68B7F80E32134493F900301A4662
:101F80003B1D1968104604F0D3FEB7F80E3201333A
:101F9000A7F80E3207F116031B88B7F80E229A42F3
:101FA000E5D307F11C031B68184613F035FD07F154
:101FB0001C0107F13C0341F2883218460DF068FA23
:101FC0000346002BC1D03B1D19680C4804F0CCFE21
:101FD00007F13C0318460CF0F7FF0023184607F5FD
:101FE0000477BD4680BD00BF28B605082CB605089D
:101FF00030B6050840B6050864B6050874B605088D
:1020000080B586B000AFF8600B467A60FB72FB7A51
:10201000002B02D048F2620321E007F110031946B9
:10202000114800F0B5FB0346002B04D03B6919466C
:10203000786804F0B5FE3B69184645F0B7FE0A4BD8
:102040007B617B691B899BB2002B0CBF01230023A2
:10205000DBB2002B02D0252003F0B8FB002318468A
:102060001837BD4680BD00BF1C00002080B586B07B
:1020700000AFF8600B467A60FB72FB7A002B02D04F
:1020800048F262030AE0074B7B617B691B899BB2C4
:102090001A460549786804F083FE0023184618376D
:1020A000BD4680BD1C00002078B6050880B586B00E
:1020B00000AFF8600B467A60FB72FB7A002B02D00F
:1020C00048F262030EE0094B9B881A46074B7B617E
:1020D0007B691B899BB2D31A1A460549786804F0BC
:1020E0005FFE002318461837BD4680BD1C00002047
:1020F00078B6050880B586B000AFF8600B467A6008
:10210000FB72FB7A002B06D048F2620310E07B6979
:10211000184645F04BFE07F114031946064800F037
:1021200037FB0346002BF2D1252003F04FFB0023A1
:1021300018461837BD4680BD1C00002080B58CB005
:1021400000AFF8600B467A60FB72FB7A022B02D07C
:1021500048F262032BE0002021F0D8FE0346002B5A
:1021600002D148F2620322E007F118031946F86829
:1021700022F05CF80346FB85FB8D002B01D0FB8D24
:1021800015E007F1140307F1180142F21072002064
:1021900013F056FF0346002B02D048F2620306E01C
:1021A0007B691A460449786804F0FAFD0023184652
:1021B0003037BD4680BD00BF90B60508B0B586B0CB
:1021C00004AF786039607B6893F92D30012B01D121
:1021D000584B00E0584B1A465849386804F0E0FD67
:1021E0007B6893F821301C467B6893F822301D46AB
:1021F0007B6893F823301A467B6893F8243019469D
:102200007B6893F8253018467B6893F82630039353
:102210000290019100922B4622464949386804F009
:10222000BFFD7B68B3F927301BB21A4645493868B1
:1022300004F0B6FD7B68D3F82930434A934213D8A3
:102240007B68D3F82930184645F0A8FA4FF0000211
:102250003E4B45F0B5FA03460C461A4623463C4928
:10226000386804F09DFD12E07B68D3F829301846E9
:1022700045F094FA4FF00002344B45F0A1FA0346C2
:102280000C461A4623463349386804F089FD7B68BA
:1022900093F832301A463049386804F081FD7B6883
:1022A000D3F82E30002B30D07B68D3F82E30012BA2
:1022B00029D07B68D3F82E30284A934221D07B68FE
:1022C000D3F82E30264A934219D07B68D3F82E30AB
:1022D000244A934211D07B68D3F82E30224A93428D
:1022E00009D07B68D3F82E30204A934201D1204B8D
:1022F0000CE0204B0AE0204B08E0204B06E0204B8E
:1023000004E0204B02E0204B00E0204B1A4620491D
:10231000386804F045FD7B6801331A461D4938686A
:1023200004F03EFD1C49386804F03AFD00BF083750
:10233000BD46B0BDA8B60508B0B60508B8B60508D4
:10234000C0B60508E0B605089F86010000408F4032
:10235000E8B60508F0B60508F8B605080200200042
:10236000040020000400400002004000060040007D
:1023700000B705080CB7050814B7050820B705080D
:102380002CB7050834B7050840B7050844B7050859
:102390004CB7050854B705085CB7050880B582B08E
:1023A00000AF78607B6893F83930002B02D0012BA6
:1023B00008D00BE07A687B68DB6B19461046FFF7A4
:1023C000FDFE03E0044822F021FB00BF0023184675
:1023D0000837BD4680BD00BF1404002080B584B01E
:1023E00000AFF8600B467A60FB72FB7A002B02D0DC
:1023F00048F2620319E079680E4804F0B5FC796888
:102400000D4811F095FE0346002B02D048F26203FE
:102410000BE04FF0FF31094822F008FB0346002B88
:1024200001D1002301E048F2620318461037BD468F
:1024300080BD00BF60B705089D230108140400207B
:1024400080B584B000AFF8600B467A60FB72FB7A0F
:10245000002B02D048F2620307E07968054804F0D7
:1024600083FC0A2002F050FD002318461037BD46B9
:1024700080BD00BF9CB7050880B586B000AFF8608E
:102480000B467A60FB72FB7A002B01D0052317E024
:10249000FEF742F978617B69002B04DA0A49786813
:1024A00004F07EFC07E0FEF729F903467A69074944
:1024B000786804F075FC0649786804F071FC002324
:1024C00018461837BD4680BDA4B70508B8B705083B
:1024D000C4B7050880B586B000AFF8600B467A60D7
:1024E000FB72FB7A002B01D0052317E0FEF76AF997
:1024F00078617B69002B04DA0A49786804F050FCA3
:1025000007E0FEF751F903467A690749786804F055
:1025100047FC0649786804F043FC00231846183746
:10252000BD4680BDC8B70508DCB70508E8B7050893
:1025300080B584B000AFF8600B467A60FB72FB7A1E
:10254000002B01D005230DE0084A094BD31A002BBC
:1025500000DA03339B109BB2042205497868FEF72A
:102560002DFC034618461037BD4680BDF8AF01204C
:102570001CEB002080B584B000AFF8600B467A6099
:10258000FB72FB7A002B01D005230AE0074A084BB7
:10259000D31A9B089BB2042205497868FEF70EFC0B
:1025A000034618461037BD4680BD00BF1CEB002017
:1025B0001CE7002080B586B002AF786039607B6888
:1025C000DB68FB6002E0FB680433FB60FB681B68B0
:1025D000B3F1EF3F04D17B681A69FB689A42F2D8E5
:1025E0007B68D96A7B68986A7B681B691A46FB68B6
:1025F000D31A7A6852690192009303460A46044945
:10260000386804F0CDFB00BF1037BD4680BD00BF69
:10261000ECB7050880B586B000AFF8600B467A606D
:10262000FB72FB7A002B01D0052320E023F02AF86F
:1026300038613B697B6114E07B691B680E4A9342F9
:1026400001D0112313E079687869FFF7B3FF3B6984
:10265000D3F88C207B699A4207D07B69D3F8883005
:102660007B617B69002BE7D100E000BF00231846A7
:102670001837BD4680BD00BF4452485480B485B071
:1026800000AFF8600B467A60FB72002318461437DF
:10269000BD4680BC704700BF80B485B000AFF86015
:1026A0000B467A60FB72002318461437BD4680BC87
:1026B000704700BF80B485B000AFF8600B467A6009
:1026C000FB72002318461437BD4680BC704700BF1C
:1026D00080B485B000AFF8600B467A60FB720023CF
:1026E00018461437BD4680BC704700BF80B485B023
:1026F00000AFF8600B467A60FB720023184614376F
:10270000BD4680BC704700BF80B485B000AFF860A4
:102710000B467A60FB72002318461437BD4680BC16
:10272000704700BF80B500AF1021102003F06CFD92
:102730001821182003F068FD044B41F6B0520449FB
:10274000184603F08BFD0123184680BD0080000869
:1027500004B8050880B582B000AF0A4B7B600A4B15
:102760003B607B689B68094A934206D03B689B6844
:10277000064A934201D0FFF7D5FF00BF0837BD4698
:1027800080BD00BF0080000800C000084252434DD9
:1027900080B584B000AF786039607B68BB60BB688F
:1027A0001B68002B07D0BB689B88002B03D0BB683D
:1027B000DB88002B01D1002300E0012383F001031B
:1027C000DBB2002B0BD17B68FB60FB681B899BB2E3
:1027D000002B0CBF01230023DBB2002B01D0002310
:1027E00026E07B681B687A68928992B211467A6803
:1027F000D28802FB01F299187B68DB881A46386898
:1028000045F0CCFD7B689B899BB201337A68928846
:1028100093FBF2F102FB01F29B1A9AB27B689A8158
:102820007B681B899BB2013B9AB27B681A810123AA
:1028300018461037BD4680BD80B586B000AFF86041
:10284000B9601346FB80FB88002B01D1002319E0FF
:10285000BB687B6100237B8208E07B8A01337B823B
:10286000FB68DB881A467B6913447B617A8AFB88A4
:102870009A4206D27969F868FFF78AFF0346002B6F
:10288000EBD17B8A18461837BD4680BD80B588B02D
:1028900000AFF8600B467A607B81FB687B617B69E7
:1028A0001B68002B07D07B699B88002B03D07B69BA
:1028B000DB88002B01D1002300E0012383F001031A
:1028C000DBB2002B11D1FB68FB61FB691B899BB25A
:1028D000002B0CBF01230023DBB2002B05D1FB68CA
:1028E0001B899BB27A899A4201D300231CE0FB68C2
:1028F0009B899BB21A467B891344FA68928893FBA2
:10290000F2F102FB01F29B1A7B83FB681B687A8B56
:10291000F968C98801FB02F29918FB68DB881A463E
:10292000786845F03BFD012318462037BD4680BD41
:1029300080B586B000AF786039607B68FB60FB686B
:102940001B68002B07D0FB689B88002B03D0FB681B
:10295000DB88002B01D1002300E0012383F0010379
:10296000DBB2002B14D17B687B617B691B899AB237
:102970007B699B889A420CBF01230023DBB2002BAA
:1029800008D07B689B7B83F00103DBB2002B01D076
:1029900000233AE07B681B687A68528992B211463C
:1029A0007A68D28802FB01F298187B68DB881A46A5
:1029B000396845F0F3FC7B685B899BB201337A6828
:1029C000928893FBF2F102FB01F29B1A9AB27B68A8
:1029D0005A817B683B613B691B899AB23B699B8842
:1029E0009A420CBF01230023DBB2002B05D07B6889
:1029F0005B899AB27B689A8106E07B681B899BB2EF
:102A000001339AB27B681A81012318461837BD46F4
:102A100080BD00BF80B586B000AFF860B9601346D6
:102A2000FB80FB88002B01D1002319E0BB687B6190
:102A300000237B8208E07B8A01337B82FB68DB8892
:102A40001A467B6913447B617A8AFB889A4206D2D4
:102A50007969F868FFF76CFF0346002BEBD17B8A9E
:102A600018461837BD4680BD80B483B000AF78608B
:102A700000227B68114619817B68114659817B6869
:102A80009A8100BF0C37BD4680BC704790B585B0B9
:102A900000AF78607B681A687B685B68D41823F0A5
:102AA0003DFA0346E31AFB60FB6823EAE37318462A
:102AB0001437BD4690BD00BF80B588B002AFF86046
:102AC000B9603B601346FB8000237B61FA8807F105
:102AD000140300933B68B968F86821F063FD7B69D3
:102AE00018461837BD4680BD80B584B000AFF86089
:102AF000B9603B601346FB80FB881A46B968F868EA
:102B000021F074FC0346002B02D04FF0FF3309E0A4
:102B1000F86821F0C7FD0346002B02D04FF0FF33C9
:102B200000E0FB8818461037BD4680BD80B485B0F4
:102B300000AFF860B9607A60FB68BA685A60FB68F9
:102B40007A681A6000BF1437BD4680BC704700BF6A
:102B500080B483B000AF78607B681B684FF6FF726B
:102B6000934203D07B681B68013300E001237A683D
:102B700013607B681B6818460C37BD4680BC7047E5
:102B8000F0B58BB000AFF860B9607A604FF0FF33FA
:102B90007B6200233B6219E0FB68D3F8C840FB6806
:102BA0001A693B6AD518BB689EB27868FFF76EFF5A
:102BB0000346324629462046FFF796FF78627B6A35
:102BC000002B1CDB3A6A7B6A13443B623A6ABB689F
:102BD0009A4215DA7B68BB6123F0A0F90246BB6913
:102BE0001B68D21ABB695B689A422CBF0123002381
:102BF000DBB283F00103DBB2002BCDD100E000BFDC
:102C00003A6ABB689A4215D1FB6803F1CC02FB68B3
:102C10009B694FF47A7101FB03F3FA617B61FB69F5
:102C20007A695A6023F07AF90246FB691A60002338
:102C30007B6202E04FF0FF337B627B6A18462C37E1
:102C4000BD46F0BD80B487B000AFF860B9607A606F
:102C50003B60FB68BA68C3F8C82000237B6116E0BC
:102C6000F9687A6913469B0013449B000B44243394
:102C700000221A60F9687A6913469B0013449B008E
:102C80000B44283300221A707B6901337B617B6916
:102C9000072BE5DDFB687A685A60FB683A681A61C1
:102CA000FB683A6A9A60FB687A6A5A61FB68BA6A9A
:102CB000DA60FB6800221A62FB6800221A77FB6860
:102CC0000022C3F8C420FB680022C3F8D020FB68B0
:102CD000D3F8D020FB68C3F8CC2000BF1C37BD461A
:102CE00080BC704780B58AB000AFF860B9607A6088
:102CF00001237B6200233B620423FB61BB6800224B
:102D00001A604FF0FF33BB613B6A01333B623A6AA2
:102D1000FB699A4203DD4FF0FF33BB6120E0FB68A3
:102D2000D3F8C8007B6807F117010122FFF7C4FE42
:102D3000B861BB69012B12D1BB681A68FB7D03F037
:102D40007F03796A01FB03F31A44BB681A607B6A4C
:102D5000DB017B62FB7D5BB2002BD2DB00E000BFBE
:102D60003B6A18462837BD4680BD00BFF0B587B026
:102D700000AF786039604FF0FF337B6100233B7315
:102D800000233B610023BB607B68D3F8C8407B68AD
:102D90005D693868FFF77AFE03460122294620461E
:102DA000FFF78AFE0346012B3BD101233B613868C4
:102DB000FFF76CFE03461A4607F1080319467868C8
:102DC000FFF790FF7B685B690133BA6811461846CC
:102DD00001F030F902463B6913443B61BB68002BAC
:102DE00015DD7B68D3F8C8407B685A693B69D51804
:102DF000BB689EB23868FFF749FE03463246294653
:102E00002046FFF759FE0246BB689A420BD17B6809
:102E10005B691B783B733B7BC3F30313DBB27B61C2
:102E200002E000BF00E000BF7B6918461C37BD46CA
:102E3000F0BD00BF80B487B000AF786039607B68B8
:102E40007B613B689B683B613B685B681A463B69FA
:102E50001344BB6042E03B6993F900302F2B04D14F
:102E60007B6993F900302F2B42D17B6993F90030B5
:102E70002B2B0CD07B6993F90030232B07D07B6977
:102E800093F900203B6993F900309A4232D17B6973
:102E900093F900302B2B13D13B690133FB6005E024
:102EA0003B6901333B613B690133FB60FA68BB68F6
:102EB0009A420DD2FB6893F900302F2BF0D107E036
:102EC0007B6993F90030232B02D1BB68013B3B6146
:102ED0007B6901337B613B6901333B617B6993F91A
:102EE0000030002B07D03A69BB689A42B3D302E0A6
:102EF00000BF00E000BF3A69BB689A4206D17B6917
:102F000093F90030002B01D1012300E000235BB2D4
:102F100018461C37BD4680BC704700BFF0B58BB06B
:102F200002AFF860B9607A604FF0FF33BB610023F5
:102F3000FB6166E0F968FA6913469B0013449B0045
:102F40000B4424331B68002B58D0F968FA691346E8
:102F50009B0013449B000B4424331B681946B8683C
:102F600001F03EFA0346002B0FD1F968FA691346C7
:102F70009B0013449B000B4424331B68B96818461C
:102F8000FFF758FF0346002B38D0F968FA6913465B
:102F90009B0013449B000B442C331B68002B2DD04B
:102FA000F968FA6913469B0013449B000B442C33C9
:102FB0001C68BB689D68BB685B689E467B689E68B2
:102FC0007B68DB683B60F968FA6913469B00134431
:102FD0009B000B4430331968F868FA6913469B006C
:102FE00013449B00034434331B68019300913B68F6
:102FF000324671462846A0470023BB61FB69013376
:10300000FB61FB69072B95DDBB69B3F1FF3F14D171
:10301000FB68D3F8C430002B0FD007F110037A6897
:10302000B9681846FFF782FDFB68D3F8C43007F192
:103030001002104698470023BB61BB69184624372D
:10304000BD46F0BD80B58AB000AF78604FF0FF3369
:103050007B627B689B69002B02D100237B6242E08C
:103060007B68CC33BB6122F059FF0246BB691B6809
:10307000D21ABB695B689A422CBF01230023DBB2E2
:10308000002B30D07B6893F91C30002B2BD1002310
:103090003B613B69FB6007F10C033B624FF47A73C1
:1030A0007B613B6A7A695A6022F038FF02463B6ACC
:1030B0001A607B681A697B689B681946104600F0A5
:1030C000EBFEF861FB69002B0DDD07F10C031A46DE
:1030D000F9697868FFF754FD78627B6A002B02D1AA
:1030E0007B6801221A777B6A18462837BD4680BD67
:1030F000F0B595B006AF7860396039687868FFF749
:1031000035FE0346FB8500237B6300233B63FB8D79
:10311000023B0B2B00F2BE8001A252F823F000BF4D
:103120009532010851310108953201081532010824
:10313000953201089532010895320108953201084F
:10314000953201089532010895320108873201084D
:103150007B685B697A68D268164607F11002951D94
:1031600007F11002141D07F1100107F11002501DA4
:103170000496039307F110030C33029307F1100335
:103180000833019307F1200300932B46224600F0F9
:1031900093FE0346012B40F0818007F1100207F1F6
:1031A000200319467868FFF7B9FE3B69002B6ED003
:1031B0003B69012B0CD17B6818697B689B681946B9
:1031C000FB8A00930023042201F0DCF978630EE00F
:1031D0003B69022B0BD17B6818697B689B68194699
:1031E000FB8A00930023052201F0CCF978637B6B06
:1031F000002B03DC4FF0FF333B6305E03A68796B4B
:103200007868FFF7BDFC38633B6BB3F1FF3F3ED1FD
:1032100000BF44E07B685C697B68DB6807F10E02F5
:1032200007F10D0107F10C000093234600F0B6FEF4
:103230000346012B03D04FF0FF333B631EE07B6856
:1032400018697B689B681946FB8900930023062256
:1032500001F098F978637B6B002B03DC4FF0FF33B0
:103260003B630BE03A68796B7868FFF789FC386359
:103270003B6B002B02D04FF0FF333B633B6BB3F152
:10328000FF3F06D10BE07B6800221A7702E000BF07
:1032900000E000BF7868FFF7D5FE00E000BF3B6BA1
:1032A000002B01D1FB8D3B633B6B18463C37BD4681
:1032B000F0BD00BF80B588B000AF786039600023F2
:1032C000FB610023FB60FB68BB603B6807F1080201
:1032D0007A613B617B693A695A6022F01FFE0246BF
:1032E0007B691A600DE007F1080319467868FFF75B
:1032F000FFFE0346B3F1FF3F03D14FF0FF33FB6105
:1033000014E007F10803BB6122F008FE0246BB6926
:103310001B68D21ABB695B689A422CBF0123002349
:10332000DBB283F00103DBB2002BDCD1FB69184672
:103330002037BD4680BD00BF80B586B000AFF860C5
:10334000B9607A604FF0FF337B617B683B6122F0AC
:10335000E5FD02463B691B68D21A3B695B689A42ED
:103360002CBF01230023DBB2002B09D17968F86858
:10337000FFF7BEFE78617A69BB689A42E5D100E04A
:1033800000BF7B6918461837BD4680BD80B5A2B026
:1033900000AF786039604FF0FF33C7F884304B4A94
:1033A00007F1100311465822184644F0F7FF002396
:1033B000C7F880300023FB66FB6EBB667B685B68EA
:1033C00007F16802BA677B67BB6F7A6F5A6022F0B9
:1033D000A5FD0246BB6F1A607B681B6A002B62D199
:1033E0003B68002B02D107F110033B603B681B8B4D
:1033F0001A467B689A617B6803F1CC027B689B6903
:103400004FF47A7101FB03F3FA673B67FB6F3A6F86
:103410005A6022F083FD0246FB6F1A607B681869D0
:103420007B689B683A68194600F0A4FBC7F88000E7
:10343000D7F88030002B38DD07F168031A46D7F83B
:1034400080107868FFF79CFBC7F88400D7F88430B9
:10345000002B2CD107F168031A4602217868FFF788
:103460006BFF0346022B19D1FF23FB730023BB73B1
:103470007B685A697B68DB6807F10F0107F10E0072
:1034800000F068FC0346012B03D1FB7BC7F88430B6
:103490000EE04FF0FF33C7F8843009E04FF0FF3300
:1034A000C7F8843004E000BF02E000BF00E000BFC6
:1034B000D7F88430002B02D17B6801221A62D7F83A
:1034C000843018468837BD4680BD00BFB4D5050896
:1034D000B0B596B004AFF860B9603B601346FB71BD
:1034E0004FF0FF337B640023FB630023FB61002369
:1034F0003B6200237B62BB68FB610023FB62FB6ACB
:10350000BB62FB685B6807F128027A633B637B6BF5
:103510003A6B5A6022F002FD02467B6B1A60FB6830
:103520001B6A002B00F0D280FB681C69FB689B685B
:103530001D46F868FFF70CFB03469AB2FB1D029389
:1035400007F11C030193012300931346002229462F
:10355000204601F097F8F863FB6B002B40F3B8802E
:10356000FB68D3F8C8301B68184611F099FF07F1C3
:1035700028031A46F96BF868FFF702FB78647B6C46
:10358000002B07D0FB68D3F8C8301B68184611F031
:1035900095FF9EE007F128031A460921F868FFF716
:1035A000CBFE7864FB68D3F8C8301B68184611F06E
:1035B00085FF7B6C092B40F085800023BB614FF0B9
:1035C000FF337B61FB685B69FA68D268144607F1D8
:1035D000140107F1180207F11200019400930B4641
:1035E000012101F0CDF80346012B01D17B697B64F9
:1035F0007B6C802B6DD000233B645FE0F9683A6CF4
:1036000013469B0013449B000B4424331B68002B80
:1036100051D1F9683A6C13469B0013449B000B444C
:10362000283397F858201A7097F85830002B17D085
:10363000B86844F04BFF03460133184644F06AFB78
:10364000B863B968B86B44F0F7FEF9683A6C134692
:103650009B0013449B000B442433BA6B1A6009E0AF
:10366000F9683A6C13469B0013449B000B442433C7
:10367000BA681A60F9683A6C13469B0013449B00C1
:103680000B442C333A681A60F9683A6C13469B0075
:1036900013449B000B443033FA6D1A60F9683A6C9E
:1036A00013469B0013449B000B4434333A6E1A605C
:1036B00000237B640DE03B6C01333B643B6C072BC8
:1036C0009CDD06E04FF0FF337B6402E000BF00E0CA
:1036D00000BF7B6C18464837BD46B0BDB0B590B052
:1036E00002AF786039604FF0FF337B6300233B61AA
:1036F00000237B610023BB613B683B610023FB62CD
:1037000000233B623B6AFB617B685B6807F11C023C
:10371000BA627B62BB6A7A6A5A6022F0FFFB024699
:10372000BB6A1A607B681B6A002B00F0A8807B686C
:103730001C697B689B681D467868FFF709FA034699
:103740009AB207F11003019301230093134600225C
:103750002946204601F0A2F8F862FB6A002B40F3EC
:1037600090807B68D3F8C8301B68184611F098FE2B
:1037700007F11C031A46F96A7868FFF701FA7863C3
:103780007B6B002B07D07B68D3F8C8301B681846CA
:1037900011F094FE76E007F11C031A460B217868BD
:1037A000FFF7CAFD78637B68D3F8C8301B681846FA
:1037B00011F084FE7B6B0B2B5DD17B6859697B68B4
:1037C000DB681A4607F10E03184601F0DBF80346E2
:1037D000012B57D100237B6300233B6347E07968CB
:1037E0003A6B13469B0013449B000B4424331B6825
:1037F0001946386844F042FE0346002B34D17968FC
:103800003A6B13469B0013449B000B4428331B78F0
:10381000002B0BD079683A6B13469B0013449B0036
:103820000B4424331B68184644F0C0FA79683A6B9D
:1038300013469B0013449B000B44243300221A6060
:1038400079683A6B13469B0013449B000B44283362
:1038500000221A7079683A6B13469B0013449B0050
:103860000B442C3300221A603B6B01333B633B6BF0
:10387000072BB4DD06E04FF0FF337B6302E000BFAF
:1038800000E000BF7B6B18463837BD46B0BD00BFB7
:10389000F0B59BB008AF78613961FA604FF0FF3343
:1038A0007B6400237B620023BB620023FB623B69D5
:1038B0007B6200233B6400237B637B6B3B637B6900
:1038C0005B6807F13002FA63BB63FB6BBA6B5A604B
:1038D00022F024FB0246FB6B1A607B691B6A002BFB
:1038E00000F0A680FB681B68012B03D0FB681B68F7
:1038F000022B06D17869FFF72BF903469AB2FB68D1
:10390000DA807B691B69BB607B699B689E46FB68AC
:103910001A687A60FB6893F90430DDB2FB68DE88D0
:10392000FB689B68FA68D2680692059302AC07F1BF
:10393000240393E8070084E80700019600957B685C
:1039400000227146B86800F0A3FD38643B6C002B80
:1039500070DD07F130031A46396C7869FFF710F90A
:1039600078647B6C002B67D1FB681B68002B06D04A
:103970007B69D3F8C8301B68184611F091FDFB68CD
:103980001B68012B22D107F130031A460421786904
:10399000FFF7D2FC0346042B14D17B695C697B6979
:1039A000DB6807F1220207F1210107F120000093F3
:1039B000234600F0F3FA0346012B2DD04FF0FF33DE
:1039C0007B6429E04FF0FF337B6425E0FB681B68D4
:1039D000022B21D107F130031A4607217869FFF73E
:1039E000ABFC0346072B14D17B695C697B69DB6800
:1039F00007F11E0207F11D0107F11C000093234689
:103A000000F0CCFA0346012B06D04FF0FF337B6465
:103A100002E04FF0FF337B64FB681B68002B0CD087
:103A20007B69D3F8C8301B68184611F047FD04E0E5
:103A300000BF02E000BF00E000BF7B6C18464C37BF
:103A4000BD46F0BD80B588B000AF78604FF0FF3361
:103A5000FB617B681A697B689B681946104600F019
:103A60000BFAB8610023FB60FB68BB607B685B6896
:103A700007F108027A613B617B693A695A6022F07A
:103A80004DFA02467B691A60BB69002B07DD07F11E
:103A900008031A46B9697868FFF772F8F8617B681D
:103AA00000221A62FB6918462037BD4680BD00BF60
:103AB00090B585B000AF78600023FB607B681B7A0F
:103AC000032B02D10C23FB6005E07B681B7A042BDF
:103AD00001D10A23FB607B680C3393E8070000F0F8
:103AE00065FC03460233FA681344FB607B68DB7EA7
:103AF000002B13D07B68243393E8070000F056FCBA
:103B000003469C1C7B68303393E8070000F04EFCB2
:103B1000034623440233FA681344FB607B681B6C42
:103B2000002B03D17B689B6C002B0AD07B68403351
:103B300093E8070000F03AFC03460233FA681344A6
:103B4000FB607B68DB6C002B03D17B685B6D002B1B
:103B50000AD07B684C3393E8070000F027FC03464B
:103B60000233FA681344FB60FB6818461437BD46FD
:103B700090BD00BF80B58AB000AFF860B9607A60D0
:103B8000FB68FB6100233B7600237B6100233B62E3
:103B90004FF0FF337B627868FFF78AFF3862386A3C
:103BA00000F0B6FA0246BB689A4203DD6FF00103EB
:103BB0007B62C6E000233B763B7E012262F3071363
:103BC0003B763B7E5AB207F11C031146184600F0C3
:103BD0002DFBFB69396A184600F02CFA0246FB6996
:103BE0001344FB617B681B7A042B0CD107F11C0387
:103BF0005649184600F05AFB07F11C0304211846E9
:103C000000F014FB0BE007F11C035149184600F0CB
:103C10004DFB07F11C030321184600F007FB0023AE
:103C20003B757B689B7E03F00103DAB23B7D62F358
:103C300041033B757B68DB7E002B14BF012300230F
:103C4000DAB23B7D62F382033B753B7D03F00403F4
:103C5000DBB2002B14D07B6893F93D30DBB203F06C
:103C60000303DAB23B7D62F3C4033B757B6893F8D0
:103C70003C3003F00103DAB23B7D62F345133B7540
:103C80007B681B6C002B03D17B689B6C002B03D0E3
:103C90003B7D43F080033B757B68DB6C002B03D1DD
:103CA0007B685B6D002B03D03B7D43F040033B758D
:103CB0003B7D5AB207F11C031146184600F0B6FAD4
:103CC0007B681B8B1A4607F11C031146184600F04F
:103CD000C1FA7B6807F11C000C330ECB00F006FB29
:103CE0007B68DB7E002B0DD07B6807F11C00243342
:103CF0000ECB00F0FBFA7B6807F11C0030330ECBD3
:103D000000F0F4FA3B7D23F07F03DBB2002B06D0FA
:103D10007B6807F11C0040330ECB00F0E7FA3B7DD7
:103D200003F04003DBB2002B06D07B6807F11C00D8
:103D30004C330ECB00F0DAFAFB691A46FB68D31A53
:103D40007B627B6A18462837BD4680BD0CD60508C5
:103D500014D6050880B58AB000AFF860B9607A6003
:103D60003B6000233B777B68BB6100233B62002301
:103D70007B6200233B6107F11803184600F042FA0A
:103D80000346DBB23B773B7F23F00F03DBB2202BF4
:103D90002FD1BB6907F114021146184600F002FA50
:103DA00078627A6ABB691344BB61BB697A69134460
:103DB0003B623B6ABA699B1A012B1CDD07F11803B1
:103DC000184600F01FFA0346DBB23B743B7CC3F39A
:103DD000C013DBB21A46FB681A7007F118031846C5
:103DE00000F010FA0346DAB2BB681A7001237B6256
:103DF00002E000BF00E000BF7B6A18462837BD46DE
:103E000080BD00BF80B588B000AFF860B9601346D0
:103E1000FB7100233B764FF0FF33FB61FB687B6156
:103E2000BB68012B03DC6FF00103FB611FE0002383
:103E30003B76FB7903F00F03DAB23B7E62F30713A4
:103E40003B763B7E5AB207F114031146184600F048
:103E5000EDF97B690021184600F0ECF802467B6919
:103E600013447B617B691A46FB68D31AFB61FB69CB
:103E700018462037BD4680BD80B582B000AF78605F
:103E800039600E2239687868FFF7BCFF0346184690
:103E90000837BD4680BD00BF80B582B000AF7860F6
:103EA00039600C2239687868FFF7ACFF0346184682
:103EB0000837BD4680BD00BF80B58AB000AFF8604E
:103EC000B9607A603B6000233B77FB6BBB610023EA
:103ED0003B6200237B6200237B6107F118031846D5
:103EE00000F090F90346DBB23B773B7F23F00F03F2
:103EF000DBB2302B4BD13B7FC3F3C003DBB21A469E
:103F0000FB681A703B7FC3F34103DBB21A46BB6800
:103F10001A603B7FC3F30003DBB21A467B681A705A
:103F2000BB6907F114021146184600F03BF97862AC
:103F30007A6ABB691344BB61BB697A6913443B620B
:103F400007F118033A6A1946386B00F0FDF9034689
:103F5000002B1DD03B6ABA699B1A002B18DBBB688B
:103F60001B68002B08DD07F11803184600F030F934
:103F700003469AB23B681A803B6ABA699A1ABB6BCD
:103F80001A60BA697B6B1A6001237B6200E000BF94
:103F90007B6A18462837BD4680BD00BF80B58AB011
:103FA00000AFF860B9607A603B6000233B773B6804
:103FB000BB6100233B6200237B6207F118031846B4
:103FC00000F020F90346DBB23B773B7FC3F3C0032D
:103FD000DBB21A46BB681A703B7FC3F30313DBB234
:103FE0001A46FB681A70BB6907F11402114618469D
:103FF00000F0D8F878627A6ABB691344BB61BB6988
:104000007A6913443B623B6ABA699B1A012B0BDD48
:1040100007F11803184600F0DBF803469AB27B68F4
:104020001A8001237B6200E000BF7B6A18462837B4
:10403000BD4680BD80B485B000AF78603960002394
:10404000FB603A68134B1340002B03DA013B63F02B
:104050007F030133FB723B68002B00DA7F33DB11F7
:104060003B603B68002B03DDFB7A63F07F03FB7250
:10407000FB685A1CFA601A467B681344FA7A1A7075
:104080003B68002BDDDCFB6818461437BD4680BC5E
:10409000704700BF7F00008080B586B000AF7860B9
:1040A000396001237B6100233B613B6800221A6079
:1040B0004FF0FF33FB603B6901333B613B69042BED
:1040C00003DD4FF0FF33FB601DE007F10B027B685F
:1040D000012110469847F860FB68012B12D13B681C
:1040E0001A68FB7A03F07F03796901FB03F31A4432
:1040F0003B681A607B69DB017B61FB7A5BB2002B5A
:10410000D6DB00E000BF3B6918461837BD4680BDCE
:1041100080B483B000AF78607B6801337B607B68DC
:104120007F2B03DC7B6801337B6012E07B68B3F597
:10413000804F03DA7B6802337B600AE07B68084AC1
:10414000934203DC7B6803337B6002E07B680433CB
:104150007B607B6818460C37BD4680BC704700BF4B
:10416000FEFF1F0080B485B000AF78603960002387
:10417000FB600AE00A4B1B685A1C09490A601A785E
:104180007B681A70FB680133FB60FA683B689A42EF
:10419000F0DB3B6818461437BD4680BC704700BF53
:1041A000C405002080B582B000AF78603960064A4F
:1041B0007B68136039680548FFF76EFF03461846B1
:1041C0000837BD4680BD00BFC40500206541010819
:1041D00080B485B000AF78607B681B68FB60FB68CB
:1041E0001B781B02FA68013212781344BB607B68AB
:1041F0001B689A1C7B681A60BB6818461437BD465A
:1042000080BC704780B485B000AF78607B681B6865
:104210001B78FB737B681B685A1C7B681A6097F9D4
:104220000F3018461437BD4680BC704780B483B049
:1042300000AF78600B46FB707B681B68FA781A70D9
:104240007B681B685A1C7B681A6000BF0C37BD4630
:1042500080BC704780B483B000AF786039607B6801
:104260001A683B68002B00DAFF331B12DBB21370B5
:104270007B681B685A1C7B681A607B681A683968FF
:10428000094B0B40002B03DA013B63F0FF030133C2
:10429000DBB213707B681B685A1C7B681A6000BF16
:1042A0000C37BD4680BC7047FF00008080B584B0ED
:1042B00000AF78603960386844F008F90346FB6065
:1042C000F9687868FFF7C6FF7B681B68FA68396889
:1042D000184644F063F87B681A68FB681A447B68E8
:1042E0001A6000BF1037BD4680BD00BF80B584B0E6
:1042F00000AFF860384680E80E007B68002B12DDC6
:104300007B681946F868FFF7A5FFFB681B68B9686A
:104310007A68184644F042F8FB681B687A681A44C9
:10432000FB681A600CE03B68002B05D03B6819461F
:10433000F868FFF7BBFF03E00021F868FFF78AFF8A
:1043400000BF1037BD4680BD80B586B000AFF860B5
:10435000B9607A6000237B617B68BA6812689B1A37
:10436000012B1ADDB868FFF733FF0246FB685A607D
:10437000BB681B68FA6852681A447B689A420CD87A
:10438000BB681A68FB689A60BB681B68FA68526869
:104390001A44BB681A6001237B61FB6800221A6023
:1043A0007B6918461837BD4680BD00BF80B586B012
:1043B00000AF3B1D83E8070000237B617B68002B77
:1043C00006D07B68184644F081F803467B6101E023
:1043D000BB687B617B6918461837BD4680BD00BF4E
:1043E00080B586B000AF7860396000237B61002320
:1043F000FB607B681B68002B0AD07B681B683B61F5
:104400007B681B68184644F061F803467B6105E051
:104410007B689B683B617B685B687B61386844F0C4
:1044200055F80346FB607A69FB689A420AD17B69BA
:104430001A463968386943F0F5FD0346002B01D16F
:10444000012300E0002318461837BD4680BD00BF99
:1044500080B586B000AFF860384680E80E000023D3
:104460007B613B4693E80700FFF7A0FF03469A1CD9
:104470003B6A13447A6913447B61FB68002B02DDBD
:104480007B6902337B617B6918461837BD4680BD66
:1044900080B58AB002AFF860B9603B601346FB712B
:1044A000FB687B6100233B740023BB610023FB613D
:1044B0003B6C009307F130030ECB3868FFF7C8FF61
:1044C000B861B869FFF724FE0246BB689A4203DD73
:1044D0006FF00103FB614FE03B7C032262F30713A3
:1044E0003B74FB7903F00103DAB23B7C62F3C30354
:1044F0003B743B68DBB203F00303DAB23B7C62F34C
:1045000042033B7497F8283003F00103DAB23B7C96
:1045100062F300033B743B7C5AB207F1140311466B
:104520001846FFF783FE7B69B9691846FFF782FDDD
:1045300002467B6913447B6107F1140007F13003E5
:104540000ECBFFF7D3FE3B68002B06DDBA8D07F1DB
:10455000140311461846FFF77DFE7B693A6CF96B30
:10456000184643F01BFF7A693B6C13447B617B69FF
:104570001A46FB68D31AFB61FB6918462037BD4613
:1045800080BD00BF80B588B000AFF860B96011464B
:104590001A460B46FB711346BB7100233B76002382
:1045A000FB61FB687B61BB68032B03DC6FF00103DD
:1045B000FB6139E0FB7903F00F03DAB23B7E62F373
:1045C00007133B76BB7903F00103DAB23B7E62F35B
:1045D000C3033B76FB79062B0CBF01230023DBB220
:1045E00003F00303DAB23B7E62F342033B763B7E89
:1045F0005AB207F1140311461846FFF717FE7B69FC
:1046000002211846FFF716FD02467B6913447B61C1
:104610003A8D07F1140311461846FFF71BFE7B691C
:104620001A46FB68D31AFB61FB6918462037BD4662
:1046300080BD00BF80B584B000AF786039600223D0
:10464000BB600023FB6013E0FA6813465B00134471
:104650009B001A463B68134493E80700FFF7A6FE49
:1046600003460333BA681344BB60FB680133FB6045
:10467000FA687B689A42E7DBBB6818461037BD468C
:1046800080BD00BF80B58AB000AFF860B960114648
:104690001A460B46FB711346BB80FB68BB610023C7
:1046A0003B750023FB6100237B6200233B62796B37
:1046B000386BFFF7BFFFF861F869FFF729FD024685
:1046C000BB689A4203DD6FF001037B6253E0002375
:1046D0003B753B7D082262F307133B75FB7903F0C2
:1046E0000103DAB23B7D62F3C3033B753B7D0122DC
:1046F00062F342033B753B7D5AB207F11803114642
:104700001846FFF793FDBB69F9691846FFF792FC5D
:104710000246BB691344BB61BA8807F1180311460E
:104720001846FFF797FD00233B621BE03A6A1346E9
:104730005B0013449B001A467B6B134407F118007F
:104740000ECBFFF7D3FD3B6A9B00BA6B13441B688B
:104750005AB207F1180311461846FFF767FD3B6A86
:1047600001333B623A6A3B6B9A42DFDBBB691A4614
:10477000FB68D31A7B627B6A18462837BD4680BD2A
:1047800090B58BB000AFF860B9607A603B600023F1
:104790003B77BB6BBB6100233B6200237B6207F16D
:1047A00018031846FFF72EFD0346DBB23B773B7F2D
:1047B00023F00F03DBB2902B40D1BB6907F1140249
:1047C00011461846FFF7EEFC78627A6ABB6913441B
:1047D000BB61BB697A6913443B623B6ABA699B1A45
:1047E000012B2DDD07F118031846FFF7F1FC0346F6
:1047F0009AB2FB681A807B6800221A6017E07B6817
:104800001A68BB689A4203DD4FF0FF337B6218E001
:104810007B681B68591C7A6811609B003A68D41841
:1048200007F118031846FFF7EDFC03462360BA6949
:104830003B6A9A42E3D301237B6202E000BF00E0BF
:1048400000BF7B6A18462C37BD4690BD80B584B04A
:1048500000AF786039600223BB600023FB6013E087
:10486000FA6813465B0013449B001A463B681344E6
:1048700093E80700FFF79AFD03460233BA68134432
:10488000BB60FB680133FB60FA687B689A42E7DB38
:10489000BB6818461037BD4680BD00BF80B58AB0E2
:1048A00000AFF860B96011461A460B46FB7113461B
:1048B000BB80FB68BB6100233B750023FB614FF0AD
:1048C000FF337B6200233B62796B386BFFF7BEFFDF
:1048D000F861F869FFF71CFC0246BB689A4203DDE9
:1048E0006FF001037B6247E000233B753B7D0A22AA
:1048F00062F307133B75FB7903F00103DAB23B7DEA
:1049000062F3C3033B753B7D012262F342033B75B7
:104910003B7D5AB207F1180311461846FFF786FC93
:10492000BB69F9691846FFF785FB0246BB6913446A
:10493000BB61BA8807F1180311461846FFF78AFCD5
:1049400000233B620FE03A6A13465B0013449B006E
:104950001A467B6B134407F118000ECBFFF7C6FC19
:104960003B6A01333B623A6A3B6B9A42EBDBBB69C1
:104970001A46FB68D31A7B627B6A18462837BD4605
:1049800080BD00BF80B588B002AFF860B9607A60C2
:104990000023FB740023BB7400237B6107F1120129
:1049A00007F113007B680093BB68FA68FFF7F6FA1B
:1049B0007861FB7C0B2B01D101237B617B6918465D
:1049C0001837BD4680BD00BF80B582B000AF7860AB
:1049D000396014220021786843F0FEFC7B683A6855
:1049E0001A60002318460837BD4680BD80B586B0E2
:1049F00000AFF860B9601346FB80FB68002B03D062
:104A0000FB681B68002B02D141F6613336E0FB687E
:104A10001B68DB6893F88A39002B01D109232DE04C
:104A2000FB685B68002B28D0BB68002B11D0FB68AB
:104A30005A68FB689B681946104611F007F8FB6836
:104A40001868FB685B68FA88B96811F0E1F90346F9
:104A5000FB82BB68002B02D0FB8A002B04D0FB68D2
:104A60005B68184610F0D8FFFB6800229A60FB686C
:104A700000229A81FB6800225A60002318461837EA
:104A8000BD4680BD80B582B000AF786000220021B5
:104A90007868FFF7ABFF7B681B69002B04D07B684D
:104AA0001B69184610F0B8FF7B6800225A607B68CB
:104AB00000221A617B6800221A600023184608371A
:104AC000BD4680BD80B58AB002AFF860B9603B607A
:104AD0001346FB80FB68002B03D0FB681B68002B90
:104AE00002D141F661336DE0FB681B68DB6893F827
:104AF0008A39002B01D1092364E0BB6A002B5DD009
:104B0000BB6A00221A8059E000237B6100237B826C
:104B1000FB681B69002B14D1FB681868FB68103315
:104B20003A68194611F0AAF90346BB83BB8B002BE8
:104B300007D0BB6A1B88002B01D0002342E0BB8B4F
:104B400040E0FB68186907F1120107F1140207F150
:104B50001A0300930B46002110F0ECFF7A8AFB88C1
:104B6000934228BF1346FB837B69FA8B1946B868CA
:104B700043F014FCFB8BBA681344BB60BB6A1A8811
:104B8000FB8B13449AB2BB6A1A80FA88FB8BD31A48
:104B9000FB807B8AFA8B9A4208D1FB681B69184616
:104BA00010F03AFFFB6800221A6107E0FB68186901
:104BB0007A69FB8B1344194610F072FFFB88002BB7
:104BC000A2D1002318462037BD4680BD80B58AB0EB
:104BD00002AFF860B9607A60FB68002B03D0FB6815
:104BE0001B68002B02D141F6613333E0FB681B6880
:104BF000DB6893F88A39002B01D109232AE0FB688E
:104C00001B69002B0ED1FB681868FB6810337A68AB
:104C1000194611F033F90346FB83FB8B002B01D0BF
:104C2000FB8B17E00023BB610023FB82FB68186944
:104C300007F1160107F1180207F11C0300930B4658
:104C4000002110F077FFBB6901221946B86843F0D4
:104C5000A5FB002318462037BD4680BD90B589B01E
:104C600002AFF860B9607A603B60FB68002B03D04C
:104C7000FB681B68002B02D141F6613382E0FB68C0
:104C80001B68DB6893F88A39002B77D1092379E018
:104C9000FB685B68002B1DD1FB6818687B684FF6CA
:104CA000FE72934202D87B6899B201E04FF6FF7121
:104CB000FB681A1DFB6803F10804FB680C330093C2
:104CC000234610F02BFE03467B827B8A002B01D00B
:104CD0007B8A57E0FB689B891A467B689A4202D917
:104CE0007B689BB201E0FB689B89FB82FB689B6849
:104CF000FA8AB968184643F051FBFB8ABA68134434
:104D0000BB60FB689A68FB8A1A44FB689A60FB6880
:104D10009A89FB8AD31A9AB2FB689A81FB8A7A68CD
:104D2000D31A7B60FB689B89002B27D1FB685A68EC
:104D3000FB689B681946104610F088FEFB681868EF
:104D4000FB685B683A8D396811F062F80346BB82F4
:104D5000FB6800229A60FB6800229A81BB8A002BC4
:104D600009D0FB685B68184610F056FEFB6800220D
:104D70005A60BB8A06E0FB6800225A607B68002B01
:104D800086D1002318461C37BD4690BD80B483B041
:104D900000AF03463960FB7197F90730002B0BDA3F
:104DA0000D49FB7903F00F03043B3A68D2B21201BC
:104DB000D2B20B441A7609E0084997F907303A68ED
:104DC000D2B21201D2B20B4483F8002300BF0C37D9
:104DD000BD4680BC704700BF00ED00E000E100E090
:104DE00080B500AF01210320FFF7D0FF0221312061
:104DF000FFF7CCFF03213B20FFF7C8FF04214D2024
:104E0000FFF7C4FF04214C20FFF7C0FF00BF80BDA7
:104E100080B500AF0321064800F0ECFD044800F027
:104E200071FE0021034800F0E5FD00BF80BD00BF1A
:104E300094D60508B4D6050880B400AFBFF34F8FF1
:104E40000549054BDB6803F4E062044B1343CB6078
:104E5000BFF34F8FFEE700BF00ED00E00400FA054E
:104E600080B500AFFDF776FC1E4B1B68002118468D
:104E700001F054FF1C4B1B680021184601F04EFF47
:104E80001A4B1B680021184601F048FF01F05AFE3A
:104E90000EF08EFE06F0E0FE00221549154841F0A6
:104EA000C5FB03F063F81449124841F0F5FB1349C0
:104EB000104840F087F802F0ABFB02F05FFE06F00E
:104EC0005BFF0346002B07D00D490A4841F0E4FB85
:104ED0000C49084840F07CFA064841F021FC0023C8
:104EE000184680BD44000020480000204C000020EF
:104EF00050000020C805002070030020A4000020FE
:104F0000A80300205C00002080B582B000AF78606C
:104F10007B68002B02D078681FF040FD044B054AE7
:104F20001A60FFF789FF002318460837BD4680BD89
:104F3000FCBF01202BFDDFB280B582B000AF7860EE
:104F40007B68002B02D078681FF028FDFFF774FF04
:104F5000002318460837BD4680BD00BF80B582B02B
:104F600000AF78607B68002B02D078681FF016FDD8
:104F700007F0EAF95821502001F046F9FDF7D2FB7D
:104F8000FFF75AFF002318460837BD4680BD00BF13
:104F900080B582B000AF78607B68002B02D0786863
:104FA0001FF0FCFCFDF7BEFBFFF746FF0023184691
:104FB0000837BD4680BD00BF80B485B000AFF86043
:104FC000B9607A603B60FB685A68BB689A4202D25B
:104FD00040F6A1731AE0FB681B78002B15D1FB6823
:104FE0009A68BB681A44BB691A60FB685A68BB6858
:104FF000D21A3B681A603B681A687B689A4228BFDD
:105000001A463B681A60002300E00723184614374D
:10501000BD4680BC704700BF80B582B000AF7860ED
:1050200039607B681B78002B02D0386842F0BEFEE6
:10503000002318460837BD4680BD00BF80B582B04A
:1050400000AF786039607B68002B02D03B68002B92
:1050500001D105233DE04FF4C6723968786843F00A
:105060009DF93B681A687B681A603B685A687B68E0
:105070005A607B6803F118003B68183350221946C8
:1050800043F08CF97B6803F168003B6868334FF4A8
:105090009072194643F082F93B68D3F888217B6807
:1050A000C3F888217B680D4A9A607B6800221A73D6
:1050B0003B6893F90D207B685A737B680022DA7392
:1050C0007B6800225A613B681B695A1C7B681A6125
:1050D000002318460837BD4680BD00BF4252434DED
:1050E00080B598B000AFF860B9603B601346FB71C3
:1050F000FB687B653B68BB6537E0BA687B6DD31A9C
:10510000FB65FB6D402B01D94023FB65796D07F1F1
:105110001003FA6D184643F041F9FB79012B18D1C1
:105120007A6DFB68D31A132B13D87A6DFB68D21AE9
:10513000FB6D1344182B0CD97A6DFB68D31A14330A
:1051400007F1100213443B653B6D00221A600023F7
:10515000FB7107F11003BA6DF96D18460CF056FC9F
:10516000B8657A6DFB6D13447B657A6DBB689A42B6
:10517000C3D3BB6D18466037BD4680BD80B584B0D3
:1051800000AF786039607B6814331B68FB604FF0B8
:10519000FF33012239687868FFF7A2FFB860BA6868
:1051A000FB689A4201D1012300E000231846103722
:1051B000BD4680BD80B5ADF5976D00AF0246FB1DC5
:1051C0001A7007F10C0318464FF4C6731A460021F3
:1051D00043F002F907F10B0300221A7007F5497337
:1051E0004FF4C6727949184643F0D8F807F5CC73E6
:1051F0004FF4C6727649184643F0D0F8002387F87A
:10520000B734002387F8B63407F5497393F90C30A7
:10521000002B1DD107F549739B686E4A934217D145
:1052200007F5497393F90F30012B04D107F5497342
:105230005B69002B09D06548644A674B13441946E3
:10524000FFF79CFF0346012B02D1012387F8B734F7
:1052500007F5CC7393F90C30002B12D107F5CC7302
:105260009B685C4A93420CD15948594A5B4B1344A2
:105270001946FFF783FF0346012B02D1012387F86C
:10528000B63497F8B734012B28D197F8B634012BF0
:1052900024D107F5497393F90F30012B03D1002373
:1052A00087F8B6341AE007F549731A6907F5CC7325
:1052B0001B699A4203D9002387F8B6340EE007F53C
:1052C00049731A6907F5CC731B699A4203D200230C
:1052D00087F8B73402E0002387F8B63497F8B7347C
:1052E000012B07D1FB1D1B783D4A52F82330374A6A
:1052F000134466E097F8B634012B07D1FB1D1B78E9
:10530000374A52F82330324A13445AE0354B1B686F
:1053100003F00103002B00D000BE2C4B184600F018
:10532000A5F807F10C034FF4C6720021184643F0AC
:1053300053F807F10C0301225A7307F10C03254AB5
:105340009A6007F10C0300221A7307F10C03002284
:105350005A6107F10C034FF0FF324FF4C671184643
:105360000CF054FBC7F8B004184B03F5C670174A8D
:10537000194BD118D7F8B0340022FFF7B1FEC7F8A7
:10538000B00407F10C03D7F8B0245A6107F10C03FD
:1053900001221A730D4807F10C034FF4C672194627
:1053A00000F05CFF094B0C3307F10B01012218469A
:1053B00000F054FFFB1D1B78094A52F82330034AC2
:1053C0001344184607F59767BD4680BD0080000866
:1053D00000C000084252434D004000000040000061
:1053E00008D80508F0ED00E080B586B000AFF860A1
:1053F0007A603B600B46FB72FB7A1846FFF7DAFED9
:1054000078617B69B3F1FF3F01D104230EE07A6933
:105410007B6813443A681946F86842F0BFFF0246B9
:10542000FB689A4201D0042300E000231846183795
:10543000BD4680BD80B588B000AFF860B9607A60C5
:10544000FB68FB61BB68BB61BB697A681946F86998
:1054500000F004FF03467B617B69002B01D004232D
:1054600000E0002318462037BD4680BD80B584B0DB
:1054700000AF78607B6823F07843DB0AFB810B4A3E
:105480007B68134423F07843DB0A9BB2013BBB816A
:10549000BA89FB891146184600F0B6FE03467B81A7
:1054A0007B8918461037BD4680BD00BF0040000014
:1054B00080B584B000AF786039607B68002B02D083
:1054C0003B68002B01D1042321E00420FFF772FE8A
:1054D000F860FB68B3F1FF3F01D1042317E0FB68DC
:1054E0000D4A934201D10D4A00E00B4A7B681A60D5
:1054F0007B681B681846FFF7B9FFF9683868FFF743
:105500009DFD0346002B01D0042300E00023184634
:105510001037BD4680BD00BF0080000800C00008F5
:1055200080B586B000AF786039600023FB7300233C
:10553000FB823B6800221A733B6800225A614FF0DD
:10554000FF324FF4C67138680CF060FA38617B683E
:1055500003F5C670204A7B68D1183B690022FFF72B
:10556000BFFD38613B683A695A613B6801221A7392
:105570004FF4C6723968786800F070FE0346002B5D
:1055800001D00423FB82FB8A002B0CD17B680C33F7
:1055900007F10F010122184600F060FE0346002BC0
:1055A00001D00423FB82FB8A002B10D10B4A7B68BD
:1055B00093420CD0094B0F3307F10F01012218461B
:1055C00000F04CFE0346002B01D00423FB82FB8A33
:1055D00018461837BD4680BD004000000080000816
:1055E00090B5EDB000AF07F10C0420600846391DFE
:1055F0000A603A46136007F10B0302461A7007F17E
:105600000B031B784F4A52F823203B1D1B681344A1
:10561000C7F8AC31D7F8AC31B3F5C67F07D33B46FA
:10562000D7F8AC211B681344474A934201D904239D
:1056300083E00420FFF7BEFD0346C7F8A831D7F882
:10564000A831B3F1FF3F01D1042376E007F118023E
:1056500007F1140311461846FFF72AFF0346002BF3
:1056600001D0042369E0D7F8AC31A3F5C673C7F8BD
:10567000A431D7F8A431002B12D007F114031B6812
:1056800003F5C670D7F8A83103F5C673D7F8A4217F
:105690001946FFF7CFFE0346002B01D004234CE050
:1056A00007F114031A68D7F8AC31D0183A4607F15D
:1056B0000C031268196800F0D1FD0346002B01D0DD
:1056C00004233AE020493B46D7F8AC211B68134439
:1056D000CB1AC7F8A431D7F8A431002B1AD007F1A0
:1056E00014031A68D7F8AC311A443B461B68D0182B
:1056F000D7F8A821D7F8AC311A443B461B681344AD
:10570000D7F8A4211946FFF795FE0346002B01D0D8
:10571000042312E007F1180301225A7307F114035E
:105720001B6807F1180211461846FFF7F9FE0346F9
:10573000002B01D0042300E00023184607F5DA7798
:10574000BD4690BD08D805080040000080B500AFF8
:1057500000F052FD0346012B06D1054B1B6803F0F8
:105760000103002B00D000BE0023184680BD00BFFF
:10577000F0ED00E080B582B000AF03460A46FB7151
:105780001346BB71FB79DB00054A1344BA79114615
:10579000184600F02FF9034618460837BD4680BD6D
:1057A0001CD6050880B582B000AF0346FB71FB79BB
:1057B000DB00054A1344184600F082F903461846F8
:1057C0000837BD4680BD00BF1CD6050880B582B035
:1057D00000AF0346FB71FB79DB00054A1344184612
:1057E00000F090F9034618460837BD4680BD00BF5B
:1057F0001CD6050880B582B000AF0346FB71FB796B
:10580000DB00054A1344184600F0C4F90346184665
:105810000837BD4680BD00BF1CD6050880B586B0E0
:1058200000AF78607B681B79FF2B05D07B681B7904
:10583000DB00104A134400E000237B617B689B6817
:10584000FB607B681B7B3B747B685B7B7B747B684A
:105850001B684C2202FB03F3074A134407F10C02B6
:105860001146184600F0B4FA034618461837BD46EC
:1058700080BD00BF1CD605085CD7050880B588B080
:1058800000AFF860B9601346FB80FB681B79FF2B03
:1058900005D0FB681B79DB000F4A134400E00023AE
:1058A000FB61FB689B687B61FB681B7B3B76FB684D
:1058B0005B7B7B76FB681B684C2202FB03F3074A89
:1058C0009818FB8807F11401BA6800F05DFB0346E5
:1058D00018462037BD4680BD1CD605085CD7050894
:1058E00080B500AF00F042F80321084800F082F8CC
:1058F000012000F00FF80321054800F07BF800209C
:1059000000F01EF80023184680BD00BFB0D7050880
:10591000A8D7050880B582B000AF0346FB71FB79BC
:10592000012B03D1054800F0EDF802E0034800F038
:10593000C7F800BF0837BD4680BD00BFB0D7050817
:1059400080B582B000AF0346FB71FB79012B03D118
:10595000054800F0D7F802E0034800F0B1F800BFB6
:105960000837BD4680BD00BFA8D7050880B500AF89
:105970000321044800F03EF8024800F0C3F8002379
:10598000184680BDB8D7050880B483B000AF034681
:105990003960FB71FB79002B04D1074B5A683B68D7
:1059A0001A6003E03B6840F2BF321A6000231846D9
:1059B0000C37BD4680BC7047F0AD050880B483B09D
:1059C00000AF03463960FB71FB79002B04D1074B14
:1059D0009A683B681A6002E03B68054A1A60002337
:1059E00018460C37BD4680BC704700BFF0AD0508B7
:1059F00000AE050880B586B000AF78600B46FB703E
:105A00007B68002B06D12B4B1B6803F00103002B96
:105A100000D000BE00F08AF97B681B68184600F0D1
:105A200025F90346FB752449234B1A6BFB7D23485C
:105A300050F8233013430B6302237B74FB78002B55
:105A400007D0FB78012B04D0FB78022B01D0012377
:105A500000E00023DBB23B74FB78032B14BF01236F
:105A60000023DBB2BB74FB78002B02D0FB78052B44
:105A700002D10123FB7407E0FB78012B02D1022342
:105A8000FB7401E00023FB747B681B791A46012339
:105A90009340FB607B681B6807F10C0211461846B7
:105AA0003CF03EFA00F04AF9002318461837BD468C
:105AB00080BD00BFF0ED00E0003802402CD80508A2
:105AC00080B582B000AF78607B68002B06D10C4BAC
:105AD0001B6803F00103002B00D000BE00F026F984
:105AE0007B681B687A681279114601228A4092B25B
:105AF0001A8300F023F9002318460837BD4680BDFD
:105B0000F0ED00E080B582B000AF78607B68002BDC
:105B100006D10C4B1B6803F00103002B00D000BE24
:105B200000F004F97B681B687A681279114601223B
:105B30008A4092B25A8300F001F9002318460837D0
:105B4000BD4680BDF0ED00E080B582B000AF78606A
