:020000040801F1
:1000000044F40020813C0508E5050108310601089B
:10001000E5050108E5050108E50501080000000007
:100020000000000000000000000000002D75030823
:10003000E5050108000000002D750308FD05010815
:10004000E5050108E5050108E5050108E5050108E4
:10005000E5050108E5050108E5050108E5050108D4
:10006000E5050108E5050108E5050108E5050108C4
:10007000E5050108E5050108E5050108E5050108B4
:10008000E5050108E5050108E5050108E5050108A4
:10009000E5050108E5050108E5050108E505010894
:1000A000E5050108E5050108E5050108E505010884
:1000B000E5050108E5050108E5050108E505010874
:1000C000E5050108E5050108E5050108E505010864
:1000D000E5050108E5050108E5050108E505010854
:1000E000E5050108E5050108E5050108E505010844
:1000F000E5050108E5050108E5050108E505010834
:10010000E505010865040108E5050108E5050108A4
:10011000E5050108E5050108E5050108E505010813
:10012000E5050108E5050108E505010841050108A7
:10013000E5050108E5050108E5050108E5050108F3
:10014000E5050108E5050108E5050108E5050108E3
:10015000E5050108E5050108E5050108E5050108D3
:10016000E5050108E5050108E5050108E5050108C3
:100170003904010801040108E5050108E505010845
:04018000E505010888
:10020000DAFAAFAD00000600000006004665617432
:1002100068657200000000005354333246323035B6
:100220005247590053657020313420323031360046
:1002300000020503000000000000000000000000B4
:1002400000000000000000000000000000000000AE
:10025000000000000000000000000000000000009E
:10026000000000000000000000000000000000008E
:10027000000000000000000000000000000000007E
:100280005D870108F1870108000000000000000000
:10029000000000000000000000000000000000005E
:1002A000455E03085D5E0308057E0308000000004C
:1002B000000000000000000000000000000000003E
:1002C000000000000000000000000000000000002E
:1002D000000000000000000000000000000000001E
:1002E00099C50108000000000000000000000000A7
:1002F0009DC1010851C3010875C30108A9C20108C5
:1003000000000000000000000000000000000000ED
:1003100000000000000000000000000000000000DD
:10032000C16F01082D7001080571010849710108AC
:1003300005080108E90701080000000000000000AE
:1003400000000000000000000000000000000000AD
:10035000000000000000000000000000000000009D
:10036000000000000000000000000000000000008D
:10037000000000000000000000000000000000007D
:10038000000000000000000000000000000000006D
:10039000000000000000000000000000000000005D
:1003A000000000000000000000000000000000004D
:1003B000000000000000000000000000000000003D
:1003C000000000000000000000000000000000002D
:1003D000000000000000000000000000000000001D
:1003E000000000000000000000000000000000000D
:1003F00000000000000000000000000000000000FD
:1004000000B527F0EDF80DF041F900F005F80DF01A
:1004100073F927F0F5B800BF684620F007018D4654
:1004200089B500AF034843F035FFBD46BDE88940BC
:10043000854670473010002000B527F0D1F80DF048
:1004400025F900F005F80DF057F927F0D9B800BFED
:10045000684620F007018D4681B400AFBD4681BCDF
:100460008546704700B527F0BBF80DF00FF900F096
:1004700005F80DF041F927F0C3B800BF684620F039
:1004800007018D4681B583B000AF254B5B6B7B6068
:100490007A6840F233231340002B0BD0214B01220A
:1004A0001A701F4B4FF0FF329A631F48012127F04B
:1004B000BFFD2FE07B6803F0C003002B1FD0184B5B
:1004C0005B6903F40063002B07D0164B01221A70FE
:1004D0001548012127F0ACFD0EE0144B1B68352BAD
:1004E0000AD1134B1B78012B03D1124B124A1A600D
:1004F00002E0104B114A1A60094BC0229A637B68D4
:1005000003F48003002B05D0054B4FF480029A635F
:100510003EF064FA0C37BD46BDE881408546704721
:10052000002C01402410002004100020281000207E
:1005300025100020586402407154A3083154A308C8
:1005400000B527F04DF80DF0A1F800F005F80DF01A
:10055000D3F827F055B800BF684620F007018D4654
:1005600081B583B000AF0D4B4FF07C629A600C48B0
:10057000012127F05DFD0346FB80FB88002B06D0A0
:10058000084B1B6803F00103002B00D000BE0C37A2
:10059000BD46BDE881408546704700BF006402400B
:1005A00004100020F0ED00E0684620F007018D46C1
:1005B00089B500AF06F0B4FC0346002B0AD0084B07
:1005C0005B6803F07F039B0003F1006303F54023A6
:1005D0001B689847BD46BDE889408546704700BF07
:1005E00000ED00E000B526F0FBFF0DF04FF8FFF73F
:1005F000DBFF0DF081F827F003B800BF00B526F04F
:10060000EFFF0DF043F800F005F80DF075F826F057
:10061000F7BF00BF684620F007018D4689B500AFDF
:100620004AF096FEBD46BDE889408546704700BF4A
:10063000EFF30880EFF30981724643F0B1BB00BFCE
:1006400080B485B000AF786039600023FB8112E090
:100650007B685A68FB89DB0013441A683B689A423E
:1006600006D17B685A68FB89DB0013445B6808E0AD
:10067000FB890133FB817B681B88FA899A42E7D3A7
:10068000002318461437BD465DF8047B704700BF51
:1006900080B584B000AF3B46BB60B86800213FF036
:1006A000BFFE3B78124813491A4649F019F9012355
:1006B000FB7314E0FA7B13465B001344013B0C4AC6
:1006C0001A44FB7B07F110010B4413F8103C104651
:1006D00009491A4649F004F9FB7B0133FB73FB7BA4
:1006E000052BE7D9024B18461037BD4680BD00BF29
:1006F000F803002080CB050888CB050890B587B0AB
:1007000002AF78600A4BFB60FB6808331A68FB682D
:1007100004331C68FB681B6800937868054923460E
:1007200049F0DEF803469BB218461437BD4690BD2B
:10073000107AFF1F90CB050880B400AF034A044B2A
:10074000D31A1846BD465DF8047B704744F4002078
:1007500044F0002080B485B000AF114BBB60114B5A
:100760007B60BB68FB6002E0FB680133FB60FB68F9
:100770001B78AD2B03D1FA687B689A42F4D1FA68F2
:100780007B689A4202D14FF0FF3302E07A68FB683F
:10079000D31A18461437BD465DF8047B704700BF76
:1007A00044F0002044F4002080B485B000AF7860AD
:1007B0007B68DB68FB6002E0FB680433FB60FB687E
:1007C0001B68B3F1EF3F04D17B681A69FB689A425A
:1007D000F2D87B681B691A46FB68D31A184614378F
:1007E000BD465DF8047B704780B400AF034A044BFC
:1007F000D31A1846BD465DF8047B7047F8AF012058
:1008000044F4002080B582B000AF00237B600C4B25
:100810001B683B6007E03B685A687B6813447B6059
:100820003B681B683B603B68002BF4D1FFF7DCFFA3
:1008300002467B68D31A18460837BD4680BD00BF04
:100840000000002080B588B000AFF860B9601146A4
:100850001A460B46FB711346BB80334A07F114035B
:1008600092E80300186004331980BB7DDAB2FB798B
:100870005B00DBB21344DBB2DBB2BB75FB79102249
:1008800092FBF3F3FB760023FB6141E000233B6125
:10089000FA7EFB6993FBF2F102FB01F29B1A002B3B
:1008A0001BD1FB69002B03D02048F96806F092FCAD
:1008B00097F82830002B0AD0FB691A01FB7E92FBC7
:1008C000F3F3F8681A491A4606F0A0FC05E0BB6885
:1008D000F86818491A4606F099FCFB7907F11002EE
:1008E0001046B9681A4649F03BFAFB79BA681344D6
:1008F000BB602020F96806F051FC3B6907F1140247
:10090000F86811461A4606F081FCFB690133FB6169
:10091000BA88FB699A42B9DC0448F96806F05AFCC7
:100920002037BD4680BD00BFC8CB0508B0CB050849
:10093000B4CB0508BCCB050880B584B000AF7860A7
:1009400039607B68BB6007F10803786819460022AC
:1009500049F096F8F860BA687B689A4203D0BB68A1
:100960001B78002B01D0002303E03B68FA681A6073
:10097000012318461037BD4680BD00BF80B584B046
:1009800000AF786039607B68BB6007F10803786866
:100990001946002249F0CCF8F860BA687B689A42A0
:1009A00003D0BB681B78002B01D0002303E03B6819
:1009B000FA681A60012318461037BD4680BD00BF93
:1009C00080B584B000AF7860396007F10C037868B7
:1009D0001946FFF7B1FF034683F00103DBB2002B9A
:1009E00001D000230CE0FB68002B02DBFB68FF2B2F
:1009F00001DD002304E0FB68DAB23B681A700123D2
:100A000018461037BD4680BD80B584B000AF786011
:100A1000396007F10C0378681946FFF78DFF03462C
:100A200083F00103DBB2002B01D000230DE0FB6853
:100A3000002B03DBFB68B3F5803F01DB002304E000
:100A4000FB689AB23B681A80012318461037BD46EE
:100A500080BD00BF80B588B000AFF860B9601346B4
:100A6000FB710023FB7702E0FB680133FB60FB684E
:100A70001B785BB2202BF7D007F11403F8681946F6
:100A8000102248F0FDFFB8611CE0BB685A1CBA6038
:100A9000BA69D2B21A70FB7F0133FB777B691B788E
:100AA0005BB22D2B18D1FA7FFB799A4214D27B6965
:100AB0000133FB6007F11403F8681946102248F06F
:100AC000DFFFB8617B69FA689A4205D27B691A46F2
:100AD000FB68D31A022BD8DD7B691B78002B01D170
:100AE000FB7F00E0002318462037BD4680BD00BFD5
:100AF00090B589B000AFF860B9601346FB71002370
:100B0000FB77CCE02C235BB2F868194648F02AFF4B
:100B1000B861BB69002B04D0BB695A1CBA610022C2
:100B20001A70FB681B78002B00F0B480FA7F134624
:100B30005B0013449B001A46BB6813441B78042BCC
:100B400000F2A68001A252F823F000BF670B010853
:100B5000890B0108E50B0108390C0108650C010837
:100B6000FB680133FB60FB681B785BB2202BF7D07E
:100B7000FA7F13465B0013449B001A46BB6813447C
:100B80005B68FA681A6085E0FA7F13465B001344DD
:100B90009B001A46BB689C18FA7F13465B001344FF
:100BA0009B001A46BB6813445968FA7F13465B00E2
:100BB00013449B001A46BB6813441B7AF8681A4614
:100BC000FFF748FF03462372FA7F13465B00134486
:100BD0009B001A46BB6813441B7A002B01D10023EB
:100BE00066E057E007F11403F8681946FFF7A4FE22
:100BF000034683F00103DBB2002B01D0002357E052
:100C00007B696FF00042934205D107F11403F86845
:100C10001946FFF7B3FEFA7F13465B0013449B00AF
:100C20001A46BB6813445A6807F114031046194664
:100C3000042249F095F82DE0FA7F13465B00134437
:100C40009B001A46BB6813445B68F8681946FFF7B7
:100C5000DBFE034683F00103DBB2002B01D000234F
:100C600026E017E0FA7F13465B0013449B001A4608
:100C7000BB6813445B68F8681946FFF7A1FE03469A
:100C800083F00103DBB2002B01D0002310E001E070
:100C900000230DE0BB69FB60FB7F0133FB77FA7F2C
:100CA000FB799A4203D2FB68002B7FF42BAFFB7FCA
:100CB00018462437BD4690BD80B588B000AF786037
:100CC00039607868202148F04DFE0346002B02D0A1
:100CD00048F2620388E0386800210C2249F05EF88F
:100CE000434A07F1100307CA03C31A70414A07F1C8
:100CF000080392E8030083E803003B6800229A722D
:100D000007F10803184649F0C3F8024607F1080343
:100D10007868194648F036FE0346002B09D107F1E2
:100D20000803184649F0B4F802467B6813447B6018
:100D30001AE007F11003184649F0AAF8024607F135
:100D400010037868194648F01DFE0346002B0BD1AE
:100D50003B6801229A7207F11003184649F098F88F
:100D600002467B6813447B603B687A681A603B6884
:100D70001B6818462F2148F0F5FD02463B685A6073
:100D80003B685B68002B06D03B685B68591C3A687F
:100D9000516000221A703B689B7A002B02D040F20F
:100DA000BB1200E050223B681A813B681B68184662
:100DB0003A2148F0D7FDF861FB69002B13D0FB699D
:100DC0005A1CFA6100221A703B680833F869194608
:100DD000FFF71AFE034683F00103DBB2002B02D0BB
:100DE00048F2620300E0002318462037BD4680BD6C
:100DF000E0CB0508ECCB050880B588B000AFF86003
:100E0000B96011461A460B46FB711346BB802C4A4B
:100E100007F1140392E80300186004331980BB7DC6
:100E2000DAB2FB795B00DBB21344DBB2DBB2BB7539
:100E3000FB79102292FBF3F3FB760023FB6132E097
:100E400000233B61FA7EFB6993FBF2F102FB01F2A6
:100E50009B1A002B0CD1FB69002B03D01948F968B1
:100E600006F0B8F9BB68F86817491A4606F0CEF9DB
:100E7000FB7907F110021046B9681A4648F070FF76
:100E8000FB79BA681344BB602020F96806F086F944
:100E90003B6907F11402F86811461A4606F0B6F9E4
:100EA000FB690133FB61BA88FB699A42C8DC0548DB
:100EB000F96806F08FF9002318462037BD4680BD3B
:100EC00004CC0508F4CB0508F8CB050880B500AFC5
:100ED000094800214FF4807248F060FF074B064A32
:100EE0001A60074824F0DAFF2520032104F05CFD96
:100EF000252004F085FD80BD2C0400202C05002059
:100F00000C04002080B582B000AF78600CE07B68F4
:100F10001B785BB2184648F0CDFB0346DAB27B681B
:100F20001A707B6801337B607B681B78002B04D0D0
:100F30007B681B785BB23D2BE9D10837BD4680BD8D
:100F400090B587B000AF786039607868FFF7DAFF56
:100F5000786848F09DFF0346012B0AD97B681B780F
:100F60005BB2412B05D17B6801331B785BB2542BFC
:100F700006D04C48396806F02DF948F260038CE041
:100F80007B6802337B607B681B78002B05D1464869
:100F9000396806F01FF900237FE00023FB7517E096
:100FA000FB7D424A52F82340FB7D404A52F82330F1
:100FB000184648F06DFF0346786821461A4648F007
:100FC0000FFD0346002B00D105E0FB7D0133FB75CF
:100FD000FB7D202BE4D9FB7D212B06D131483968DC
:100FE00006F0F8F848F2610357E00023BB75FB7D7B
:100FF0002E4A52F82330184648F04AFF0346FB7346
:10100000FB7B7A6813443B613869294948F018FF33
:101010000346002B05D12448396806F0DBF800238D
:101020003BE03869234948F00BFF0346002B05D10C
:101030000123BB753B6901333B6118E03B691B78B9
:101040005BB23D2B05D10223BB753B6901333B618C
:101050000DE03B691B78002B02D10023BB7506E035
:101060001048396806F0B6F848F2610315E0FB7DD8
:10107000114A52F82330BA7D386911463A689847C8
:101080000346BB81BB89002B01D1074B00E0054B18
:101090001846396806F09EF8BB8918461C37BD46CD
:1010A00090BD00BF88CD050890CD0508B0CD0508DE
:1010B00098CD05089CCD050834CE050880B483B0D2
:1010C00000AF7860012318460C37BD465DF8047BFD
:1010D000704700BF80B584B000AF786039604FE0E2
:1010E000FB680A2B04D00D2B02D0082B1BD02FE05D
:1010F0002A4B1B682A4A934214D93868FFF7DEFF4F
:101100000346002B03D02748396806F063F8234BC9
:101110001B6800221A70214B214A1A602048396846
:10112000FFF70EFF2CE01D4B1B681D4A93420ED9A2
:101130003868FFF7C3FF0346002B03D01A4839680D
:1011400006F048F8154B1B68013B144A136017E082
:10115000124B1B68154A934211D23868FFF7AEFF55
:101160000346002B03D0F868396806F017F80B4BDC
:101170001B685A1C09490A60FA68D2B21A7000BF8B
:10118000786806F07DF8F860FB68B3F1FF3FA7D1FF
:10119000002318461037BD4680BD00BF2C05002037
:1011A0002C040020A0CD0508A4CD05082C050020A6
:1011B00080B586B000AFF8600B467A60FB72FB7AB0
:1011C000002B02D048F2620326E01548796806F049
:1011D00001F8144B1846796805F0FCFF0123FB75F4
:1011E00012E01148796805F0F5FF0D48796805F0BF
:1011F000F1FFFB7D0D4A52F823301846796805F05F
:10120000E9FFFB7D0133FB75FB7D202BE9D9084805
:10121000796805F0DFFF002318461837BD4680BD0A
:10122000A8CD05080CCC0508ACCD0508B0CD050847
:10123000A0CD050890B5A3B002AFF8600B467A6068
:10124000FB72012024F0A8F80346002B02D048F2DC
:1012500062039FE007F178024FF453730093104646
:1012600001210322002313F0C5FCBB6F03F51873A3
:10127000FB674A4848F00CFE0346DAB2FB6F1A706F
:10128000FB6F5A1CFB6F1B78104644491A4648F006
:1012900067FDFB6F424A5A62424848F0F9FD034637
:1012A0003F2B47D807F1100300221A6004330022B5
:1012B0001A60043300221A60043300221A600433D7
:1012C00000221A60043300221A60043300221A60DC
:1012D000043300221A60043300221A60043300220F
:1012E0001A600433FB6F5A1CFB6F1B781C4607F116
:1012F00010032C481146224629F07AFF0346002BA2
:1013000017D107F1380207F11003104619462022C1
:101310002AF028FBFB6F402283F82920FB6F03F1A2
:101320002A0207F1380310461946402248F018FDFA
:1013300013E012E01B4848F0ABFD0346DAB2FB6F46
:1013400083F82920FB6F03F12A02FB6F93F8293001
:10135000104614491A4648F003FDFB6F012283F83A
:101360002820BB6F1846032100224FF4537304F06A
:1013700047FABB6F1846012113F06CFC01200221D3
:10138000094A24F04BF80346002B02D048F26203CE
:1013900000E0002318468437BD4690BDF4CE050812
:1013A0000400400004CF0508B8CE050880B584B01D
:1013B00000AFF8600B467A60FB72FB7A002B02D01C
:1013C00048F262030CE0012023F0E6FF0346002B05
:1013D00002D148F2620303E0012024F0E5F8002383
:1013E00018461037BD4680BD80B586B000AFF860A6
:1013F0000B467A60FB720123FB75FB7A002B2FDB17
:10140000012B02DD022B0BD02AE0FB7D3033184686
:10141000796805F0C3FE1648796805F0DBFE22E026
:10142000F86848F035FD0346012B09D1FB681B78AD
:101430005BB2302B07D0FB681B785BB2312B02D03C
:1014400048F2620310E0FB681B78DBB2303BBB75EF
:10145000BA7DFB7D9A4202D0BB7DFB7503E002E0C2
:1014600048F2620300E0002318461837BD4680BDED
:1014700010CF050880B594B000AFF8600B467A60D5
:10148000FB7207F134031846FFF738F900237B613C
:101490002F4BBB612F4BFB6107F134033B62FFF71E
:1014A000F7F803467B622C4BBB622B4BFB622B4B4A
:1014B0003B63FB7A002B02D0022B1ED040E00123BD
:1014C00087F84F3014E097F84F309B0007F1500237
:1014D000134453F83C3C1846796805F07BFE2048DD
:1014E000796805F077FE97F84F30013387F84F3071
:1014F00097F84F30072BE6D925E007F11003F8687D
:1015000018491A4648F008FA0346002B05D03B69F3
:10151000002B02DD3B69072B02DD48F2620313E07A
:101520003B699B0007F15002134453F83C3C1846BA
:10153000796805F04FFE0A48796805F04BFE02E035
:1015400048F2620300E0002318465037BD4680BDD4
:1015500014CF05081CCF050828CF050830CF050893
:101560003CCF050840CF050880B400AFBFF34F8FD4
:101570000549054BDB6803F4E062044B1343CB6081
:10158000BFF34F8FFEE700BF00ED00E00400FA0557
:1015900080B584B000AFF8600B467A60FB72FB7ACE
:1015A000002B02D048F262030AE00748796805F090
:1015B00011FE0A2024F046FCFFF7D6FF48F2620332
:1015C00018461037BD4680BD44CF050880B582B0AF
:1015D00000AF78607B68002B03D110F047FD034615
:1015E00008E07B684FF47A7202FB03F3184610F0B0
:1015F00021FD034618460837BD4680BD80B584B03E
:1016000000AFF860B9601346FB71FB79012B02D182
:10161000024824F04FFC1037BD4680BD0C0400206A
:10162000F0B59DB006AFF8600B467A60FB72FB7AAE
:10163000022B02D048F262036FE1002023F0ACFEDF
:101640000346002B02D048F2620366E1FB68BB64EC
:101650002C235BB2F868194648F084F978657B6DF5
:10166000002B0DD07B6D5A1C7A6500221A70786DA4
:1016700048F00EFC0346402B02D948F262034CE1CD
:10168000B86C48F005FC0346202B02D948F26203EF
:1016900043E1A44BBB63BB6B18460021392248F0E1
:1016A0007DFB07F1140300221A60043300221A6044
:1016B000043300221A60043300221A60043300222B
:1016C0001A60043300221A60043300221A600433C3
:1016D00000221A60043300221A700133B86C48F0FB
:1016E000D7FB0346DBB23B753B7D1A4607F114037B
:1016F00001331846B96C48F033FB07F1140200239C
:10170000009300230193884B029307F1380303935E
:1017100000230493002305930020022100233DF0C1
:10172000CBF982484FF0FF3124F0D4FB7D4B1B787E
:10173000002B02D148F26203EFE007F110024FF4F0
:1017400053730093104601210322002313F052FA31
:101750003B6901337B647B6C07F114049E4604F102
:10176000200C754626460FCE28606960AA60EB60A3
:1017700010340EF1100E6445F3D1734622461278F0
:101780001A70684BD3F82E207B6CC3F82E20654B63
:10179000D3F82E30002B00F0A4807B6D002B40F09E
:1017A0008D80634B1B687A689A4202D1614B1B683B
:1017B00000E07B683B646048796805F00BFD00231E
:1017C00087F85330386C05F05BFDF864FB6C0D2B2B
:1017D00002D0FB6C0A2B02D14FF0FF33FB6459E0BF
:1017E000012387F83F30386C05F04AFDF864FB6C44
:1017F00001330E2B39D801A252F823F095180108B5
:101800006B1801086B1801086B1801086B180108A8
:101810006B1801086B1801086B1801086B18010898
:10182000391801086B180108951801086B18010890
:101830006B1801089518010897F85330002B13D046
:1018400097F83F30002B03D03C48796805F0C2FC84
:1018500097F85330013B87F8533097F853307A6C40
:101860001344002283F8392014E097F83F30002B0E
:1018700003D02A20796805F091FC97F853305A1C60
:1018800087F853201946FB6CDAB27B6C0B4483F863
:10189000392000BF97F853303F2B05D8FB6C0D2B38
:1018A00002D0FB6C0A2B9BD12548796805F092FC8D
:1018B0007B6C97F8532083F8382012E0786D48F05D
:1018C000E7FA0346DAB27B6C83F838207B6C03F1CD
:1018D00039027B6C93F838301046796D1A4648F01F
:1018E0003FFA3B691846032100224FF4537303F07B
:1018F00087FF3B691846012113F0ACF90020002155
:10190000002223F08BFD0346002B02D048F2620335
:1019100003E00C48FFF75AFE002318465C37BD462B
:10192000F0BD00BF30050020FD1501080C040020AB
:1019300048000020440000204CCF050858CF05087F
:101940005CCF05088051010080B582B000AF78609F
:101950007B68002B03D110F089FB034608E07B680D
:101960004FF47A7202FB03F3184610F063FB034650
:1019700018460837BD4680BD80B584B000AFF8601A
:101980000B467A60FB72FB7A002B02D048F26203AE
:101990000FE0002023F000FD0346002B02D148F2A7
:1019A000620306E00020FFF7CFFF002023F0FCFDDC
:1019B000002318461037BD4680BD00BFB0B58CB0BF
:1019C00002AFF8600B467A60FB72FB7A022B02D002
:1019D00048F262032FE0F868202147F0C3FF034676
:1019E000002B02D048F2620325E007F11003F868EB
:1019F000194641F2883224F0F5F80346FB84FB8C4B
:101A0000002B01D0FB8C16E07B691B0EDBB21D4660
:101A10007B691B0CDBB21C467B691B0ADBB21A46D6
:101A20007B69DBB200920193786805492A46234618
:101A300005F0ECFB002318462837BD46B0BD00BFBB
:101A400060CF050880B584B000AFF8600B467A60BF
:101A5000FB72FB7A002B02D048F2620307E00648D3
:101A6000796805F0B7FB0A2003F07AFB00231846DB
:101A70001037BD4680BD00BF70CF050880B58CB063
:101A800000AFF8600B467A60FB72FB7A002B02D045
:101A900048F262030CE007F11403184612F060FEEE
:101AA00007F11403786804491A4605F0AFFB0023D8
:101AB00018463037BD4680BD78CF050880B58EB05A
:101AC00000AFF8600B467A60FB72FB7A022B02D003
:101AD00048F2620395E000233B630023FB6207F1B9
:101AE000140300221A60043300221A600433002217
:101AF0001A60043300221A60043300221A6004338F
:101B000000221A60043307F13003BB6107F12C0394
:101B10007B6207F11403F86819460222FEF7E8FF1A
:101B2000034687F8373097F83730002B03D097F803
:101B30003730022B02D948F2620362E03B6B184651
:101B400000F06AF8034687F8363097F83630272BCE
:101B500002D948F2620354E097F83730012B1BD1C9
:101B600097F83630184603F05FFF0346002B14BF8A
:101B70000123002387F8353097F83530002B01D04A
:101B8000312300E030231846796805F007FB1F4831
:101B9000796805F01FFB33E0FA6A07F1130310467A
:101BA0001946FEF70DFF034683F00103DBB2002B5D
:101BB00018D0FB6A1648194647F0C2FE0346002BB0
:101BC00002D10123FB740DE0FB6A1248194647F06D
:101BD000B7FE0346002B02D10023FB7402E048F25B
:101BE00062030EE0FB7C002B05D097F836301846D8
:101BF00003F0F2FE04E097F83630184603F000FFD9
:101C0000002318463837BD4680BD00BF80CF050889
:101C100084CF05088CCF050880B586B000AF78600A
:101C20007B681B785BB241227A613B614323FB6096
:101C30007A693B699A4205D83A69FB689A4201D8A9
:101C4000012300E0002303F00103DBB283F0010372
:101C5000DBB2002B01D028231EE07B685A1C07F161
:101C60000B0310461946FEF7ABFE034683F0010353
:101C7000DBB2002B01D028230EE07B681B785BB21F
:101C8000184647F017FD0346413B1B01DAB2FB7AC9
:101C90001344DBB2FB72FB7A18461837BD4680BD91
:101CA00080B58EB000AFF8600B467A60FB72FB7AAD
:101CB000022B02D048F2620378E000233B6300234A
:101CC000FB6207F1140300221A60043300221A6039
:101CD000043300221A60043300221A600433002205
:101CE0001A60043300221A60043307F13003BB6129
:101CF00007F12C037B6207F11403F86819460222EE
:101D0000FEF7F6FE034687F8363097F83630022B9A
:101D100002D048F2620349E03B6B1846FFF77CFFB4
:101D2000034687F8353097F83530272B02D948F22B
:101D300062033BE00023FB74FA6A07F113031046C9
:101D40001946FEF73DFE034683F00103DBB2002B8C
:101D500024D0002387F8373012E097F83730154A3F
:101D600052F82320FB6A1046194647F0E9FD034666
:101D7000002B00D108E097F83730013387F837306F
:101D800097F83730052BE8D997F83730052B02D96B
:101D900048F262030AE097F83730FB74FB7C97F84F
:101DA00035201046194603F0FFFD03461846383724
:101DB000BD4680BD0400002090B5FDB002AF07F124
:101DC0000C0318603B1D1A6007F10B030A461A70DA
:101DD00007F10B031B78022B02D048F262039DE04F
:101DE000002023F0D9FA0346002B02D148F2620307
:101DF00094E007F10C0307F5EA7218681146FEF744
:101E00005BFF0346A7F8E431B7F8E431002B02D0BA
:101E1000B7F8E43182E0D7F8D421B7F8DC3107F124
:101E20001C0100930846002100230EF041FB0346ED
:101E3000A7F8E231B7F8E231002B02D0B7F8E2316F
:101E40006CE0D7F8D831002B02D0D7F8D83100E0B9
:101E5000354B07F11C02104601211A460EF0ACFB6F
:101E600007F11C03184600210EF0D2FC07F11C03F9
:101E700018460EF03FFD0346A7F8E031B7F8E03111
:101E8000002B3FD131E007F11803196807F1140264
:101E900007F1120407F110030093084600212346BE
:101EA00015F07CF80023A7F8E63111E007F11403E0
:101EB0001A68B7F8E63113441B785AB23B1D104636
:101EC000196805F06BF9B7F8E6310133A7F8E63188
:101ED00007F112031B88B7F8E6219A42E6D307F10F
:101EE00018031B68184614F0C7FF07F11C0207F11E
:101EF00018031046194641F288320EF01DFD0346C4
:101F0000002BC0D03B1D0948196805F063F907F1A3
:101F10001C0318460EF0A8FAB7F8E031184607F58A
:101F2000F677BD4690BD00BFE0CF0508E4CF0508B9
:101F300090B5ADF5077D02AF07F10C0318603B1DAE
:101F40001A6007F10B030A461A7007F10B031B789E
:101F5000022B02D048F26203EAE0002023F01CFAD0
:101F60000346002B02D148F26203E1E007F10C03C3
:101F700018683F2147F0F6FCC7F80802D7F8083286
:101F8000002B02D148F26203D2E0D7F808325A1C83
:101F9000C7F8082200221A7007F10C0307F5FA723D
:101FA00018681146FEF788FE0346A7F80632B7F810
:101FB0000632002B02D0B7F80632B9E0D7F8F42188
:101FC000B7F8FC3107F13C010093084600210023DB
:101FD0000EF06EFA0346A7F80432B7F80432002B6D
:101FE00002D0B7F80432A3E0D7F8080247F050FF58
:101FF0000346A7F80232B7F8023207F13002104662
:102000004E491A4647F06CFCD7F8F831002B02D045
:10201000D7F8F83100E04A4B07F13C0210460321A3
:102020001A460EF0C9FA07F12003464A1A6007F172
:102030002003454A5A6007F12003444A9A6007F199
:10204000200307F13002DA6007F13C0207F12003B8
:102050001046194602220EF059FB07F13C031846C0
:1020600000210EF0D5FBD7F8080247F011FF034618
:102070009BB207F13C021046D7F808121A460EF040
:102080000DFC07F13C0318460EF034FC0346A7F89C
:102090000032B7F80032002B3FD131E007F11C03CA
:1020A000196807F1180207F1160407F114030093E9
:1020B00008460021234614F071FF0023A7F80E32D2
:1020C00011E007F118031A68B7F80E3213441B78B1
:1020D0005AB23B1D1046196805F060F8B7F80E3289
:1020E0000133A7F80E3207F116031B88B7F80E224A
:1020F0009A42E6D307F11C031B68184614F0BCFE95
:1021000007F13C0207F11C031046194641F28832E0
:102110000EF012FC0346002BC0D03B1D0C48196882
:1021200005F058F807F13C0318460EF09DF900231E
:10213000184607F50577BD4690BD00BFE8CF0508F6
:10214000ECCF0508F0CF050800D0050824D005081D
:1021500034D0050880B586B000AFF8600B467A60D1
:10216000FB72FB7A002B02D048F2620321E007F1F8
:1021700010031248194600F0B7FB0346002B04D0A9
:102180003B697868194605F041F83B69184647F005
:10219000EBFA0A4B7B617B691B899BB2002B0CBF5E
:1021A00001230023DBB2002B02D0252003F028FC02
:1021B000002318461837BD4680BD00BF1C00002014
:1021C00080B586B000AFF8600B467A60FB72FB7A90
:1021D000002B02D048F262030AE0074B7B617B6967
:1021E0001B899BB2786805491A4605F00FF8002351
:1021F00018461837BD4680BD1C00002038D00508A1
:1022000080B586B000AFF8600B467A60FB72FB7A4F
:10221000002B02D048F262030EE0094B9B881A465D
:10222000074B7B617B691B899BB2D31A7868054990
:102230001A4604F0EBFF002318461837BD4680BD50
:102240001C00002038D0050880B586B000AFF860CB
:102250000B467A60FB72FB7A002B02D048F26203D5
:1022600011E003E07B69184647F07EFA07F114039A
:102270000748194600F038FB0346002BF2D1252011
:1022800003F0BEFB002318461837BD4680BD00BFD3
:102290001C00002080B58CB000AFF8600B467A605F
:1022A000FB72FB7A022B02D048F262032CE0002082
:1022B00023F072F80346002B02D148F2620323E0B8
:1022C00007F11803F868194623F0F8F90346FB856F
:1022D000FB8D002B01D0FB8D16E007F1180207F1F2
:1022E00014030020114642F2107215F0EBF8034679
:1022F000002B02D048F2620306E07B69786804494B
:102300001A4604F083FF002318463037BD4680BDCF
:1023100050D00508B0B586B004AF786039607B68EE
:1023200093F82D305BB2012B01D15B4B00E05B4B8E
:1023300038685B491A4604F069FF7B6893F82130DE
:102340001D467B6893F822301C467B6893F8233047
:1023500018467B6893F8243019467B6893F825303B
:102360001A467B6893F826300090019102920393FD
:1023700038684C492A46234604F048FF7B68B3F985
:1023800027309BB21BB2386847491A4604F03EFF1B
:102390007B68D3F82930454A934215D87B68D3F837
:1023A0002930184646F0ECFE02460B461046194608
:1023B0004FF000023E4B46F0F5FE02460B463868F1
:1023C0003C4904F023FF14E07B68D3F82930184619
:1023D00046F0D6FE02460B46104619464FF0000264
:1023E000334B46F0DFFE02460B463868324904F0B4
:1023F0000DFF7B6893F83230386830491A4604F094
:1024000005FF7B68D3F82E30002B30D07B68D3F8E3
:102410002E30012B29D07B68D3F82E30284A9342E6
:1024200021D07B68D3F82E30264A934219D07B689E
:10243000D3F82E30244A934211D07B68D3F82E3043
:10244000224A934209D07B68D3F82E30204A934227
:1024500001D1204B0CE0204B0AE0204B08E0204B40
:1024600006E0204B04E0204B02E0204B00E0204B34
:10247000386820491A4604F0C9FE7B680133386881
:102480001D491A4604F0C2FE38681C4904F0BEFE1D
:102490000837BD46B0BD00BF68D0050870D005083C
:1024A00078D0050880D00508A0D005089F860100D7
:1024B00000408F40A8D00508B0D00508B8D0050866
:1024C0000200200004002000040040000200400040
:1024D00006004000C0D00508CCD00508D4D00508BF
:1024E000E0D00508ECD00508F4D0050800D10508B7
:1024F00004D105080CD1050814D105081CD1050824
:1025000080B582B000AF78607B6893F83930002BDB
:1025100002D0012B08D00BE07A687B68DB6B104699
:102520001946FFF7F7FE03E0044823F0C3FC00BFA1
:10253000002318460837BD4680BD00BF0C040020AC
:1025400080B584B000AFF8600B467A60FB72FB7A0E
:10255000002B02D048F2620319E00F48796804F0BA
:1025600039FE0E48796813F01DF80346002B02D09F
:1025700048F262030BE00A484FF0FF3123F0AAFC57
:102580000346002B01D1002301E048F26203184604
:102590001037BD4680BD00BF20D1050801250108C8
:1025A0000C04002080B584B000AFF8600B467A6060
:1025B000FB72FB7A002B02D048F2620307E0064868
:1025C000796804F007FE0A2002F0A0FD00231846F7
:1025D0001037BD4680BD00BF5CD1050880B586B010
:1025E00000AFF8600B467A60FB72FB7A002B01D0DB
:1025F000052317E0FEF7AEF878617B69002B04DA5B
:1026000078680A4904F002FE07E0FEF795F80346F1
:10261000786807497A6904F0F9FD7868054904F09B
:10262000F5FD002318461837BD4680BD64D1050866
:1026300078D1050884D1050880B586B000AFF86070
:102640000B467A60FB72FB7A002B01D0052317E062
:10265000FEF7D8F878617B69002B04DA78680A49BC
:1026600004F0D4FD07E0FEF7BFF803467868074999
:102670007A6904F0CBFD7868054904F0C7FD0023B2
:1026800018461837BD4680BD88D105089CD105087D
:10269000A8D1050880B584B000AFF8600B467A6019
:1026A000FB72FB7A002B01D005230DE0084A094B91
:1026B000D31A002B00DA03339B109BB278680549CC
:1026C0000422FEF799FB034618461037BD4680BD2D
:1026D000F8AF012044F4002080B584B000AFF8606A
:1026E0000B467A60FB72FB7A002B01D005230AE0CF
:1026F000074A084BD31A9B089BB278680549042205
:10270000FEF77AFB034618461037BD4680BD00BF72
:1027100044F4002044F00020B0B586B002AF7860E9
:1027200039607B68DB68FB6002E0FB680433FB60B8
:10273000FB681B68B3F1EF3F04D17B681A69FB6843
:102740009A42F2D87B68DD6A7B689C6A7B681B6969
:102750001A46FB68D21A7B685B690092019338685D
:1027600003492A46234604F051FD1037BD46B0BD4B
:10277000ACD1050880B586B000AFF8600B467A6032
:10278000FB72FB7A002B01D005231FE024F010FA26
:1027900038613B697B6115E07B691B680D4A934298
:1027A00001D0112312E078697968FFF7B5FF3B6922
:1027B000D3F88C207B699A4200D106E07B69D3F87C
:1027C00088307B617B69002BE6D1002318461837DF
:1027D000BD4680BD4452485480B485B000AFF86017
:1027E0000B467A60FB72002318461437BD465DF82D
:1027F000047B704780B485B000AFF8600B467A6008
:10280000FB72002318461437BD465DF8047B704701
:1028100080B485B000AFF8600B467A60FB7200238D
:1028200018461437BD465DF8047B704780B485B008
:1028300000AFF8600B467A60FB720023184614372D
:10284000BD465DF8047B704780B485B000AFF8608A
:102850000B467A60FB72002318461437BD465DF8BC
:10286000047B704780B485B000AFF8600B467A6097
:10287000FB72002318461437BD465DF8047B704791
:1028800080B500AF1020102103F0E0FE18201821C1
:1028900003F0DCFE044B1846044941F6B05203F045
:1028A000FFFE0123184680BD00800008C4D1050842
:1028B00080B582B000AF094B7B60094B3B607B6801
:1028C0009B68084A934206D03B689B68054A93423E
:1028D00001D0FFF7D5FF0837BD4680BD0080000856
:1028E00000C000084252434D80B584B000AF78600C
:1028F00039607B68FB60FB681B68002B07D0FB68B6
:102900009B88002B03D0FB68DB88002B01D10023C0
:1029100000E0012383F00103DBB2002B0BD17B68C5
:10292000BB60BB681B899BB2002B0CBF012300233B
:10293000DBB2002B01D0002327E07B681B687A689C
:10294000928992B211467A68D28802FB01F21A4447
:102950007B68DB88386811461A4647F001FA7B68C5
:102960009B899BB201337A68928893FBF2F102FB58
:1029700001F29B1A9AB27B689A817B681B899BB291
:10298000013B9AB27B681A81012318461037BD4675
:1029900080BD00BF80B586B000AFF860B960134657
:1029A000FB80FB88002B01D1002319E0BB687B6111
:1029B00000237B8208E07B8A01337B82FB68DB8813
:1029C0001A467B6913447B617A8AFB889A4206D255
:1029D000F8687969FFF788FF0346002BEBD17B8A03
:1029E00018461837BD4680BD80B588B000AFF86086
:1029F0000B467A607B81FB68BB61BB691B68002B5F
:102A000007D0BB699B88002B03D0BB69DB88002BF8
:102A100001D1002300E0012383F00103DBB2002B8E
:102A200011D1FB687B617B691B899BB2002B0CBFBA
:102A300001230023DBB2002B05D1FB681B899BB26D
:102A40007A899A4201D300231DE0FB689B899BB2DF
:102A50001A467B891344FA68928893FBF2F102FBD1
:102A600001F29B1AFB83FB681B68FA8BF968C98823
:102A700001FB02F21A44FB68DB88786811461A46AB
:102A800047F06EF9012318462037BD4680BD00BFD0
:102A900080B586B000AF786039607B687B617B6908
:102AA0001B68002B07D07B699B88002B03D07B69B8
:102AB000DB88002B01D1002300E0012383F0010318
:102AC000DBB2002B14D17B683B613B691B899AB256
:102AD0003B699B889A420CBF01230023DBB2002B89
:102AE00008D07B689B7B83F00103DBB2002B01D015
:102AF00000233BE07B681B687A68528992B21146DA
:102B00007A68D28802FB01F21A447B68DB8810469F
:102B100039681A4647F024F97B685B899BB2013318
:102B20007A68928893FBF2F102FB01F29B1A9AB247
:102B30007B685A817B68FB60FB681B899AB2FB68E3
:102B40009B889A420CBF01230023DBB2002B05D0E7
:102B50007B685B899AB27B689A8106E07B681B89F7
:102B60009BB201339AB27B681A8101231846183749
:102B7000BD4680BD80B586B000AFF860B960134631
:102B8000FB80FB88002B01D1002319E0BB687B612F
:102B900000237B8208E07B8A01337B82FB68DB8831
:102BA0001A467B6913447B617A8AFB889A4206D273
:102BB000F8687969FFF76CFF0346002BEBD17B8A3D
:102BC00018461837BD4680BD80B483B000AF78602A
:102BD00000227B68114619817B68114659817B6808
:102BE0009A810C37BD465DF8047B704790B585B07F
:102BF00000AF78607B681A687B685B68D41807F15F
:102C00000803184624F0F0FFBB68E31AFB60FB687A
:102C100023EAE37318461437BD4690BD80B588B0EB
:102C200002AFF860B9603B601346FB8000237B6114
:102C3000FA8807F114030093F868B9683B6822F03A
:102C400001FF7B6918461837BD4680BD80B584B04A
:102C500000AFF860B9603B601346FB80FB88F86802
:102C6000B9681A4622F00CFE0346002B02D04FF042
:102C7000FF3309E0F86822F069FF0346002B02D019
:102C80004FF0FF3300E0FB8818461037BD4680BD8B
:102C900080B485B000AFF860B9607A60FB68BA684C
:102CA0005A60FB687A681A601437BD465DF8047B89
:102CB000704700BF80B483B000AF78607B681B684A
:102CC0004FF6FF72934203D07B681B68013300E02C
:102CD00001237A6813607B681B6818460C37BD4671
:102CE0005DF8047B704700BFF0B58DB000AFF860B1
:102CF000B9607A604FF0FF33FB620023BB621AE0D9
:102D0000FB68D3F8C860FB681A69BB6AD518BB6852
:102D10009CB27868FFF76AFF034630462946224690
:102D2000FFF794FFF862FB6A002B00DA1EE0BA6A34
:102D3000FB6A1344BB62BA6ABB689A4216DA7B68C4
:102D40007B6207F11403184624F04EFF7A697B6A10
:102D50001B68D21A7B6A5B689A422CBF012300234E
:102D6000DBB283F00103DBB2002BC9D1BA6ABB68C6
:102D70009A4218D1FB6803F1CC02FB689B694FF4BF
:102D80007A7101FB03F33A62FB613B6AFA695A60AC
:102D900007F11803184624F027FFBA693B6A1A6046
:102DA0000023FB6202E04FF0FF33FB62FB6A184630
:102DB0003437BD46F0BD00BF80B487B000AFF860C7
:102DC000B9607A603B60FB68BA68C3F8C82000232A
:102DD0007B6116E0F9687A6913469B0013449B00F7
:102DE0000B44203300225A60F9687A6913469B002D
:102DF00013449B000B44203300221A727B69013379
:102E00007B617B69072BE5DDFB687A685A60FB68AC
:102E10003A681A61FB683A6A9A60FB687A6A5A6192
:102E2000FB68BA6ADA60FB6800221A62FB6800225B
:102E30001A77FB680022C3F8C420FB680022C3F89D
:102E4000D020FB68D3F8D020FB68C3F8CC201C3717
:102E5000BD465DF8047B704780B58AB000AFF8606E
:102E6000B9607A6001237B6200233B620423FB612B
:102E7000BB6800221A604FF0FF33BB613B6A01332D
:102E80003B623A6AFB699A4203DD4FF0FF33BB6154
:102E900022E0FB68D3F8C8107B6807F117020846E8
:102EA00011460122FFF7BAFEB861BB69012B00D0C1
:102EB00012E0BB681A68FB7D03F07F03796A01FBAF
:102EC00003F31A44BB681A607B6ADB017B62FB7DFB
:102ED000DBB25BB2002BCEDB3B6A18462837BD461F
:102EE00080BD00BFF0B587B000AF786039604FF0AB
:102EF000FF337B6100233B7300233B610023BB60F6
:102F00007B68D3F8C8507B685C693868FFF76EFE51
:102F10000346284621460122FFF780FE0346012B87
:102F200000D03BE001233B613868FFF75FFE0346BA
:102F30001A4607F1080378681946FFF78DFF7B688A
:102F40005B695A1CBB681046194601F05BF90246E2
:102F50003B6913443B61BB68002B16DD7B68D3F8EB
:102F6000C8607B685A693B69D518BB689CB23868F1
:102F7000FFF73CFE0346304629462246FFF74EFE49
:102F80000246BB689A4200D008E07B685B691B7808
:102F90003B733B7BC3F30313DBB27B617B69184656
:102FA0001C37BD46F0BD00BF80B487B000AF78606D
:102FB00039607B687B613B689B683B613B685B6811
:102FC0001A463B691344BB6044E03B691B785BB223
:102FD0002F2B05D17B691B785BB22F2B00D041E0F2
:102FE0007B691B785BB22B2B0DD07B691B785BB2A6
:102FF000232B08D07B691A783B691B7852B25BB2ED
:103000009A4200D02EE07B691B785BB22B2B13D148
:103010003B690133FB6005E03B6901333B613B6980
:103020000133FB60FA68BB689A4204D2FB681B78E4
:103030005BB22F2BF0D107E07B691B785BB2232BAF
:1030400002D1BB68013B3B617B6901337B613B691A
:1030500001333B617B691B78002B03D03A69BB6865
:103060009A42B2D33A69BB689A4205D17B691B7810
:10307000002B01D1012300E00023DBB25BB2184634
:103080001C37BD465DF8047B704700BFF0B58BB0C0
:1030900002AFF860B9607A604FF0FF33BB61002384
:1030A000FB6166E0F968FA6913469B0013449B00D4
:1030B0000B4420335B68002B58D0F968FA6913463B
:1030C0009B0013449B000B4420335B68B86819468F
:1030D00001F074FA0346002B0FD1F968FA69134620
:1030E0009B0013449B000B4420335B681846B9686F
:1030F000FFF75AFF0346002B38D0F968FA691346E8
:103100009B0013449B000B4428335B68002B2DD09D
:10311000F968FA6913469B0013449B000B4428335B
:103120005C68BB68D3F808E0BB685B689C467B685A
:103130009E687B68DD68F968FA6913469B00134452
:103140009B000B4428339968F868FA6913469B0082
:1031500013449B00034430335B6800910193704635
:10316000614632462B46A0470023BB61FB69013311
:10317000FB61FB69072B95DDBB69B3F1FF3F14D100
:10318000FB68D3F8C430002B0FD007F110031846AA
:10319000B9687A68FFF77CFDFB68D3F8C43007F1A3
:1031A0001002104698470023BB61BB6918462437BC
:1031B000BD46F0BD80B58CB000AF78604FF0FF33F6
:1031C000FB627B689B69002B02D10023FB6247E016
:1031D0007B68CC337B6207F11803184624F004FDAA
:1031E000BA697B6A1B68D21A7B6A5B689A422CBFF9
:1031F00001230023DBB2002B32D07B681B7F002B26
:103200002ED100237B617B693B6107F110033B6298
:103210004FF47A73FB613B6AFA695A6007F10C0359
:10322000184624F0E1FCFA683B6A1A607B681A6968
:103230007B689B681046194600F018FFB862BB6AAD
:10324000002B0DDD07F110037868B96A1A46FFF705
:103250004BFDF862FB6A002B02D17B6801221A77D2
:10326000FB6A18463037BD4680BD00BFF0B595B04B
:1032700006AF7860396078683968FFF733FE034637
:10328000FB8500237B6300233B63FB8D023B0B2B01
:1032900000F2C38001A252F823F000BF1B340108E2
:1032A000CD3201081B340108973301081B34010893
:1032B0001B3401081B3401081B3401081B340108AE
:1032C0001B3401081B340108133401087B685B6957
:1032D0007A68D268164607F11002501D07F11001F6
:1032E00007F11002151D07F11002941D07F12002CD
:1032F000009207F110020832019207F110020C321D
:103300000292039304962A46234600F0BFFE03462A
:10331000012B00D084E007F1200207F11003786848
:1033200011461A46FFF7B2FE3B69002B75D03B6988
:10333000012B0DD17B681A697B689B681946FB8A53
:10334000009310460422002301F00CFA78630FE08A
:103350003B69022B0CD17B681A697B689B68194614
:10336000FB8A009310460522002301F0FBF97863E5
:103370007B6B002B03DC4FF0FF333B6305E0786889
:10338000796B3A68FFF7B0FC38633B6BB3F1FF3FF2
:1033900043D100BF44E07B685C697B68DB6818460A
:1033A00007F10C0107F10D0207F10E03009008462A
:1033B00011461A46234600F0D9FE0346012B03D0DE
:1033C0004FF0FF333B631FE07B681A697B689B68A3
:1033D0001946FB89009310460622002301F0C2F92A
:1033E00078637B6B002B03DC4FF0FF333B630BE018
:1033F0007868796B3A68FFF777FC38633B6B002B92
:1034000002D04FF0FF333B633B6BB3F1FF3F04D17E
:1034100006E07B6800221A7700BF7868FFF7CAFED3
:103420003B6B002B01D1FB8D3B633B6B18463C375C
:10343000BD46F0BD80B58AB000AF7860396000232A
:103440007B6200237B617B693B613B6807F1100273
:103450003A62FB613B6AFA695A6007F10803184651
:1034600024F0C2FBBA683B6A1A600DE007F1100352
:1034700078681946FFF7FAFE0346B3F1FF3F03D120
:103480004FF0FF337B6217E007F11003BB6107F1D8
:103490000C03184624F0A8FBFA68BB691B68D21A13
:1034A000BB695B689A422CBF01230023DBB283F027
:1034B0000103DBB2002BD9D17B6A18462837BD4601
:1034C00080BD00BF80B588B000AFF860B9607A6099
:1034D0004FF0FF33FB617B68BB6107F114031846B3
:1034E00024F082FB7A69BB691B68D21ABB695B68EE
:1034F0009A422CBF01230023DBB2002B00D008E04E
:10350000F8687968FFF7B2FEF861FA69BB689A4219
:10351000E1D1FB6918462037BD4680BD90B5A5B006
:1035200000AF786039604FF0FF33C7F88C30514AF4
:1035300007F1180311465822184646F011FC0023E3
:10354000C7F8883000237B677B6F3B677B685B68CD
:1035500007F17002C7F88420C7F88030D7F88430AC
:10356000D7F880205A6007F11003184624F03CFB7E
:103570003A69D7F884301A607B681B6A002B00D048
:103580006BE03B68002B02D107F118033B603B68FE
:103590001B8B1A467B689A617B6803F1CC027B68BF
:1035A0009B694FF47A7101FB03F3FA67BB67FB6F0A
:1035B000BA6F5A6007F11403184624F015FB7A69B4
:1035C000FB6F1A607B681A697B689B681046194616
:1035D0003A6800F0B1FBC7F88800D7F88830002BB4
:1035E00000DC3AE007F170037868D7F888101A46D3
:1035F000FFF77AFBC7F88C00D7F88C30002B00D08F
:103600002BE007F17003786802211A46FFF75AFF92
:103610000346022B1DD1FF23FB730023BB737B6882
:103620005A697B68DB681C4607F10E0107F10F033E
:1036300008461946234600F077FC0346012B03D1C8
:10364000FB7BC7F88C3008E04FF0FF33C7F88C30B5
:1036500003E04FF0FF33C7F88C30D7F88C30002BE5
:1036600002D17B6801221A62D7F88C301846943751
:10367000BD4690BD74EF0508F0B599B004AFF86091
:10368000B9603B601346FB714FF0FF33FB640023CE
:103690007B6400237B620023BB620023FB62BB6868
:1036A0007B6200237B637B6B3B63FB685B6807F19A
:1036B0003002FA63BB63FB6BBA6B5A6007F12003FD
:1036C000184624F091FA3A6AFB6B1A60FB681B6A91
:1036D000002B00D1D1E0FB681D69FB689B681E468A
:1036E000F868FFF7E7FA03469CB20123009307F15D
:1036F00024030193FB1D02932846314600222346F2
:1037000001F0B0F878647B6C002B00DCB5E0FB685E
:10371000D3F8C8301B68184613F0E8F807F13003F7
:10372000F868796C1A46FFF7DFFAF864FB6C002B37
:1037300007D0FB68D3F8C8301B68184613F0E4F8CC
:103740009BE007F13003F86809211A46FFF7BAFE3B
:10375000F864FB68D3F8C8301B68184613F0D4F837
:10376000FB6C092B40F086800023FB614FF0FF3398
:10377000BB61FB685B69FA68D268104607F1160105
:1037800007F11C0207F1180400930190084601217B
:10379000234601F0E9F80346012B01D1BB69FB6424
:1037A000FB6C802B65D00023BB645FE0F968BA6CCA
:1037B00013469B0013449B000B4420335B68002B93
:1037C00051D1F968BA6C13469B0013449B000B441B
:1037D000203397F868201A7297F86830002B17D0BA
:1037E000B86846F055FB03460133184645F07CFFA8
:1037F0003864386CB96846F001FBF968BA6C134656
:103800009B0013449B000B4420333A6C5A6009E040
:10381000F968BA6C13469B0013449B000B44203399
:10382000BA685A60F968BA6C13469B0013449B004F
:103830000B4428333A685A60F968BA6C13469B0007
:1038400013449B000B442833FA6E9A60F968BA6CF3
:1038500013469B0013449B000B4430333A6F5A606D
:103860000023FB6405E0BB6C0133BB64BB6C072B1E
:103870009CDD02E04FF0FF33FB64FB6C18465437CD
:10388000BD46F0BDF0B591B002AF786039604FF041
:10389000FF337B6300233B6100237B610023BB611B
:1038A0003B683B610023FB6200233B623B6AFB6198
:1038B0007B685B6807F11C02BA627B62BB6A7A6A4A
:1038C0005A6007F10C03184624F08EF9FA68BB6AB7
:1038D0001A607B681B6A002B00D1A8E07B681D6919
:1038E0007B689B681E467868FFF7E4F903469CB244
:1038F0000123009307F1100301932846314600226B
:10390000234601F0BDF8F862FB6A002B00DC8EE074
:103910007B68D3F8C8301B68184612F0E7FF07F140
:103920001C037868F96A1A46FFF7DEF978637B6B47
:10393000002B07D07B68D3F8C8301B68184612F0FC
:10394000E3FF74E007F11C0378680B211A46FFF7C8
:10395000B9FD78637B68D3F8C8301B68184612F04D
:10396000D3FF7B6B0B2B5FD17B685A697B68DB686D
:103970001C4607F10A0318461146224601F0F6F8E4
:103980000346012B4FD100237B6300233B6347E0B9
:1039900079683A6B13469B0013449B000B44203319
:1039A0005B683868194646F04BFA0346002B34D161
:1039B00079683A6B13469B0013449B000B442033F9
:1039C0001B7A002B0BD079683A6B13469B0013448B
:1039D0009B000B4420335B68184645F0C5FE7968B0
:1039E0003A6B13469B0013449B000B442033002288
:1039F0005A6079683A6B13469B0013449B000B4452
:103A0000203300221A7279683A6B13469B001344E4
:103A10009B000B44283300225A603B6B01333B630D
:103A20003B6B072BB4DD02E04FF0FF337B637B6B16
:103A300018463C37BD46F0BD2DE9F04198B008AFBF
:103A4000F860B9607A604FF0FF33FB630023FB61DD
:103A500000233B6200237B62BB68FB610023BB63E6
:103A60000023FB62FB6ABB62FB685B6807F128020C
:103A70007A633B637B6B3A6B5A6007F11803184615
:103A800024F0B2F8BA697B6B1A60FB681B6A002BE2
:103A900000D1B0E07B681B68012B03D07B681B68FA
:103AA000022B06D1F868FFF705F903469AB27B6846
:103AB000DA80FB68D3F810E0FB689B6898467B6867
:103AC0001E687B681B79DAB27B68DB8879688D6851
:103AD0007968C9688C460092019302AC07F11C0317
:103AE00093E8070084E807000595CDF818C07046F4
:103AF00041460022334600F0B9FDB863BB6B002B92
:103B000000DC78E007F12803F868B96B1A46FFF784
:103B1000EBF8F863FB6B002B00D06CE07B681B6854
:103B2000002B06D0FB68D3F8C8301B68184612F08B
:103B3000DDFE7B681B68012B27D107F12803F8689D
:103B400004211A46FFF7BEFC0346042B19D1FB687B
:103B50005C69FB68DB68184607F1140107F1150280
:103B600007F116030090084611461A46234600F056
:103B7000FDFA0346012B03D04FF0FF33FB632FE028
:103B80002EE04FF0FF33FB632AE07B681B68022BBB
:103B900026D107F12803F86807211A46FFF792FC9F
:103BA0000346072B19D1FB685C69FB68DB68184684
:103BB00007F1100107F1110207F112030090084606
:103BC00011461A46234600F0D1FA0346012B03D0D2
:103BD0004FF0FF33FB6303E002E04FF0FF33FB6382
:103BE0007B681B68002B06D0FB68D3F8C8301B68C5
:103BF000184612F089FEFB6B18464037BD46BDE8FB
:103C0000F08100BF80B58AB000AF78604FF0FF331D
:103C10007B627B681A697B689B681046194600F0D6
:103C200015FA386200237B617B693B617B685B68C6
:103C300007F11002FA61BB61FB69BA695A6007F1CA
:103C40000C03184623F0D0FFFA68FB691A603B6A40
:103C5000002B07DD07F110037868396A1A46FFF771
:103C600043F878627B6800221A627B6A184628371C
:103C7000BD4680BD90B585B000AF78600023FB6085
:103C80007B681B7A032B02D10C23FB6005E07B6869
:103C90001B7A042B01D10A23FB607B680C3393E869
:103CA000070000F071FC03460233FA681344FB601E
:103CB0007B68DB7E002B13D07B68243393E80700FE
:103CC00000F062FC03469C1C7B68303393E80700DD
:103CD00000F05AFC034623440233FA681344FB60A5
:103CE0007B681B6C002B03D17B689B6C002B0AD07C
:103CF0007B68403393E8070000F046FC034602333C
:103D0000FA681344FB607B68DB6C002B03D17B6893
:103D10005B6D002B0AD07B684C3393E8070000F002
:103D200033FC03460233FA681344FB60FB68184611
:103D30001437BD4690BD00BF80B58AB000AFF860B3
:103D4000B9607A60FB68FB6100233B7600237B61EE
:103D500000233B624FF0FF337B627868FFF78AFFF6
:103D60003862386A00F0BCFA0246BB689A4203DD4A
:103D70006FF001037B62CDE000233B763B7E0122A6
:103D800062F307133B763B7EDBB207F11C025BB2AA
:103D90001046194600F036FBFB691846396A00F0F8
:103DA00031FA0246FB691344FB617B681B7A042BE2
:103DB0000CD107F11C031846594900F063FB07F1C9
:103DC0001C031846042100F01DFB0BE007F11C0347
:103DD0001846544900F056FB07F11C03184603210E
:103DE00000F010FB00233B757B689B7E03F0010312
:103DF000DAB23B7D62F341033B757B68DB7E002BCF
:103E000014BF01230023DAB23B7D62F382033B75CA
:103E10003B7D03F00403DBB2002B14D07B6893F8E6
:103E20003D30DBB203F00303DAB23B7D62F3C4033F
:103E30003B757B6893F83C3003F00103DAB23B7DBD
:103E400062F345133B757B681B6C002B03D17B68C9
:103E50009B6C002B03D03B7D43F080033B757B685C
:103E6000DB6C002B03D17B685B6D002B03D03B7DAB
:103E700043F040033B753B7DDBB207F11C025BB2B4
:103E80001046194600F0BEFA7B681B8B1A4607F1F4
:103E90001C031846114600F0C9FA07F11C027B68A2
:103EA00010460C330ECB00F00DFB7B68DB7E002B45
:103EB0000FD007F11C027B68104624330ECB00F0B4
:103EC00001FB07F11C027B68104630330ECB00F07B
:103ED000F9FA3B7D23F07F03DBB2002B07D007F11B
:103EE0001C027B68104640330ECB00F0EBFA3B7DA2
:103EF00003F04003DBB2002B07D007F11C027B6804
:103F000010464C330ECB00F0DDFAFB691A46FB6815
:103F1000D31A7B627B6A18462837BD4680BD00BF36
:103F2000CCEF0508D4EF050880B58AB000AFF86083
:103F3000B9607A603B6000233B777B68BB610023FC
:103F40003B6200237B6200233B6107F118031846A4
:103F500000F042FA0346DBB23B773B7F23F00F03CE
:103F6000DBB2202B00D02FE0BA6907F11403104612
:103F7000194600F0FFF978627A6ABB691344BB61A5
:103F8000BB697A6913443B623B6ABA699B1A012B8D
:103F900000DC19E007F11803184600F01DFA03468B
:103FA000DBB23B743B7CC3F3C013DBB21A46FB6845
:103FB0001A7007F11803184600F00EFA0346DAB239
:103FC000BB681A7001237B627B6A18462837BD469E
:103FD00080BD00BF80B588B000AFF860B9601346FF
:103FE000FB7100233B764FF0FF33FB61FB687B6185
:103FF000BB68012B03DC6FF00103FB6120E00023B1
:104000003B76FB7903F00F03DAB23B7E62F30713D2
:104010003B763B7EDBB207F114025BB210461946D9
:1040200000F0F0F97B691846002100F0EBF8024639
:104030007B6913447B617B691A46FB68D31AFB6179
:10404000FB6918462037BD4680BD00BF80B582B0F1
:1040500000AF78603960786839680E22FFF7BAFFE0
:10406000034618460837BD4680BD00BF80B582B004
:1040700000AF78603960786839680C22FFF7AAFFD2
:10408000034618460837BD4680BD00BF80B58AB0DC
:1040900000AFF860B9607A603B6000233B77FB6B50
:1040A000BB6100233B6200237B6200237B6107F13D
:1040B0001803184600F090F90346DBB23B773B7FCC
:1040C00023F00F03DBB2302B00D04AE03B7FC3F379
:1040D000C003DBB21A46FB681A703B7FC3F341038F
:1040E000DBB21A46BB681A603B7FC3F30003DBB246
:1040F0001A467B681A70BA6907F11403104619460C
:1041000000F038F978627A6ABB691344BB61BB6915
:104110007A6913443B6207F11803386B19463A6A0F
:1041200000F000FA0346002B1BD03B6ABA699B1AC9
:10413000002B16DBBB681B68002B08DD07F118039A
:10414000184600F02DF903469AB23B681A803B6A84
:10415000BA699A1ABB6B1A60BA697B6B1A60012341
:104160007B627B6A18462837BD4680BD80B58AB021
:1041700000AFF860B9607A603B6000233B773B6832
:10418000BB6100233B6200237B6207F118031846E2
:1041900000F022F90346DBB23B773B7FC3F3C00359
:1041A000DBB21A46BB681A703B7FC3F30313DBB262
:1041B0001A46FB681A70BA6907F1140310461946CB
:1041C00000F0D8F878627A6ABB691344BB61BB69B6
:1041D0007A6913443B623B6ABA699B1A012B00DC83
:1041E0000AE007F11803184600F0DAF803469AB21D
:1041F0007B681A8001237B627B6A18462837BD469C
:1042000080BD00BF80B485B000AF78603960002306
:10421000FB603A68134B1340002B03DA013B63F059
:104220007F030133FB723B68002B00DA7F33DB1125
:104230003B603B68002B03DDFB7A63F07F03FB727E
:10424000FB685A1CFA601A467B681344FA7A1A70A3
:104250003B68002BDDDCFB6818461437BD465DF873
:10426000047B70477F00008080B586B000AF786027
:10427000396001237B6100233B613B6800221A60A7
:104280004FF0FF33FB603B6901333B613B69042B1B
:1042900003DD4FF0FF33FB601DE007F10B027B688D
:1042A000104601219847F860FB68012B00D012E00E
:1042B0003B681A68FB7A03F07F03796901FB03F31B
:1042C0001A443B681A607B69DB017B61FB7ADBB2D5
:1042D0005BB2002BD4DB3B6918461837BD4680BD66
:1042E00080B483B000AF78607B6801337B607B680B
:1042F0007F2B03DC7B6801337B6012E07B68B3F5C6
:10430000804F03DA7B6802337B600AE07B68084AEF
:10431000934203DC7B6803337B6002E07B680433F9
:104320007B607B6818460C37BD465DF8047B7047A0
:10433000FEFF1F0080B485B000AF786039600023B5
:10434000FB600AE00A4B1B685A1C09490A601A788C
:104350007B681A70FB680133FB60FA683B689A421D
:10436000F0DB3B6818461437BD465DF8047B7047A8
:10437000BC05002080B582B000AF78603960064A85
:104380007B68136005483968FFF76EFF03461846DF
:104390000837BD4680BD00BFBC050020354301087D
:1043A00080B485B000AF78607B681B68FB60FB68F9
:1043B0001B781B02FA68013212781344BB607B68D9
:1043C0001B689A1C7B681A60BB6818461437BD4688
:1043D0005DF8047B704700BF80B485B000AF7860A3
:1043E0007B681B681B78FB737B681B685A1C7B68A7
:1043F0001A60FB7B5BB218461437BD465DF8047B40
:10440000704700BF80B483B000AF78600B46FB708C
:104410007B681B68FA781A707B681B685A1C7B687B
:104420001A600C37BD465DF8047B704780B483B0DA
:1044300000AF786039607B681A683B68002B00DA4F
:10444000FF331B12DBB213707B681B685A1C7B683E
:104450001A607B681A683968094B0B40002B03DA35
:10446000013B63F0FF030133DBB213707B681B6811
:104470005A1C7B681A600C37BD465DF8047B704798
:10448000FF00008080B584B000AF78603960386884
:1044900045F0FEFC0346FB607868F968FFF7C6FF4D
:1044A0007B681A68FB68104639681A4645F058FC64
:1044B0007B681A68FB681A447B681A601037BD462F
:1044C00080BD00BF90B585B000AFF860384680E889
:1044D0000E007B68002B15DD7B68F8681946FFF736
:1044E000A5FFFB681A68BB6879680C461046194638
:1044F000224645F035FCFB681B687A681A44FB6865
:104500001A600CE03B68002B05D03B68F868194640
:10451000FFF7B8FF03E0F8680021FFF787FF1437C3
:10452000BD4690BD80B586B000AFF860B9607A60D6
:1045300000237B617B68BA6812689B1A012B1ADD25
:10454000B868FFF72DFF0246FB685A60BB681B681E
:10455000FA6852681A447B689A420CD8BB681A6899
:10456000FB689A60BB681B68FA6852681A44BB68AB
:104570001A6001237B61FB6800221A607B69184680
:104580001837BD4680BD00BF80B586B000AF3B1D6B
:1045900083E8070000237B617B68002B06D07B68E3
:1045A000184645F075FC03467B6101E0BB687B6102
:1045B0007B6918461837BD4680BD00BF80B586B000
:1045C00000AF7860396000237B610023FB607B686B
:1045D0001B68002B0AD07B681B683B617B681B68EB
:1045E000184645F055FC03467B6105E07B689B68F7
:1045F0003B617B685B687B61386845F049FC03463A
:10460000FB607A69FB689A420AD17B69386939682C
:104610001A4645F0E5F90346002B01D1012300E0DD
:10462000002318461837BD4680BD00BF80B586B050
:1046300000AFF860384680E80E0000237B613B46FF
:1046400093E80700FFF7A0FF03469A1C3B6A134458
:104650007A6913447B61FB68002B02DD7B690233BE
:104660007B617B6918461837BD4680BD80B58AB02E
:1046700002AFF860B9603B601346FB71FB687B6179
:1046800000233B740023BB610023FB613B6C009360
:10469000386807F130030ECBFFF7C8FFB861B8697F
:1046A000FFF71EFE0246BB689A4203DD6FF001036E
:1046B000FB6152E03B7C032262F307133B74FB79FE
:1046C00003F00103DAB23B7C62F3C3033B743B6843
:1046D000DBB203F00303DAB23B7C62F342033B74C8
:1046E00097F8283003F00103DAB23B7C62F3000351
:1046F0003B743B7CDBB207F114025BB210461946F7
:10470000FFF780FE7B691846B969FFF77BFD02461B
:104710007B6913447B6107F11403184607F13003EA
:104720000ECBFFF7CFFE3B68002B06DDBB8D07F1FC
:10473000140210461946FFF779FE7A693B6C104661
:10474000F96B1A4645F00CFB7A693B6C13447B61AC
:104750007B691A46FB68D31AFB61FB691846203750
:10476000BD4680BD80B588B000AFF860B960114625
:104770001A460B46FB711346BB7100233B760023A0
:10478000FB61FB687B61BB68032B03DC6FF00103FB
:10479000FB613AE0FB7903F00F03DAB23B7E62F390
:1047A00007133B76BB7903F00103DAB23B7E62F379
:1047B000C3033B76FB79062B0CBF01230023DBB23E
:1047C00003F00303DAB23B7E62F342033B763B7EA7
:1047D000DBB207F114025BB210461946FFF712FE76
:1047E0007B6918460221FFF70DFD02467B691344E1
:1047F0007B613B8D07F1140210461946FFF716FE48
:104800007B691A46FB68D31AFB61FB69184620379F
:10481000BD4680BD80B584B000AF786039600223AA
:10482000BB600023FB6013E0FA6813465B0013448F
:104830009B001A463B68134493E80700FFF7A4FE69
:1048400003460333BA681344BB60FB680133FB6063
:10485000FA687B689A42E7DBBB6818461037BD46AA
:1048600080BD00BF80B58AB000AFF860B960114666
:104870001A460B46FB711346BB80FB68BB610023E5
:104880003B750023FB6100237B6200233B62386B96
:10489000796BFFF7BFFFF861F869FFF721FD02466A
:1048A000BB689A4203DD6FF001037B6256E0002390
:1048B0003B753B7D082262F307133B75FB7903F0E0
:1048C0000103DAB23B7D62F3C3033B753B7D0122FA
:1048D00062F342033B753B7DDBB207F118025BB22A
:1048E00010461946FFF78EFDBB691846F969FFF7B8
:1048F00089FC0246BB691344BB61BB8807F11802FF
:1049000010461946FFF792FD00233B621DE03A6A0C
:1049100013465B0013449B001A467B6B134407F15C
:10492000180210460ECBFFF7CDFD3B6A9B00BA6B19
:1049300013441B68DBB207F118025BB2104619463C
:10494000FFF760FD3B6A01333B623A6A3B6B9A4278
:10495000DDDBBB691A46FB68D31A7B627B6A1846AB
:104960002837BD4680BD00BF90B58BB000AFF86062
:10497000B9607A603B6000233B77BB6BBB6100236F
:104980003B6200237B6207F118031846FFF724FD02
:104990000346DBB23B773B7F23F00F03DBB2902B68
:1049A00000D040E0BA6907F1140310461946FFF73A
:1049B000E1FC78627A6ABB691344BB61BB697A69BE
:1049C00013443B623B6ABA699B1A012B00DC2AE064
:1049D00007F118031846FFF7E3FC03469AB2FB6899
:1049E0001A807B6800221A6017E07B681A68BB682F
:1049F0009A4203DD4FF0FF337B6214E07B681B6853
:104A0000591C7A6811609B003A68D41807F11803A2
:104A10001846FFF7E1FC03462360BA693B6A9A42F5
:104A2000E3D301237B627B6A18462C37BD4690BDD9
:104A300080B584B000AF786039600223BB6000238A
:104A4000FB6013E0FA6813465B0013449B001A46B0
:104A50003B68134493E80700FFF796FD03460233D3
:104A6000BA681344BB60FB680133FB60FA687B687B
:104A70009A42E7DBBB6818461037BD4680BD00BFD1
:104A800080B58AB000AFF860B96011461A460B468F
:104A9000FB711346BB80FB68BB6100233B750023A1
:104AA000FB614FF0FF337B6200233B62386B796B15
:104AB000FFF7BEFFF861F869FFF712FC0246BB681A
:104AC0009A4203DD6FF001037B6249E000233B75EE
:104AD0003B7D0A2262F307133B75FB7903F0010368
:104AE000DAB23B7D62F3C3033B753B7D012262F387
:104AF00042033B753B7DDBB207F118025BB2104607
:104B00001946FFF77FFCBB691846F969FFF77AFB86
:104B10000246BB691344BB61BB8807F1180210460B
:104B20001946FFF783FC00233B6210E03A6A134604
:104B30005B0013449B001A467B6B134407F1180279
:104B400010460ECBFFF7BEFC3B6A01333B623A6A6C
:104B50003B6B9A42EADBBB691A46FB68D31A7B625D
:104B60007B6A18462837BD4680BD00BF80B588B037
:104B700002AFF860B9607A600023FB740023BB7455
:104B800000237B6107F1130107F112027B68009398
:104B900008461146FA68BB68FFF7E8FA7861FB7CC3
:104BA0000B2B01D101237B617B6918461837BD4669
:104BB00080BD00BF80B582B000AF78603960786892
:104BC0000021142245F0EAF87B683A681A60002355
:104BD00018460837BD4680BD80B586B000AFF86086
:104BE000B9601346FB80FB68002B03D0FB681B6891
:104BF000002B02D141F6613337E0FB681B68DB68AC
:104C000093F88A39002B01D109232EE0FB685B68F9
:104C1000002B29D0BB68002B12D0FB685A68FB68B8
:104C20009B681046194612F041F9FB681968FB6849
:104C30005B68FA880846B96812F024FB0346FB82D9
:104C4000BB68002B02D0FB8A002B04D0FB685B689A
:104C5000184612F011F9FB6800229A60FB680022E6
:104C60009A81FB6800225A60002318461837BD4617
:104C700080BD00BF80B582B000AF78607868002149
:104C80000022FFF7A9FF7B681B69002B04D07B681B
:104C90001B69184612F0F0F87B6800225A607B68A6
:104CA00000221A617B6800221A6000231846083728
:104CB000BD4680BD90B58BB002AFF860B9603B6077
:104CC0001346FB80FB68002B03D0FB681B68002B9E
:104CD00002D141F6613371E0FB681B68DB6893F831
:104CE0008A39002B01D1092368E03B6B002B02D0ED
:104CF0003B6B00221A805DE000237B6100237B82F6
:104D0000FB681B69002B15D1FB681A68FB68103320
:104D1000104619463A6812F0EDFA0346BB83BB8B86
:104D2000002B07D03B6B1B88002B01D0002345E0F4
:104D3000BB8B43E0FB68196907F1140207F1120409
:104D400007F11A03009308460021234612F026F9C2
:104D50007A8AFB88934228BF1346FB837A69FB8BD0
:104D6000B86811461A4644F0FBFFFB8BBA6813443F
:104D7000BB603B6B1A88FB8B13449AB23B6B1A8067
:104D8000FA88FB8BD31AFB807B8AFA8B9A4208D174
:104D9000FB681B69184612F06FF8FB6800221A6165
:104DA00008E0FB6819697A69FB8B134408461946C9
:104DB00012F0A8F8FB88002B9ED100231846243758
:104DC000BD4690BD90B58BB002AFF860B9607A6017
:104DD000FB68002B03D0FB681B68002B02D141F657
:104DE000613335E0FB681B68DB6893F88A39002B78
:104DF00001D109232CE0FB681B69002B0FD1FB6854
:104E00001A68FB681033104619467A6812F072FA75
:104E10000346FB83FB8B002B01D0FB8B18E00023A8
:104E2000BB610023FB82FB68196907F1180207F1D7
:104E3000160407F11C03009308460021234612F0D4
:104E4000ADF8BB69B8681946012244F089FF002318
:104E500018462437BD4690BDB0B588B002AFF860A3
:104E6000B9607A603B60FB68002B03D0FB681B686D
:104E7000002B02D141F6613388E0FB681B68DB68D8
:104E800093F88A39002B01D109237FE07AE0FB688F
:104E90005B68002B20D1FB6819687B684FF6FE72B7
:104EA000934202D87B689AB201E04FF6FF72FB682A
:104EB0001D1DFB6803F10804FB680C3300930846D2
:104EC00011462A46234611F059FF03467B827B8A0E
:104ED000002B01D07B8A59E0FB689B891A467B68CE
:104EE0009A4202D97B689BB201E0FB689B89FB82F6
:104EF000FB689A68FB8A1046B9681A4644F030FF8E
:104F0000FB8ABA681344BB60FB689A68FB8A1A4440
:104F1000FB689A60FB689A89FB8AD31A9AB2FB688D
:104F20009A81FB8A7A68D31A7B60FB689B89002B85
:104F300028D1FB685A68FB689B681046194611F037
:104F4000B5FFFB681968FB685B683A8D08463968ED
:104F500012F098F90346BB82FB6800229A60FB6856
:104F600000229A81BB8A002B09D0FB685B68184637
:104F700011F082FFFB6800225A60BB8A06E0FB68E2
:104F800000225A607B68002B81D100231846183715
:104F9000BD46B0BD80B483B000AF03463960FB713D
:104FA00097F90730002B0BDA0D49FB7903F00F035B
:104FB000043B3A68D2B21201D2B20B441A7609E02D
:104FC000084997F907303A68D2B21201D2B20B44BD
:104FD00083F800230C37BD465DF8047B704700BFA3
:104FE00000ED00E000E100E080B500AF032001210A
:104FF000FFF7D0FF31200221FFF7CCFF3B20032138
:10500000FFF7C8FF4D200421FFF7C4FF4C20042107
:10501000FFF7C0FF80BD00BF80B500AF054803218A
:1050200000F002FE034800F087FE0348002100F074
:10503000FBFD80BD54F0050874F0050880B400AF96
:10504000BFF34F8F0549054BDB6803F4E062044B67
:105050001343CB60BFF34F8FFEE700BF00ED00E0CE
:105060000400FA0580B500AFFDF722FC1E4B1B685B
:105070001846002102F088F81C4B1B6818460021D6
:1050800002F082F81A4B1B681846002102F07CF8E7
:1050900001F090FF0FF0C0FF06F0FAFF1548164927
:1050A000002242F0A7FF03F08BF91248134942F0A7
:1050B000D7FF1048124941F043FC02F011FD02F005
:1050C00099FF07F06BF80346002B07D009480D49FC
:1050D00042F0C6FF07480C4941F044FE054843F042
:1050E00003F80023184680BD44000020480000203B
:1050F0004C000020C0050020500000206803002064
:10510000A4000020A00300205C00002080B582B035
:1051100000AF78607B68002B02D0786820F092FEA8
:10512000044B054A1A60FFF789FF00231846083729
:10513000BD4680BDFCBF01202BFDDFB280B582B033
:1051400000AF78607B68002B02D0786820F07AFE90
:10515000FFF774FF002318460837BD4680BD00BF27
:1051600080B582B000AF78607B68002B02D0786891
:1051700020F068FE07F05CFA5020582101F066FA32
:10518000FDF77EFBFFF75AFF002318460837BD46A0
:1051900080BD00BF80B582B000AF78607B68002B17
:1051A00002D0786820F04EFEFDF76AFBFFF746FF5D
:1051B000002318460837BD4680BD00BF80B485B0C7
:1051C00000AFF860B9607A603B60FB685A68BB6802
:1051D0009A4202D240F6A1731AE0FB681B78002BBA
:1051E00015D1FB689A68BB681A44BB691A60FB68F2
:1051F0005A68BB68D21A3B681A603B681A687B68B9
:105200009A4228BF1A463B681A60002300E0072331
:1052100018461437BD465DF8047B704780B582B0F0
:1052200000AF786039607B681B78002B02D038684B
:1052300044F09AFA002318460837BD4680BD00BFE7
:1052400080B582B000AF786039607B68002B02D0F7
:105250003B68002B01D105233EE0786839684FF4A4
:10526000C67244F07DFD3B681A687B681A603B6833
:105270005A687B685A607B6803F118023B681833F0
:1052800010461946502244F06BFD7B6803F168021A
:105290003B686833104619464FF4907244F060FD45
:1052A0003B68D3F888217B68C3F888217B680C4A67
:1052B0009A607B6800221A733B685A7B7B685A733A
:1052C0007B680022DA737B6800225A613B681B69A5
:1052D0005A1C7B681A61002318460837BD4680BDFA
:1052E0004252434D80B598B000AFF860B9603B6062
:1052F0001346FB71FB687B653B68BB6538E0BA68A9
:105300007B6DD31AFB65FB6D402B01D94023FB65F8
:105310007B6D07F1100210461946FA6D44F020FD2E
:10532000FB79012B18D17A6DFB68D31A132B13D894
:105330007A6DFB68D21AFB6D1344182B0CD97A6D69
:10534000FB68D31A143307F1100213443B653B6D1D
:1053500000221A600023FB7107F110031846F96D53
:10536000BA6D0DF05DFDB8657A6DFB6D13447B651C
:105370007A6DBB689A42C2D3BB6D18466037BD4692
:1053800080BD00BF80B584B000AF786039607B68B5
:1053900014331B68FB607868396801224FF0FF33D3
:1053A000FFF7A0FFB860BA68FB689A4201D10123F9
:1053B00000E0002318461037BD4680BD80B5ADF52E
:1053C000976D00AF0246FB1D1A7007F10C031A46D9
:1053D0004FF4C673104600211A4644F0DFFC07F173
:1053E0000B0300221A7007F5497318467C494FF4E5
:1053F000C67244F0B5FC07F5CC73184679494FF4F2
:10540000C67244F0ADFC002387F8B734002387F858
:10541000B63407F549731B7B002B1ED107F5497382
:105420009B68714A934218D107F54973DB7B5BB2E5
:10543000012B04D107F549735B69002B0AD0684939
:10544000674A6A4B134408461946FFF79BFF034619
:10545000012B02D1012387F8B73407F5CC731B7BEE
:10546000002B13D107F5CC739B685F4A93420DD193
:105470005C495C4A5E4B134408461946FFF782FFBD
:105480000346012B02D1012387F8B63497F8B734CD
:10549000012B28D197F8B634012B24D107F5497395
:1054A000DB7B5BB2012B03D1002387F8B6341AE013
:1054B00007F549731A6907F5CC731B699A4203D93A
:1054C000002387F8B6340EE007F549731A6907F52B
:1054D000CC731B699A4203D2002387F8B73402E0E9
:1054E000002387F8B63497F8B734012B07D1FB1D9A
:1054F0001B78404A52F82330394A13446BE097F83E
:10550000B634012B07D1FB1D1B783A4A52F82330E1
:10551000344A13445FE0384B1B6803F00103002B4F
:1055200000D000BE2E4B184600F0AAF807F10C037D
:10553000184600214FF4C67244F030FC07F10C030A
:1055400001225A7307F10C03274A9A6007F10C03F2
:1055500000221A7307F10C0300225A6107F10C03B1
:1055600018464FF4C6714FF0FF320DF059FCC7F8E2
:10557000B0041B4B03F5C671194A1C4B1344084673
:1055800019460022D7F8B034FFF7ACFEC7F8B004D4
:1055900007F10C03D7F8B0245A6107F10C0301227C
:1055A0001A730F4A07F10C03104619464FF4C672DE
:1055B00001F076F80A4B03F10C0207F10B031046D9
:1055C0001946012201F06CF8FB1D1B78094A52F8BC
:1055D0002330034A1344184607F59767BD4680BD3C
:1055E0000080000800C000084252434D0040000007
:1055F00000400000C8F10508F0ED00E080B586B07D
:1056000000AFF8607A603B600B46FB72FB7A18468D
:10561000FFF7D4FE78617B69B3F1FF3F01D104232A
:105620000EE07A697B681344F86819463A6844F0DA
:1056300097FB0246FB689A4201D0042300E0002356
:1056400018461837BD4680BD80B588B000AFF860F9
:10565000B9607A60FB68FB61BB68BB61BB69F869D4
:1056600019467A6801F01CF803467B617B69002BC0
:1056700001D0042300E0002318462037BD4680BD3A
:1056800080B584B000AF78607B6823F07843DB0A94
:10569000FB810B4A7B68134423F07843DB0A9BB2FF
:1056A000013BBB81FA89BB891046194600F0CEFF49
:1056B00003467B817B8918461037BD4680BD00BFFD
:1056C0000040000080B584B000AF786039607B682E
:1056D000002B02D03B68002B01D1042321E00420E1
:1056E000FFF76CFEF860FB68B3F1FF3F01D10423C4
:1056F00017E0FB680D4A934201D10D4A00E00B4AC6
:105700007B681A607B681B681846FFF7B9FF38682A
:10571000F968FFF795FD0346002B01D0042300E054
:10572000002318461037BD4680BD00BF008000082A
:1057300000C0000880B586B000AF786039600023F3
:10574000FB730023FB823B6800221A733B68002234
:105750005A6138684FF4C6714FF0FF320DF060FBAC
:1057600038617B6803F5C671234A7B681344084699
:10577000194600223B69FFF7B5FD38613B683A697D
:105780005A613B6801221A73786839684FF4C6720F
:1057900000F086FF0346002B01D00423FB82FB8A26
:1057A000002B0ED17B6803F10C0207F10F031046AA
:1057B0001946012200F074FF0346002B01D0042398
:1057C000FB82FB8A002B12D10C4A7B6893420ED0DD
:1057D0000A4B03F10F0207F10F031046194601228D
:1057E00000F05EFF0346002B01D00423FB82FB8AFE
:1057F00018461837BD4680BD0040000000800008F4
:1058000090B5EDB000AF07F10C0420600846391DDB
:105810000A603A46136007F10B0302461A7007F15B
:105820000B031B78514A52F823203B1D1B6813447D
:10583000C7F8AC31D7F8AC31B3F5C67F07D33B46D8
:10584000D7F8AC211B681344494A934201D9042379
:1058500086E00420FFF7B2FD0346C7F8A831D7F869
:10586000A831B3F1FF3F01D1042379E007F114021D
:1058700007F1180310461946FFF724FF0346002BD3
:1058800001D004236CE0D7F8AC31A3F5C673C7F898
:10589000A431D7F8A431002B13D007F114031B68EF
:1058A00003F5C672D7F8A83103F5C673104619463A
:1058B000D7F8A421FFF7C8FE0346002B01D004232C
:1058C0004EE007F114031A68D7F8AC31D11807F18C
:1058D0000C023B46084611681A6800F0E1FE0346D8
:1058E000002B01D004233BE021493B46D7F8AC21F3
:1058F0001B681344CB1AC7F8A431D7F8A431002B86
:105900001BD007F114031A68D7F8AC311A443B4690
:105910001B68D118D7F8A821D7F8AC311A443B46F8
:105920001B68134408461946D7F8A421FFF78CFEDC
:105930000346002B01D0042312E007F118030122D3
:105940005A7307F114031A6807F118031046194631
:10595000FFF7F0FE0346002B01D0042300E00023F4
:10596000184607F5DA77BD4690BD00BFC8F10508B7
:105970000040000080B500AF00F060FE0346012B40
:1059800006D1074B1B6803F00103002B00D000BEBB
:1059900004480021012244F001FA0023184680BD8A
:1059A000F0ED00E0F007002080B582B000AF0346C4
:1059B0000A46FB711346BB71FB79DB00054A1A44AA
:1059C000BB791046194600F02FF9034618460837F0
:1059D000BD4680BDDCEF050880B582B000AF034650
:1059E000FB71FB79DB00054A1344184600F082F98D
:1059F000034618460837BD4680BD00BFDCEF0508EA
:105A000080B582B000AF0346FB71FB79DB00054A2D
:105A10001344184600F090F9034618460837BD466F
:105A200080BD00BFDCEF050880B582B000AF034643
:105A3000FB71FB79DB00054A1344184600F0C4F9FA
:105A4000034618460837BD4680BD00BFDCEF050899
:105A500080B586B000AF78607B681B79FF2B05D0DE
:105A60007B681B79DB00104A134400E000237B6154
:105A70007B689B68FB607B681B7B3B747B685B7B04
:105A80007B747B681B684C2202FB03F3074A1A44B1
:105A900007F10C031046194600F0C0FA03461846F9
:105AA0001837BD4680BD00BFDCEF05081CF10508B6
:105AB00080B588B000AFF860B9601346FB80FB6822
:105AC0001B79FF2B05D0FB681B79DB00104A1344C0
:105AD00000E00023FB61FB689B687B61FB681B7B2C
:105AE0003B76FB685B7B7B76FB681B684C2202FB8A
:105AF00003F3084A991807F11402FB880846114677
:105B0000BA6800F077FB034618462037BD4680BDD3
:105B1000DCEF05081CF1050880B500AF00F03EF889
:105B20000848032100F080F8012000F00FF8064833
:105B3000032100F079F8002000F01CF8002318463B
:105B400080BD00BF70F1050868F1050880B582B01E
