:020000040800F2
:10000000644A0020250F00086D0500086D050008F2
:100010006D0500086D0500086D0500080000000072
:100020000000000000000000000000006D05000856
:100030006D050008000000006D050008850400083B
:100040006D0500086D0500086D0500086D050008C8
:100050006D0500086D050008910500089105000870
:100060009105000891050008910500086D0500083C
:100070006D0500086D0500086D0500086D05000898
:100080006D0500086D0500086D0500086D05000888
:100090006D0500086D0500086D0500089105000854
:1000A0006D0500086D0500086D0500086D05000868
:1000B0006D0500086D0500086D0500086D05000858
:1000C0006D0500086D0500086D0500086D05000848
:1000D0006D0500082F0400086D0500086D05000877
:1000E000910500086D0500086D0500086D05000804
:1000F0006D0500086D0500086D0500086D05000818
:100100006D050008A50400086D0500086D050008D0
:100110006D0500086D0500086D050008390600082A
:100120006D0500086D050008690400084105000818
:100130006D0500086D0500086D0500086D050008D7
:100140006D0500086D0500086D0500086D050008C7
:100150006D0500086D0500084D0400086D050008D8
:100160006D0500086D0500086D0500086D050008A7
:100170001D040008010400086D0500086D05000855
:040180006D05000801
:0402000001000000F9
:10040000684620F007018D4601B5034801F05BF80E
:10041000BDE801408546704744030020684620F04F
:1004200007018D4601B5BDE8014085467047684625
:1004300020F007018D4601B5034800F03BFFBDE801
:1004400001408546704700BF2C030020684620F01D
:1004500007018D4601B5034800F049FFBDE80140A2
:10046000854670472C030020684620F007018D4622
:1004700001B5034800F061FFBDE8014085467047C3
:100480002C030020684620F007018D46044A01B580
:100490001368BDE80140013313608546704700BF13
:1004A00060080020684620F007018D4640F23322A4
:1004B00019B51B4B5C6B22404AB11A4A01211170DD
:1004C0004FF0FF329A63184800F090FC24E014F0DB
:1004D000C00F19D05B691A0506D5124B01211248CD
:1004E000197000F083FC0CE0104B1B68352B08D111
:1004F0000F4B1B78012B08BF0E4A0F4B18BF0F4A3A
:100500001A60074BC0229A63630205D5044B4FF46F
:1005100080029A6300F082FCBDE81940854670476E
:10052000002C014067080020690800206C080020AA
:10053000680800207154A308586402403154A3088D
:10054000684620F007018D4601B5064B4FF07C62EE
:100550009A600548012100F049FCBDE8014085464C
:10056000704700BF0064024069080020684620F020
:1005700007018D46044B01B55B68044B1B68DB0724
:1005800000D500BEFEE700BF00ED00E0F0ED00E0AA
:10059000684620F007018D46244B01B55B6803F0E7
:1005A0003F03103B092B17D007D8072B0ED010D8CC
:1005B000062B37D10122002329E0172B0FD0282B3F
:1005C00019D00A2B2ED11022042320E0022201236D
:1005D0001DE0042202231AE00822032317E0202250
:1005E0000523134949690A4211D101330A2B4FEA05
:1005F0004202F6D10BE04FF480620A230C494969AC
:100600000A4204D10133102B4FEA4202F6D10849C5
:100610004A61084A0C2101FB03235A6812B1986809
:100620005B689847BDE801408546704700ED00E0F3
:10063000003C014070080020684620F007018D460C
:100640004FF6FE72054B01B51A82054B1B68DB079E
:1006500000D500BEBDE8014085467047001400404B
:10066000F0ED00E008B500240E4B22460E490F487D
:100670001C6001F0F7FE0E490C4801F005FF0B4825
:100680000C4902F0E5FC094801F00FFF00F0B6FB51
:10069000001B6328FAD900F0B1FB04460F2000F0DC
:1006A000DFFBF3E7FCBF012014000020080100205D
:1006B000680000202000002010B500F09FFB0446D9
:1006C000132000F0D5FB50B900F098FB001BB0F5EB
:1006D0007A7F06D24FF4FA7000F096FBF0E7002024
:1006E00010BD012010BD0000144D08B500F050FBF6
:1006F0002B68134A934202D0124EB34201D1FFF746
:10070000B1FFFFF7D9FF04460028F8D10E4B1A6855
:100710000E4B9A42F3D10F202E6000F091FB4FF464
:10072000FA7000F071FB0F2000F092FB2C6000F0DB
:100730003FFB204600F0A4FBE1E700BFFCBF012027
:100740002BFDDFB2D51A5A0000020108DAFAAFAD6C
:100750000F4B102283F80323202283F83123302209
:1007600083F83B2383F80E23E02283F8062383F8E3
:10077000072383F8082383F8092383F80A2383F8DF
:10078000172383F82823402283F84D23704700BFA6
:1007900000E100E038B5084C032104F17805284653
:1007A00000F00EFD284600F08DFC04F198000021B9
:1007B000BDE8384000F004BDE03C000813B502205D
:1007C000012102F0CFFD114C4FF44043009303236D
:1007D0008DF805302046022369468DF8043002F07A
:1007E00017FD20460E210C2202F058FD20460C2257
:1007F0000F2102F053FD4FF00050012102F0B2FD35
:10080000034B4FF400529A6002B010BD0004024046
:1008100000E100E00146D0F8AC0301F55F7101F0A2
:1008200067BE1C2303FB0103D0F8AC03D3F8E0211F
:1008300001F092BE1C2303FB0103D0F8AC03DA6B7A
:1008400001F0CBBED0F8AC0301F051BF10B50446A7
:10085000C168D0F8AC03003118BF012101F035FFA9
:10086000D4F8AC03BDE8104001F010BFD0F8AC03E1
:1008700001F02EBFD0F8AC0301F033BFD0F8AC03C9
:1008800001F044BFD0F8AC0301F03EBFD0F8AC0398
:1008900001F03EBFD0F8AC0301F03CBF38B5164BB9
:1008A000164C0025164A83F82350062384E80C00D2
:1008B0004023C4F8AC036361C0F820420223204601
:1008C000A361E360A56225612562E561656200F0D0
:1008D00063FD20464FF4007101F049F92946204696
:1008E000802201F023F9204601214FF4007201F02B
:1008F0001DF9284638BD00BF00ED00E0440300208C
:100900000000044008B5D0F8200200F0AFFD002040
:1009100008BD08B5D0F8200200F0BDFD002008BDDC
:1009200010B51446D0F820021A46234601F01FF8ED
:10093000002010BD08B5D0F8200201F0A4F8002076
:1009400008BD08B5D0F8200201F0CAF8002008BDA3
:1009500011F0800FD0F8202218BF01F07F034FF074
:100960001C0015BF00FB032100FB012191F83200A0
:1009700091F8D601704708B5D0F8200200F0E5FFE5
:10098000002008BD08B5D0F8200201F04FF8002083
:1009900008BD08B5D0F8200201F016F8002008BD07
:1009A000002382B00193782358430723B0FBF3F070
:1009B000019B013383420193FAD902B070474FF48F
:1009C0007A735843FFF7ECBF08B500F01DFABFF388
:1009D0004F8F0549054BCA6802F4E0621343CB60B0
:1009E000BFF34F8FFEE700BF00ED00E00400FA0503
:1009F00008B5024A024B1A60FFF7E6FF2BFDDFB293
:100A0000FCBF01200446582008B5014600F052FA08
:100A10001020014600F04EFA1820014600F04AFA74
:100A20002046FFF7D1FF0446102008B5014600F02C
:100A300041FA1820014600F03DFA2046FFF7C4FFB6
:100A400007B5074B07491B680093074B1A68043B1F
:100A50001B6802F0F1FD80B203B05DF804FB00BF3B
:100A6000107AFF1F203E0008187AFF1F2DE9F04181
:100A7000354E364B32689AB09A42354C4FF00005ED
:100A80000DD080232370262363706FF07F03A37043
:100A90000423E57084F8043184F8055151E00DF128
:100AA00030082023237040460423637084F8043107
:100AB000A570E57084F80551FFF7C2FFB36802AF77
:100AC000C3F30722009223491A0E3846C3F30743A3
:100AD00002F0B2FD736807AEC3F3072200923046FE
:100AE0001A0E1C49C3F3074302F0A6FD1896261DF3
:100AF000CDF85480B046184B179713930C331493CA
:100B0000164B1693164B199313AB53F825703046BA
:100B1000394602F0B5FD384602F0BAFD062DC0B2E6
:100B200006EB000306D00D2232540A229E1C5A7096
:100B30000135E9E7B4F80421C8EB03031344A4F832
:100B400004311AB0BDE8F08100020108DAFAAFAD55
:100B5000F4060020303E00080C020108393E00086F
:100B60002402010810B590F809220446102AB0F8B2
:100B70000A3210D0202A03D00021FFF7DBFE3BE031
:100B80001E49B0F80E22B1F804319A4228BF1A4625
:100B900001F05AFF30E0013B042B1BD8DFE803F0E3
:100BA00003080D17120001F07FFF0A20FFF70CFF6A
:100BB00001F07AFF0A20FFF725FF01F075FF0A20F8
:100BC000FFF716FF01F070FF0A20FFF72CFFFFF779
:100BD0004DFF0EE0094B2221802259706FF07F01FA
:100BE0001A70997000220421DA7083F8041183F8D6
:100BF0000521204601F058FF002010BDF40600201A
:100C0000002070470020704712230B800048704777
:100C10000000002008B5134619B904221A800748BD
:100C200008BD042908D8064B013953F821000549AD
:100C300001F0EDFE034808BD002008BD5C3E000841
:100C40004C3E0008FC07002010B50023934203D05F
:100C5000C45CCC540133F9E7084610BD00233221AF
:100C600051709370D3700020704708B502F022FADB
:100C7000002008BD08B502F02DFA002008BD0000D4
:100C800008B500F17843B3F5004F3AD31E4B9842B4
:100C900001D800201CE01D4B984201D8102017E01D
:100CA0001B4B984201D8182012E01A4B984201D8E9
:100CB00020200DE0184B984201D8282008E0174B5F
:100CC000984201D8302003E0154B984205D83820CF
:100CD000022102F049FA002008BD124B984201D8C7
:100CE0004020F5E7104B984201D84820F0E70F4B21
:100CF000984201D85020EBE7B0F1016F01D25820A3
:100D0000E6E7012008BD00BFFF3F0008FFBF000865
:100D1000FFFF0008FFFF0108FFFF0308FFFF0508B2
:100D2000FFFF0708FFFF0908FFFF0B08FFFF0D0883
:100D300001F17843B3F5004F2DE9F0410E46174617
:100D40000BD304460D46AB1BBB4213D22846216889
:100D500002F040FA0828A04602D00120BDE8F08148
:100D600055F8043BD8F8002004349A42EBD0022016
:100D7000BDE8F0810020BDE8F0814268C36880686A
:100D800013441B1AB3FBF2F002FB10307047000053
:100D9000054B402283F82320044AA3F54F635A6091
:100DA00007221A60704700BF00ED00E0BFD40100C9
:100DB000044B402283F82320034A136823F00303E3
:100DC0001360704700ED00E010E000E0064B0022E9
:100DD0001A765A769A76DA7783F8202083F82220DA
:100DE000F02283F82320704700ED00E072B603780C
:100DF0000133DBB2037062B600207047014B186804
:100E0000704700BF60080020034B19681A68521A27
:100E10008242FBD30020704760080020054B01226E
:100E20001A70054B1978914202D10448FFF7DEBFD2
:100E3000704700BF65080020660800206408002095
:100E4000024B03EBC00000F02FB900BFE03C0008EC
:100E5000024B03EBC00000F035B900BFE03C0008D6
:100E6000024B03EBC00000F03BB900BFE03C0008C0
:100E7000024B03EBC00000F042B900BFE03C0008A9
:100E800008B90B4B58684FF0FF3E4FF0807181F36B
:100E900000884FF0000181F3108881F3138881F3FB
:100EA000118881F3148840F001000047704700BFAB
:100EB0000000010838B504460D4602F0FBF8F320A7
:100EC00002F010F900F05FFAAC420AD82046022185
:100ED00002F04AF9082800D0FEE700F054FA08347E
:100EE000F2E702F0F7F8002038BD00000A4A00B52A
:100EF00013680A49184488428BB008D9684602F042
:100F0000B9FA074B0C221A604FF0FF3001E0106075
:100F100018460BB05DF804FB3C000020F8BF012030
:100F2000600A002035498D4635483649364A026008
:100F300004300439FBD1224B224A23489A60234AC9
:100F40002349D368884243F08073D360214B4FF02C
:100F500000025A601A6842F001021A6005D01E4A67
:100F6000824202D0121A02F057FA00F04FF800F055
:100F700082F81A481A49884205D01A4A824202D099
:100F8000121A02F049FA1848184A0021121A02F0FF
:100F900069FA00F071F8FFF7FDFB154B154C1E4682
:100FA000E41AA4080025A54204D056F82530984735
:100FB0000135F8E7FFF798FB0F4A014BDA6000BFF5
:100FC00000ED00E00000000800000020F0ED00E06F
:100FD000903F0008001000E000000020000000200A
:100FE000903F00080801002008010020640A00204A
:100FF0008C3F00088C3F00080400FA05644A00207A
:10100000640A002000400000ADADADAD07B5012081
:1010100002F058F902F0D6F9002002F085F94FF4F9
:10102000805002F095F94FF4A05002F087F90320A8
:1010300002F02AF8012002F02DF8052300934FF466
:1010400080001A21F022022302F044F9012002F06C
:1010500053F9392002F0A2F90028FAD0022002F058
:1010600051F902F059F90828FBD1042003B05DF8CA
:1010700004EB01F0FDBF704708B5002303F16042A7
:10108000013302F56142F021512B82F80013F5D1B2
:101090004FF4407001F0E2FFFFF798FEFFF758FBB6
:1010A000BDE8084000F03CB810B5044600F06EF909
:1010B0002179012322688B409BB2138300F069F9E8
:1010C000002010BD10B5044600F060F9217901231D
:1010D00022688B409BB2538300F05BF9002010BD67
:1010E00010B5044600F052F9216820794A690123BD
:1010F000834053404B6100F04CF9002010BD10B507
:10110000044600F043F9236821791A6901238B40D2
:10111000134214BF0124002400F03BF9204610BD07
:1011200008B5C0220021054802F09CF94FF4804028
:10113000012102F025F9002008BD00BF7008002041
:101140001B4B98422AD012D8A3F54063984221D075
:1011500004D8A3F58063984228D025E0154B984227
:101160001AD003F5806398421ED103207047124BBA
:10117000984215D005D8A3F58063984214D1052074
:1011800070470E4B98420DD003F5806398420BD107
:1011900008207047012070470220704704207047E4
:1011A0000620704707207047FF20704700207047D7
:1011B000001002400008024000180240001C0240DB
:1011C00073B506460C4600F0E1F835682846FFF78F
:1011D000B7FF164A164B116B53F820300B431363BD
:1011E00002239C4294BF002201228DF80420E21EBB
:1011F00018BF01228DF805308DF806200CB1052CA2
:1012000001D1012302E0012C18BF002332798DF8AF
:1012100007300123934002A941F8083D284601F018
:10122000F7FF00F0B6F8002002B070BD00380240B1
:10123000D83E00080E4B984204D80E4A93681943D2
:10124000916070470C4B984204D80A4AD3681943FE
:10125000D1607047094B9842A3F1580395BF9A6833
:10126000DA681143114394BF9960D960704700BF99
:101270005860024000600240B8600240586402407A
:10128000094B984202D853F8580C7047074B9842C4
:1012900002D853F8B40C7047054B9842A3F1580399
:1012A00094BF18685868704758600240B8600240A0
:1012B00058640240036810B51A68044611884FF656
:1012C000FF711B6B406811805A6843689B1AC360AA
:1012D00023695BB1FFF751FD2369984206D304F1FE
:1012E00008000121FFF782FD0023236110BD10B526
:1012F000044603689869FFF7C3FF2368596A0842E8
:1013000004D09869FFF796FF0023E3822368986969
:10131000FFF7B6FF2368996A084204D09869FFF77F
:1013200089FF0423E382E36833B104F1090001215A
:10133000BDE81040FFF75ABD10BD10B50446036864
:10134000186BFFF79DFF2368D96B084204D0186B18
:10135000FFF770FF0023A3822368186BFFF790FF4D
:101360002368196C084204D0186BFFF763FF04234D
:10137000A382236933B104F108000121BDE81040C4
:10138000FFF734BD10BD41F27B70704741F27B70B6
:10139000704741F27B7070472DE9F041064688B0F6
:1013A00000285FD034466D46022380F87933FFF77A
:1013B00005FA54F8100B00F038FC0FCC0FC594E878
:1013C0000F0085E80F0006F1040898E80E00306869
:1013D00000F0EAFB0021306800F02DFC3246314677
:1013E000002006F11004012381F83000C886013086
:1013F00081F831300F284FF0000381F833308B63D0
:10140000CB634B6401F11C01EDD1D6F800E082F80A
:10141000D431D38603F14001013300250EEB810165
:101420000F2B82F8D55182F8D751C2F8DC51C2F89F
:10143000E051C2F8E8514D6002F11C02E7D16F465D
:101440000FCC0FC794E80F0087E80F00704698E8AC
:101450000E0000F031FC86F87953306800F088FF08
:10146000284600E0012008B0BDE8F08190F878330C
:1014700010B5012B04460CD0012380F878330068A6
:1014800000F06AFF206800F0CAFB002084F87803AF
:1014900010BD022010BD90F8783310B5012B044622
:1014A0000FD0012380F87833006800F0BEFB20687D
:1014B00000F021FF206800F05BFF002084F8780333
:1014C00010BD022010BD2DE9F04F076887B004461B
:1014D000384600F085FF002840F03482206800F094
:1014E00053FF002800F02E82206800F04DFF820795
:1014F00048BF2268206842BF536943F0020353612A
:1015000000F042FF10F400204DD0206800F040FFB2
:10151000A246804607F530660025B8F1000F43D09B
:1015200018F0010F38D05FFA85FB2068594600F0AB
:101530003FFF10F0010F814621D00123B3602369E2
:10154000012B0CD13369DAF8DC21C3F31203D31A6F
:10155000CAF8EC31DAF8E0311A44CAF8E021594609
:101560002046FFF75EF92169012908D13DB9D4F879
:10157000E83123B9206804F55F7200F050FF19F0DC
:10158000080F04D02046FFF745F90823B36019F08F
:10159000100F1CBF1023B36001354FEA58082036E6
:1015A0000AF11C0AB9E70546206800F0EDFE430386
:1015B00040F1A880206800F0F3FE2646824607F539
:1015C00010690025BAF1000F00F09C801AF0010F9D
:1015D00000F091805FFA85FB2068594600F0F1FE2B
:1015E00010F0010F80461ED0012101FA05F2D2430E
:1015F0002369C7F834288B42C9F8081004BFF26B7E
:10160000B36B594604BF9B18F3632046FFF712F9EA
:101610002169012907D135B9636C23B9206804F524
:101620005F7200F0FCFE18F0080F1CBF0823C9F819
:10163000083018F0100F1CBF1023C9F8083018F03C
:10164000400F1CBF4023C9F8083018F0020F1CBF20
:101650000223C9F8083018F0800F4CD0736CB26CBC
:10166000D4F800C0C2EB0308B36B984528BF984676
:10167000042308F1030292FBF3F303930CF51063C8
:1016800003EB45130493049B039A9B699BB293421B
:101690000BD8B8F1000F2EDCDCF834280123AB4066
:1016A00022EA0303CCF8343825E0B26C736C9A421A
:1016B000EFD2002BEDD0C2EB0308B36B6046984528
:1016C00028BF9846042308F1030292FBF3F3039327
:1016D000237C5A460093F16B1FFA88F3CDF814C0AF
:1016E00000F07FFCF36BDDF814C04344F363B36C8C
:1016F0004344B364C7E701354FEA5A0A1C3609F17F
:1017000020095FE7206800F03FFE00280DDAD7F8D7
:101710000438204623F00103C7F80438FFF7AAF87D
:101720002268536943F000435361206800F02CFEA7
:1017300006050BD5D7F80838D80702D52046FFF79D
:1017400095F82268536943F400635361206800F000
:101750001BFEC10443D507F500667368206823F0BB
:1017600001037360002100F07DFA606807F51063E3
:101770000022824206D0FF2199600132C3F808128C
:101780002033F6E74FF0FF33B361F36943F0011301
:10179000F361A36A53B1D6F8843043F00B03C6F863
:1017A0008430736C43F00B03736407E0736943F098
:1017B0000B037361336943F00B033361D7F80038CF
:1017C00004F55F7223F4FE63C7F800382068217CBB
:1017D00000F025FE2268536943F48053536120686A
:1017E00000F0D2FD820423D5206800F0FDFD2068C2
:1017F000C36823F47053C36000F0F6FA236838B965
:101800004FF400726261DA68E06042F4105206E060
:101810000322E26040226261DA6842F4A052DA6098
:101820002046FFF713F82268536943F400535361CD
:10183000206800F0A9FDC3063ED52268936923F015
:1018400010039361D7F82080C8F34343022B08F0BC
:101850000F061AD147F6F07208EA02023AB31C23C7
:1018600003FB06464FEA121842463846D6F8E01106
:1018700000F0D8FCD6F8E031D6F8EC2143444244DD
:10188000C6F8E031C6F8EC2111E0062B0FD138463E
:1018900004F55F71082200F0C5FC1C2303FB06461B
:1018A000D6F8EC31C8F30A184344C6F8EC31226884
:1018B000936943F010039361206800F065FD07070A
:1018C00007D52046FEF7BEFF2268536943F00803A0
:1018D0005361206800F058FDC60208D52046E9B2E1
:1018E000FEF7D0FF2268536943F4801353612068E8
:1018F00000F04AFD800208D52046E9B2FEF7BEFF9F
:101900002268536943F400135361206800F03CFDE2
:10191000410007D52046FEF7B9FF2268536943F01E
:1019200080435361206800F02FFD42070AD52368E9
:101930005D686B0702D52046FEF7ACFF23685A6846
:1019400015435D6007B0BDE8F08F90F8783310B5AF
:10195000012B044609D0012380F87833006800F099
:10196000EBFC002084F8780310BD022010BD70B598
:101970000446CDB215F0800F01F07F004FF01C0639
:1019800015BF06FB004106FB0141303101F5EA714C
:10199000C0B2ED0908704D708A60CB7005B1C88087
:1019A000022B04BF00230B7194F87833012B09D06C
:1019B000012384F87833206800F031FA002084F89D
:1019C000780370BD022070BD70B5044601F07F053C
:1019D0001C2000FB0540C0F8E8310023C0F8E021DE
:1019E000C0F8EC3180F8D53180F8D451236900F586
:1019F000F071012B08BF4A6094F87823012A13D0B4
:101A00001C2101FB0541012284F8782301F5EA71CC
:101A1000DAB2206815B900F040FA01E000F0F4FAFB
:101A2000002084F8780370BD022070BD38B50446EC
:101A300001F07F051C2000FB054043640023836404
:101A40000123C26380F8313080F830502369012BC4
:101A500008BF026494F87823012A12D01C2101FBEC
:101A60000541012284F878233031DAB2206815B9B3
:101A700000F013FA01E000F0C7FA002084F87803C0
:101A800038BD022038BD38B5CBB213F0800F01F05D
:101A90007F054FF01C0215BF02FB050102FB01018F
:101AA000303101F5EA710122DB09EDB28A700D7067
:101AB0004B7090F87833044693420FD080F8782327
:101AC000006800F0BFFB2DB92068217C04F55F722F
:101AD00000F0A5FC002084F8780338BD022038BD52
:101AE00038B50546CBB213F0800F01F07F004FF000
:101AF0001C0215BF02FB005102FB0151303101F500
:101B0000EA71DB0900248C7008704B7095F878330B
:101B1000012B09D0012385F87833286800F0BDFB3C
:101B200085F87843204638BD022038BD70B504687A
:101B3000606A19B940EA0243A36216E0A36A00266C
:101B400000EB1343F0B24D1EA84206F1010606DA7F
:101B5000403004EB8000406803EB1043F2E73F3174
:101B600043EA024304EB81046360002070BD036814
:101B700000205962704700000A4B013B01D103204D
:101B800070470269002AF8DA0369064A43F0010344
:101B90000361013AF3D0036913F00103F9D1184648
:101BA000704700BF410D030084B038B505AD85E82E
:101BB0000E000A9B0446012B17D1836B23F480335C
:101BC0008363C36823F4840323F04003C360C368C2
:101BD00023F44013C3600F9B012B02BFC36843F47F
:101BE0008013C360FFF7C8FF08E0C36843F04003F9
:101BF000C360FFF7C1FF4FF48033A363089B00204D
:101C0000012B01BFA36843F00C03A360A36804BFCA
:101C100043F02003A360BDE8384004B070478368F8
:101C200043F00103836000207047836823F00103C1
:101C300083600020704708B5C368012923F0C043C2
:101C4000C36004D1C36843F00053C36004E019B912
:101C5000C36843F08043C3603220FEF7B0FE00202B
:101C600008BD0000490141F02001064A0161013A26
:101C700005D0036913F02003F9D1184670470320FB
:101C8000704700BF410D03001023064A0361013A6B
:101C900005D0036913F01003F9D1184670470320EB
:101CA000704700BF410D0300D0F800381943C0F859
:101CB000001800207047000084B02DE9F041044670
:101CC00007A880E80E00A36B0F9E43F4002388460C
:101CD0000A9FA3631EB9A36B43F40013A3630023FD
:101CE000C4F8003ED4F8003804F50065C4F80038A4
:101CF0000C9B012B06D10999204629B11946FFF703
:101D0000D3FF03E020460321FFF7CEFF0F2120463B
:101D1000FFF7A8FF2046FFF7B7FF00234FF0FF3281
:101D20002B616B61AA61EB6104F5106243450FD032
:101D3000116801330029B8BF4FF090404FF0000107
:101D4000ACBF116010601161FF2191602032EDE79E
:101D500004F53063002242450FD019680132002992
:101D6000B8BF4FF090404FF00001ACBF1960186051
:101D70001961FF2199602033EDE72B69012F23F4CE
:101D800080732B6108D1164B2B632B6B43F480338C
:101D900043F003032B632B6B0023A3616FF080439D
:101DA00063611FB9A36943F01003A361A2690D4BDE
:101DB0001343A3610D9B1BB1A36943F00803A36107
:101DC000012E08BFA3694FF0000002BF43F080431B
:101DD00043F00403A361BDE8F04104B0704700BFC5
:101DE0000001800000383C80D0F8083800F500621F
:101DF00013F0060012D0936803F00603022B0CD0F8
:101E0000936803F00603062B07D0936803F00603DC
:101E1000042B14BF0020022070470320704770B5C8
:101E20004B7800F50062012B0D78D4691AD1AB40D4
:101E30009BB22343D3610E78740104F510642358D8
:101E40001D0428D422588B6842F0805545F4004583
:101E5000C3F30A02CB782A4342EA834343EA865318
:101E6000235018E04FF48033AB402343D3610B7809
:101E70005B0103F530631A5812040CD41A5842F06F
:101E800080548A6844F40044C978C2F30A022243A9
:101E900042EA81421A50002070BD4B7830B5012BC8
:101EA0000B784C6900EB431360D1D4B9D3F81049D7
:101EB00024F0FF5424F4C014C3F810490B7800EB4D
:101EC0004313D3F8104944F40024C3F810490B78A5
:101ED00000EB4313D3F81049E40CE404C3F81049B1
:101EE00028E0D3F81059ED0CED04C3F810590B7825
:101EF00000EB4313D3F8105925F0FF5525F4C01516
:101F0000C3F810598B689C4288BF4B610B7800EB7B
:101F10004313D3F8104944F40024C3F810490B7854
:101F20004C6900EB4313D3F81059C4F312042C434B
:101F3000C3F81049012A0B7805D10A6900EB431355
:101F4000C3F8142909E04A693AB1D0F834280124C9
:101F500004FA03F31343C0F834380B785B0103F53C
:101F60001063C25842F00442C25038E0D3F8105B0C
:101F7000ED0CED04C3F8105B0B7800EB4313D3F8C2
:101F8000105B25F0FF5525F4C015C3F8105B8D6874
:101F900004B14D610B78C5F3120500EB4313D3F880
:101FA000104B012A44F40024C3F8104B0B7808BFEF
:101FB000CA6800EB4313D3F8104B45EA0405C3F895
:101FC000105B02BF0B7800EB4313C3F8142B0B78A4
:101FD0005B0103F53063C25842F00442C250002056
:101FE00030BD10B59DF8084064B9033300EB0230F2
:101FF0009B1000F580509C4204D051F824200134FD
:102000000260F8E7002010BDF7B54B780C78012B83
:1020100000EB44144B6940F09780D4F81059C3B9D1
:1020200025F0FF5525F4C015C4F810590C7800EBC5
:102030004414D4F8105945F40025C4F810590C780C
:1020400000EB4414D4F81059ED0CED04C4F8105909
:102050003FE0ED0CED04C4F810590C788F6800EBEC
:102060004414D4F8105925F0FF5525F4C015C4F8D0
:102070001059DC19013CB4FBF7F40D78684F00EB04
:102080004515D5F81069E404274047EA0604C5F869
:1020900010490C78C3F3120600EB4414D4F810591D
:1020A0003543C4F81059CC78012C40F0B2800C783C
:1020B00000EB4414D4F8105925F0C045C4F8105969
:1020C0000C7800EB4414D4F8105945F00055C4F8CE
:1020D0001059012A06D10C780D6900EB4414C4F89C
:1020E00014590BE0CC78012C08D03BB10F78D0F814
:1020F00034580124BC402C43C0F83448CC78012C1F
:102100000FD1D0F8084814F4807F0C784FEA4414BB
:1021100004F5106425580CBF45F0005545F0805576
:1021200025500C78640104F51064055945F0044508
:102130000551CC78012C70D10C780092C9682246E8
:102140009BB2FFF74EFF68E0D4F8105BED0CED0496
:10215000C4F8105B0C7800EB4414D4F8105B25F045
:10216000FF5525F4C015C4F8105B0C788D6800EBA2
:10217000441483B9D4F8103BC5F312051D43C4F8C9
:10218000105B0B7800EB4313D3F8104B44F400249E
:10219000C3F8104B19E02B44013BB3FBF5F3204F80
:1021A0009BB2D4F8106B4FEAC34E0EEA07073E43CA
:1021B000C4F8106B0C785D4300EB4414D4F8106B3A
:1021C000C5F312053543C4F8105B012A01BF0B7833
:1021D000CA6800EB4313C3F8142BCB78012B0FD143
:1021E000D0F8083813F4807F0B784FEA431303F5D7
:1021F0003063C2580CBF42F0005242F08052C250CD
:102200000B785B0103F53063C25842F00442C250C0
:1022100003E0012A7FF469AF5DE7002003B0F0BD61
:102220000000F81F10B5033292100023934206D02D
:1022300000F58054246841F823400133F6E701EBB0
:10224000830010BD4B78012B0B784FEA431311D15B
:1022500003F51063C258002AA2BFC25822F0804280
:10226000C2500B785B0103F51063C25842F40012B0
:10227000C25010E003F53063C258002AA2BFC25812
:1022800022F08042C2500B785B0103F53063C258E4
:1022900042F40012C250002070474B78012B0B789B
:1022A0004FEA431312D103F510631A5822F40012B7
:1022B0001A50CB78023B012B1BD80B785B0103F53E
:1022C00010631A5842F080521A5012E003F530633E
:1022D0001A5822F400121A50CB78023B012B9FBFF0
:1022E0000B785B0103F530631A589CBF42F08052B3
:1022F0001A500020704738B5044600F5106300F509
:102300002E61FF229A60C3F8082220338B42F8D155
:1023100000254FF0FF32C4F818282046C4F81058A2
:10232000C4F81458C4F81C58FFF7AEFC204610211E
:10233000FFF798FC284638BDD0F80038090123F48F
:10234000FE63C0F80038D0F8003801F4FE610B439A
:10235000C0F800380020704708B5D0F8043823F0E2
:102360000203C0F804380320FEF729FB002008BD53
:1023700008B5D0F8043843F00203C0F8043803204D
:10238000FEF71DFB002008BD4369806918407047B7
:10239000D0F8183800F50060C0691840000C70478C
:1023A00000F50063D0F81808DB69184080B2704768
:1023B00000EB411100F50060D1F8083B406918407E
:1023C000704710B5D0F81048D0F8343800EB411001
:1023D000CB40DB01D0F80809DBB22343184010BD25
:1023E000406900F001007047D0F8003923F4FF6322
:1023F00023F00703C0F8003900F500639A6802F083
:102400000602042A02BFD0F8002942F00302C0F8F5
:1024100000295A68002042F480725A60704710B553
:102420000024C0F8104BD0F8104B012944F40024CC
:10243000C0F8104BD0F8104B00F5306344F018048E
:10244000C0F8104BD0F8104B08BF4FF0802344F079
:10245000C044C0F8104B04BFC0F8142BC0F8003BB8
:10246000002010BD08B568B10023C0F8143209B1CE
:10247000C0F81012012380F8FC310270FEF70EFA4A
:10248000002008BD022008BD69B1D0F81422002A3E
:1024900014BF0C2200228318D3F8140203F504732E
:1024A00008B9596070470220704708B5FEF72AFA4C
:1024B000002008BD10B50446D0F8143201795B68DD
:1024C00098472046FEF725FA002010BD08B5D0F841
:1024D00014320BB9022008BD1B6898470028F9D1B7
:1024E00008BD08B5D0F814325B689847002008BDD5
:1024F00038B5044600F50275284600F017F90123A7
:10250000C4F8F43194F80812B4F80E32C4F8F83173
:1025100001F01F03012B13D006D3022B15D1204647
:10252000294600F011FA15E001F06001402920462B
:1025300002D1FEF717FB0DE0294600F017F909E07C
:102540002046294600F0E8F904E0204601F0800129
:10255000FEF7F0F9002038BD10B5044689BBD0F86D
:10256000F431032B37D1D0F80C11D0F81031994247
:102570000AD9C91A8B4228BF0B46C0F80C11114664
:102580009AB200F088FA26E090F8083213F01F02A1
:1025900002D0012A07D010E003F06003402B0CD1D9
:1025A000FEF72EFB09E0D0F8143233B11B6923B1DA
:1025B00090F8FC21032A00D19847204600F074FAD5
:1025C00009E0D0F8143233B19B6923B190F8FC21B3
:1025D000032A00D19847002010BD70B504460E466E
:1025E000002947D1D0F8F431022B3BD1C569036AE9
:1025F0009D4208D9EB1A1146C3619AB200F032FA33
:102600002046314612E08269B2FBF3F503FB152543
:102610008DB99A420FD3D0F8F8319A420BD22A469C
:1026200000F020FA20462946C4F8F8510A460B4625
:10263000FEF7AFF916E0D4F814323BB1DB682BB1EA
:1026400094F8FC21032A01D12046984794F80832D7
:1026500003F07F03402B02D12046FEF7D3FA204639
:1026600000F02DFA94F80032012B0DD1002384F8EC
:10267000003209E0D0F8143233B15B6923B190F82D
:10268000FC21032A00D19847002070BD38B50446CC
:1026900000210A4640254023FEF742F92B46C4F8A4
:1026A0001051204680210022FEF73AF9012384F8D8
:1026B000FC31D4F8183225622BB1D4F814322046FC
:1026C0005B6821799847002038BD0174002070476D
:1026D00090F8FC3180F8FD31042380F8FC310020B3
:1026E000704790F8FD3180F8FC310020704708B544
:1026F00090F8FC21032A05D1D0F8143213B1DB691C
:1027000003B19847002008BD0020704700207047A3
:1027100000207047012208B580F8FC21D0F814226F
:1027200012B1526801799047002008BD0B78037000
:102730004B784370CA788B7803EB022343804A7945
:102740000B7903EB02238380CA798B7903EB022395
:10275000C380704710B504468021FEF7EBF8204691
:10276000BDE810400021FEF7E5B80000F7B54B7852
:1027700004460D46092B00F2C680DFE803F098AF4F
:10278000C4ABC44205C4885E49880F0A022F0DD02D
:10279000032F14D0012F40F0B680D0F810320DF185
:1027A00006011B68007C9847064619E0D0F81432F1
:1027B0000DF10600DB6A98470646477010E0D0F836
:1027C0001032C9B29B68007C0DF10602984706469C
:1027D00010B1BDF806301BB920462946FFF7BAFFF5
:1027E000BDF80630002B00F09280EA88002A00F045
:1027F0008E809A4228BF1A462046ADF80620314600
:1028000065E08B88002B7ED1CB88002B7BD190F8A4
:10281000FC318E78032B06F07F0674D080F8FE61C1
:102820003146FEF7A8F8204600F03EF90EB102232B
:1028300000E0012384F8FC3169E08978354E0129F4
:10284000317060D890F8FC31022B02D0032B08D0F5
:1028500059E0002953D001210323416080F8FC3165
:102860000FE031B9022380F8FC314160FFF739FEF7
:1028700045E04168012942D0C9B2FFF732FE317804
:1028800061602046FFF722FE022838D13BE0CA886B
:10289000012A38D190F8FC31022B03D0032B32D11E
:1028A000011D14E00146002341F8083F0FE090F8B5
:1028B000FC31023B012B26D80123C360D0F804323F
:1028C0000BB10323C360204604F10C01022200F087
:1028D000BBF81CE04B88012B19D108E090F8FC31C3
:1028E000023B012B0FD84B88012B10D10023C4F8D9
:1028F0000432D4F8143220469B6829469847204673
:1029000000F0D2F803E020462946FFF723FF00201D
:1029100003B0F0BD3009002038B590F8FC31044612
:10292000032B0D460CD10B79012B09D8D0F81432AA
:102930009B689847EB882BB9204600F0B5F801E07A
:10294000FFF708FF002038BD70B50A788E8802F0C6
:102950006002202A04460D46F3B204D1D0F81432A6
:102960009B68984751E04A78012A10D026D3032A61
:102970004BD190F8FC21022A27D0032A43D14A8860
:1029800092B95E0610D01946FDF7D4FF0CE090F81E
:10299000FC21022A19D0032A35D14A88AABB59063C
:1029A00008D01946FDF7CDFFD4F8143220469B68B5
:1029B00029469847204600F077F826E090F8FC2159
:1029C000022A02D0032A06D01DE05A061DD019465D
:1029D000FDF7B0FF19E003F07F0516F0800F00EB64
:1029E0000515194614BF143505F58275FDF7B0FFBE
:1029F00010B101232B6000E0286020462946022206
:102A000000F022F801E0FFF7A5FE002070BD30B510
:102A1000C8B10446231A14F8015BDBB2002DF9D1CA
:102A20005B00023313800B7003234B7001380223C9
:102A300010F8014F3CB15A1CCC54D2B202330024DE
:102A4000DBB28C54F4E730BD38B513460D46022294
:102A5000C0F8F4218361C36100212A46FDF792FF8B
:102A6000002038BD10B50C46134600212246FDF764
:102A700089FF002010BD38B513460D460322C0F86B
:102A8000F421C0F80831C0F80C3100212A46FDF7C6
:102A900080FF002038BD10B50C46134600212246A9
:102AA000FDF777FF002010BD08B500210423C0F812
:102AB000F4310A460B46FDF765FF002008BD08B556
:102AC00000210523C0F8F4310A460B46FDF761FFEB
:102AD000002008BD1B230380004870474C000020E5
:102AE000002070470020704700207047002070478A
:102AF00000207047002070470A2303800048704779
:102B000040000020062908B507D8D0F81C32044937
:102B10001868FFF77CFF024808BD002008BD00BF11
:102B20003109002037B5D0F81842054694F8003432
:102B3000042B65D1D4F80824002A3FD1237823B987
:102B4000D4F80C34012B2AD149E0212B10D1D4F830
:102B50000C34052B23D1E378A2781B0403EB02236A
:102B600062781344227903EB0263C4F8103436E030
:102B7000412B14D1D4F80C34052B10D1E078A37874
:102B8000000400EB032063781844237900EB036012
:102B9000D5F81C32C4F81004DB6898471DE0002308
:102BA000C4F80C34C4F808348DF8003028460123EA
:102BB0006946ADF80630FFF7CDFD10E0012A0ED9C9
:102BC0002D4BD0F81C02D4F810141344056901EB06
:102BD00083212046D4F80C24A847002846D10020A1
:102BE0000323C4F80C04C4F8080484F8003484F8FF
:102BF000020484F8030484F8040484F8053438E0FB
:102C0000072B4FF0000333D11C4A84F80734127DA0
:102C100002F0040202F0FF015AB1062284F80024F7
:102C200084F8023484F8033484F8043484F80524E6
:102C30001EE0082384F8003484F8021484F8031496
:102C400084F8041484F80534FFF734FCD5F81C32FA
:102C50009B689847BFF34F8F09490A4BCA6802F433
:102C6000E0621343CB60BFF34F8FFEE7022000E02A
:102C7000184603B030BD00BFFEFF3F004C000020EF
:102C800000ED00E00400FA0538B5D0F81832002550
:102C9000022283F8002483F8015483F80524C3F842
:102CA0000854C3F80C54D0F8183204464BB1D0F88D
:102CB0001C329B689847D4F8180200F0A5FBC4F8B2
:102CC0001852002038BD000010B504464FF4836050
:102CD00000F092FBC4F8180208B9022010BD114A96
:102CE0000023C0F81024022280F8073480F8002462
:102CF00080F8013480F8023480F8033480F804341A
:102D000080F8052480F80634C0F81434C0F808347C
:102D1000C0F80C34D4F81C325B6898470028DCD12A
:102D200010BD00BF00800008F8B50D78064615F00C
:102D300060050B46D0F8184200F05E81202D40F06F
:102D40007F814978062900F25581DFE811F02501DD
:102D5000070032009900E50003010601DA8894F8C3
:102D6000001492B1022901D0052978D15B88304640
:102D7000C4F808340323C4F80C2484F8003484F81D
:102D800005342146FFF777FE5AE1052901D00229D3
:102D900065D10123002084F80734062384F8003429
:102DA00084F8020484F8030484F8040484F80534E5
:102DB000F8BDDA88002A57D094F80004022801D020
:102DC000092847D15D88C4F80C24C4F80854B5B963
:102DD000032A4FF0210398BF09216370412384F82F
:102DE000001484F8051484F8025484F8035484F819
:102DF00004542570A37030462146032210E1012DB2
:102E00004FF000071AD0092384F8003484F8053401
:102E100084F8027484F8037484F80474894BD6F837
:102E20001C12D4F810042B4400EB83204D6921467A
:102E3000A847B4F80C2401463046F1E00F2284F88C
:102E4000002484F8027484F8037484F8047484F809
:102E5000052404E00025C4F80C54C4F80854304696
:102E60001946FFF777FCEBE0022384F8003484F87E
:102E7000022484F8032484F8042484F80534DFE071
:102E800094F8003404F20145032B02D0062B24D021
:102E90003EE0D4F80C34F3B100230422D4F8081433
:102EA00084F8002484F8023484F8033484F8043469
:102EB00084F80524D0F81C3231B92278412A03D194
:102EC0009B69D4F8100403E09B69D4F81004012135
:102ED0002A4698471CE0052210E094F80734012B9D
:102EE00006D1072284F8023484F80024002309E084
:102EF00073B9554A127D52070AD5022284F800247C
:102F000084F8023484F8033484F8043484F8052403
:102F100030462946062283E094F800340A2B0BBF82
:102F20000020002002230A2313BF0E2284F800345D
:102F300084F8010484F8003418BF84F8012484F86C
:102F4000020484F8030484F8040484F8053484F843
:102F50000604F8BD04F5806167E094F800349A1E19
:102F6000012A04D95A1F012A01D9092B68D100204E
:102F7000022384F8003484F8010484F8020484F8FD
:102F8000030484F8040484F8053484F80604C4F8BF
:102F90000804C4F80C04F8BD94F80024911E01291B
:102FA00004D9511F012901D9092A13D10022022174
:102FB00084F8001484F8012484F8022484F803249B
:102FC00084F8042484F8051484F80624C4F808243A
:102FD000C4F80C241C4A527D02F0100232B1304673
:102FE000FFF768FA3046FFF760FA29E05888FDF7E6
:102FF000E6FC25E019461FE04A780A2A13D00B2A7E
:1030000015D0062A18D14A88120A212A05D1CA8861
:103010000E49092A28BF092201E02A4629463046DE
:10302000FFF712FD0CE004F214410122F8E78A7860
:1030300012B9C4F8142403E0FFF78CFB0220F8BD9A
:103040000020F8BDFEFF3F004C0000205E00002085
:1030500009B1C0F81C1200207047000040F0BF60AA
:1030600040F40030014BD860704700BF00ED00E035
:103070000428044A13680CBF43F0040323F004033C
:103080001360704710E000E0C0B2014B1870704749
:10309000003C024028B1064A136843F48073136071
:1030A0007047034A136823F480731360704700BFAE
:1030B000003C0240054B1B69002B05DA034B044A18
:1030C0005A6002F188325A60704700BF003C0240EB
:1030D00023016745024A136943F0004313617047B7
:1030E000003C0240014BD860704700BF003C0240EA
:1030F0000E4BDB6813F4803F12D10C4BDB6813F0EE
:10310000100F0FD1094BDB6813F0EF0F0CD1074BF9
:10311000DB6803F00203002B14BF07200820704770
:10312000012070470520704706207047003C024090
:1031300000B583B008238DF80730FFF7D9FF8DF86D
:1031400007009DF80730DBB2012B08D1FFF7D0FF55
:103150008DF807009DF80730DBB2012BF6D09DF803
:10316000070003B05DF804FB70B5054641B10129C5
:1031700008D002290CBF4FF400764FF4407603E0EC
:10318000002601E04FF48076FFF7D2FF08281ED119
:103190000F4C236923F44073236123691E43266186
:1031A000236923F0F8032361236943F002031D43DD
:1031B0002561236943F480332361FFF7B9FF236955
:1031C00023F002032361236923F0F803236170BD18
:1031D000003C024070B505460E46FFF7A9FF0828DF
:1031E00013D10A4C236923F440732361236943F408
:1031F00000732361236943F0010323612E60FFF70D
:1032000097FF236923F00103236170BD003C024056
:10321000F0B500220126032706FA02F30C681C40D1
:103220009C4237D10368540007FA04F5ED432B4064
:103230000360036891F804E00EFA04FE4EEA03030B
:1032400003600B79013BDBB2012B16D883681D406C
:10325000856085684B79A3402B43836043681FFAE0
:1032600082FE06FA0EF523EA0503436045688B7972
:1032700003FA0EF39BB22B434360C36895B26D0013
:1032800007FA05F523EA0503C360C568CB79A340B7
:103290002B43C3600132102ABED1F0BD10B401F03F
:1032A00007039B00C90800EB8100046A0F219940C5
:1032B00024EA01010162016A9A40114301625DF84A
:1032C000044B7047024B00221A701870704700BF01
:1032D0000238024010B4019C40EA0460014341EA14
:1032E00082125B08013B42EA0340024B58605DF8E2
:1032F000044B704700380240014B1860704700BF14
:1033000060004742034A936823F003031843906028
:10331000704700BF00380240024B986800F00C0074
:10332000704700BF00380240034A936823F0F0035F
:1033300018439060704700BF00380240034A93680A
:1033400023F4E05318439060704700BF00380240F8
:10335000034A936823F4604343EAC00090607047D7
:103360000038024021B1054A136B184310637047BF
:10337000024A136B23EA00001063704700380240D2
:1033800021B1054A536C184350647047024A536C8C
:1033900023EA000050647047003802404309012BC3
:1033A00002D1074B1A6804E0022B054B0CBF1A6FC1
:1033B0005A6F00F01F0322FA03F000F0010070477B
:1033C0000038024010B582B000230193312420461A
:1033D000FFF7E4FF019B01330193019BB3F5A06F5D
:1033E00001D00028F3D03120FFF7D8FF003018BFFC
:1033F000012002B010BD00BF024B0146186800F06A
:10340000B5B800BF04010020024B0146186800F067
:103410003BB800BF0401002010B5431E0A4491428E
:1034200004D011F8014B03F8014FF8E710BD8142B9
:1034300010B501EB020301D3421E0BE09842FBD210
:103440008118D21AD34204D013F8014D01F8014D6E
:10345000F8E710BD994204D011F8014B02F8014F72
:10346000F8E710BD03460244934202D003F8011B63
:10347000FAE7704710B50446024B196800F048F8A7
:10348000204610BD0401002030B500293CD051F881
:10349000042C0B1F1D49002AB8BF9B180A680C4654
:1034A00012B95A600B6030BD93420DD2196858189A
:1034B000904201BF5A5852181A60426823605A60FD
:1034C00030BD994203D80A4651680029F9D11468E1
:1034D00015199D420AD11B682344D01888421360F5
:1034E00012D10868034413604B680CE002D90C2326
:1034F000036030BD1C681819884201BF086849681C
:10350000001918605960536030BD00BF5C0A00208C
:1035100070B5134C0646236843B10846002100F0FD
:103520007BF8431C03D02368C01A00E018460D4BFB
:103530001A6800231AB1116852680B44FAE735463D
:10354000094C2060C01A2362E0610FCC0FC50FCC7C
:103550000FC594E8030085E80300304670BD00BF46
:10356000580A00205C0A0020300A002070B5CC1CEC
:1035700024F0030408340C2C38BF0C24002C06461D
:1035800003DA0C233360002070BD8C42F9D3204A4B
:10359000136810461946A1B10A68121B0ED40B2AF3
:1035A00003D90A608B188C501FE08B420BBF5A68FE
:1035B0004A6802605A6018BF0B4616E00B4649681D
:1035C000E9E7144D2B681BB9304600F025F8286058
:1035D0003046214600F020F8421C0346D1D0C51CDD
:1035E00025F0030585420AD11C6003F10B001A1D6A
:1035F00020F00700821A0AD05142995070BD30461F
:10360000E91A00F009F80130BBD02B46ECE770BD99
:103610005C0A0020580A002038B5064C00230546F5
:1036200008462360FDF762FC431C02D1236803B106
:103630002B6038BD600A00200EB400B54FF4027153
:103640009CB0ADF814106FF00041049107914FF653
:10365000FF711DABADF81610084953F8042B02900A
:103660000690086802A9019300F074F8029B0022FA
:103670001A701CB05DF804EB03B070470401002021
:10368000034611F8012B03F8012B002AF9D17047EA
:10369000034613F8012B002AFBD1181A0138704792
:1036A0002DE9F0478E688246B3420C469046994613
:1036B00040D38A8912F4906F3AD0256809690223B1
:1036C0006F1A656905EB450595FBF3F57B1C4B44CB
:1036D0009D4238BF1D4653050FD52946FFF746FFCB
:1036E000064698B121693A46FFF796FEA38923F46E
:1036F000906343F08003A38113E02A4600F0C0FAF0
:10370000064670B950462169FFF7BEFE0C23CAF881
:103710000030A3894FF0FF3043F04003A381BDE8A0
:10372000F08726613E4426604E466561ED1BA5602C
:10373000B14500D24E46324620684146FFF777FE3B
:10374000A36800209B1BA36023681E442660BDE87D
:10375000F08700002DE9F0439DB003938B89064666
:103760001C060D4690460CD50B6953B94021FFF756
:10377000FDFE2860286110B90C233360CCE04023A3
:103780006B610023099320238DF8293030238DF8B5
:103790002A3043461C4613F8012B1AB9B4EB08092A
:1037A0000FD002E0252AF5D1F8E7304629464246F7
:1037B0004B46FFF775FF013000F0A980099B4B4491
:1037C00009932378002B00F0A28000234FF0FF32F2
:1037D00004930793059206938DF853301A9304F1DE
:1037E00001084446DFF8489121784846052200F058
:1037F00039FA08F10108049B30B1C9EB000001223D
:10380000824013430493ECE7D80644BF20228DF88E
:103810005320190744BF2B228DF8532022782A2ADF
:1038200002D0079923460EE0039A0134111D126855
:103830000391002ABBBF524243F002030792079252
:10384000B8BF04930AE01C4622780133303A092AB3
:1038500003D80A2000FB0121F5E7079123782E2BDE
:103860001AD163782A2B0AD1039B02341A1D1B68D4
:103870000392002BB8BF4FF0FF3305930CE0611C9F
:1038800000220C4623780131303B092B03D80A2053
:1038900000FB0232F5E70592DFF898802178404678
:1038A000032200F0DFF938B1049AC8EB000040238E
:1038B000834013430493013421781A48062204F10B
:1038C00001088DF8281000F0CDF988B1164B33B9F6
:1038D000039B073323F007030833039313E003AB81
:1038E0000093304604A92A46104BAFF3008007E04E
:1038F00003AB0093304604A92A460C4B00F092F823
:10390000421C074603D0099B3B44099341E7AB891E
:103910005B0601D4099801E04FF0FF301DB0BDE80F
:10392000F08300BF623F000800000000A1360008DD
:10393000583F00085E3F00082DE9F84391461F46B6
:103940008A680B6906469342B8BF1346C9F800302F
:1039500091F843200C46DDF8208012B10133C9F8FC
:1039600000302368990642BFD9F800300233C9F805
:103970000030256815F006051CD094F84330226805
:10398000003318BF012392061FD5E118302081F8BB
:1039900043005A1C94F845102244023382F8431025
:1039A00013E03046394604F119020123C0470130C3
:1039B00007D00135E368D9F800209B1A9D42F0DB5F
:1039C000DBE74FF0FF30BDE8F8833046394604F1BD
:1039D0004302C0470130F4D02268D9F80050E368B0
:1039E00002F00602042A08BF5D1B2269A3680CBF0F
:1039F00025EAE57500259342C4BF9B1AED184FF0E8
:103A00000009A9450ADA3046394604F11A020123B1
:103A1000C0470130D5D009F10109F2E70020BDE827
:103A2000F88300002DE9FF410C461746227E984698
:103A30006E2A06460A9B01F1430100F0B08012D8BD
:103A4000632A23D00AD8002A00F0BD80582A40F00B
:103A5000CC8084F84520DFF804E257E0642A1ED0C9
:103A6000692A1CD0C1E0732A00F0B18009D86F2AFE
:103A70002ED0702A40F0B980226842F020022260E5
:103A80003FE0752A24D0782A3BD0AEE01A6804F1D2
:103A90004205111D1960136884F84230A9E02068BE
:103AA0001A6810F0800F02D0101D186008E010F0A6
:103AB000400F02F10400186002D0B2F9003000E0BB
:103AC0001368002B3EDA2D225B4284F8432039E054
:103AD00020681A6810F0800F02D0101D186007E0EF
:103AE00010F0400F02F10400186001D0138800E0CC
:103AF0001368227EDFF864E16F2A0CBF08220A22D5
:103B00001CE07822DFF858E184F845202268186824
:103B100012F0800F00F104051D6003D1550601D598
:103B2000038800E00368D00744BF42F0200222600F
:103B30001BB9226822F0200222601022002084F8A3
:103B4000430002E0DFF814E10A226568002DA8BFF7
:103B50002068A560A4BF20F00400206003B965B10F
:103B60000D46B3FBF2F002FB10331EF8033005F8EC
:103B7000013D03460028F4D100E00D46082A0BD190
:103B80002368DA0708D5236962689A42DEBF3023CA
:103B900005F8013C05F1FF35491B21612EE0256840
:103BA0001A6815F0800F606903D0151D1D60136839
:103BB00008E015F0400F02F104051D60136801D004
:103BC000188000E01860002323610D4616E01A6893
:103BD000111D1960156800212846626800F042F83E
:103BE00008B1401B6060636804E004F1420584F89A
:103BF000422001232361002384F84330CDF8008064
:103C00003046214603AA3B46FFF796FE013002D11B
:103C10004FF0FF301FE0304639462A462369C0473F
:103C20000130F5D023689B0705D4E068039B9842D8
:103C3000B8BF18460FE00025E368039A9B1A9D421F
:103C4000F3DA3046394604F119020123C047013046
:103C5000DED00135F0E704B0BDE8F081693F00082F
:103C60007A3F000810B5C9B202449042034605D01D
:103C70001C7801308C42F8D1184610BD002010BDD0
:103C8000F8B5074615460E4621B91146BDE8F8407D
:103C9000FFF76CBC1AB9FFF7F7FB2846F8BD00F038
:103CA00015F8A8420ED238462946FFF75FFC0446B5
:103CB00050B131462A46FFF7AFFB38463146FFF791
:103CC000E3FB01E03046F8BD2046F8BD51F8040C96
:103CD0000028BEBF091851F8043CC01804387047CA
:103CE000000002400000000000000240010000004F
:103CF000000002400200000000000240030000003B
:103D00000000024004000000000002400500000026
:103D10000000024006000000000002400700000012
:103D200000000240080000000000024009000000FE
:103D3000000002400A000000000002400B000000EA
:103D4000000002400C000000000002400D000000D6
:103D5000000002400E000000000002400F000000C2
:103D600000040240000000000004024001000000C6
:103D700000040240020000000004024003000000B2
:103D8000000402400400000000040240050000009E
:103D9000000402400600000000040240070000008A
:103DA0000004024008000000000402400900000076
:103DB000000402400A000000000402400B00000062
:103DC000000402400C000000000402400D0000004E
:103DD000000402400E000000000402400F0000003A
:103DE000000802400000000000080240010000003E
:103DF000000802400200000000080240030000002A
:103E00000008024004000000000802400500000015
:103E10000008024006000000000802400700000001
:103E20002530386C582530386C582530386C58009F
:103E300025642E25642E25640046463A46463A46B9
:103E4000463A46463A46463A46460000603E000834
:103E5000743E0008863E0008933E000804030904EF
:103E6000416461667275697420496E647573747219
:103E70006965730057494345442046656174686528
:103E800072204446550030303030303030303030E1
:103E900031430040496E7465726E616C20466C61FE
:103EA00073682020202F3078303830303030303078
:103EB0002F30322A3031364B612C30322A303136B5
:103EC0004B672C30312A3036344B672C30372A314F
:103ED00032384B67000000000100000002000000C3
:103EE0000400000008000000100000002000000096
:103EF0004000000080000000000000000000000002
:103F000000000000000000000000000000000000B1
:103F100000000000000000000000000000000000A1
:103F20000000000000000000000000000000000091
:103F30000000000000000000000000000000000081
:103F40000000000000000000000000000000000071
:103F50000000000000000000232D302B2000686CC2
:103F60004C0065666745464700303132333435369C
:103F700037383941424344454600303132333435D5
:103F800036373839616263646566000000000000FE
:103F900012010002000000409A2308000002010202
:103FA00003010000090C000800000000150C0008C7
:103FB000933E00086B0C0008750C0008810C00088B
:103FC000310D0008490C00085D0C0008644A00200F
:103FD0000A060002000000400100000009021B0068
:103FE000010100C0320904000000FE0102040921A1
:103FF0000BFF0000041A0100C92C0008892C0008DE
:10400000292D0008252B0008E52A0008E12A0008D0
:10401000F52A0008E92A0008ED2A0008F12A00081C
:10402000D52A0008D52A0008D52A0008F92A000850
:10403000052B000800000000F83E0008183F0008AB
:10404000383F0008000000000000000000000000F1
:1040500000000000913E0008000000000000000089
:104060000000000000000000000000000000000050
:104070000000000000000000000000000000000040
:104080000000000000000000000000000000000030
:0840900000000000A400002064
:0400000508000F25BB
:00000001FF
